:100000000C94A0030C94C8030C94C8030C94C8036C
:100010000C94C8030C94C8030C94C8030C94C80334
:100020000C94C8030C94C8030C94C8030C94C80324
:100030000C94C8030C94C8030C94C8030C94C80314
:100040000C94DC2F0C94C8030C9464300C943E3058
:100050000C94C8030C94C8030C94C8030C94C803F4
:100060000C949C300C94C80300000000C0C0C0C0B9
:10007000C0E0E0C0C0C0C0C0C0C0C0C00000000040
:10008000000000001818989818191918181818184E
:100090003C3C1818000000000000000003030707A4
:1000A000030303030303030303030303000000002C
:1000B000FFFF0707C7C7C7C7C7E7E7C7C7C7C7C7A0
:1000C000C7C7C7C70707FFFFFFFF000018189898AA
:1000D00018191918181818183C3C18180000FFFFB8
:1000E000FFFFE0E0E3E3E7E7E3E3E3E3E3E3E3E3A6
:1000F000E3E3E3E3E0E0FFFF0000000040E0F0E0C6
:10010000C0E0F8F8F8F8E0C0E0F0E04000000000DF
:100110000000003C3C7EFFFFFFC381818181C3FF63
:10012000FFFF7E3C3C0000000000000002070F07BC
:1001300003071F1F1F1F0703070F07020000000010
:10014000FFFFBF1F4FE7F3E7C1E1F9F9F9F9E1C19B
:10015000E7F3E74F1FBFFFFFFF00003C3C7EFFFFC0
:10016000FFC381818181C3FFFFFF7E3C3C0000FF14
:10017000FFFFFDF8F2E7CFE783879F9F9F9F87836D
:10018000E7CFE7F2F8FDFFFF0000000000F8F8F805
:10019000F8F800000000F8F8F8F8F8000000000097
:1001A0000000000000FFFFFFFFFF00000000FFFF56
:1001B000FFFFFF000000000000000000001F1F1FE5
:1001C0001F1F000000001F1F1F1F1F000000000056
:1001D000FFFFFF0303F3F3F3F3F303030303F3F36B
:1001E000F3F3F30303FFFFFFFFFFFF0000FFFFFF39
:1001F000FFFF00000000FFFFFFFFFF0000FFFFFF09
:10020000FFFFFFC0C0CFCFCFCFCFC0C0C0C0CFCFC8
:10021000CFCFCFC0C0FFFFFF00000000F0F0E0E054
:10022000C0C080800000000000000000000000004E
:1002300000000000FFFFFFFFFFFFFFFFFFFF7E7ECC
:100240003C3C181800000000000000000F0F0707DA
:100250000303010100000000000000000000000096
:10026000FFFF0303F3F3E3E7C7CF8F9F1F3F3F7FFA
:100270007FFFFFFFFFFFFFFFFFFF0000FFFFFFFF0C
:10028000FFFFFFFFFFFF7E7E3C3C189981C3FFFF0D
:10029000FFFFC0C0CFCFC7E7E3F3F1F9F8FCFCFEE6
:1002A000FEFFFFFFFFFFFFFF000000000000000057
:1002B0000030F8FCFCFEFEFCF8F0E0F0FFFFFFFF72
:1002C000FFFFFFF0E0F0F8FCFEFEFCFCF830000061
:1002D000000000000000000060F8FCFEFEFCFCF8DE
:1002E000FCFE7F3F1F0F87E7E3C30303010101010A
:1002F000010303C3E3E7870F1F3F7FFEFCF8FCFC0D
:10030000FEFEFCF86000F0F0F0F1FBFFFFFFFF1FC6
:10031000010000007FFFFFFFDF3EF8F0E0C0E0F0EB
:10032000F83EDFFFFFFF7F000000011FFFFFFFFF20
:10033000FBF1F0F0F0070787C7EFFFFFFFFFFCC0FE
:10034000800000000103070F0F08C3FFFFFFC30871
:100350000F0F07030100000080C0FCFFFFFFFFEF4D
:10036000C787070700030F1F3F3F1F1F0F1FBFFF58
:10037000FFFEFCFCF8F8FCFEFFFFFFFFFFFFFFFEA7
:10038000FCF8F8FCFCFEFFFFBF1F0F1F1F3F3F1FC5
:100390000F0300000000000000000000060F1F1FF8
:1003A0003F3F1F0F0703077F7F7F7F7F7F7F07030D
:1003B000070F1F3F3F1F1F0F060000000000000037
:1003C0000000000000000000006F000000070007B0
:1003D00000147F147F148C92FF92622313086462CE
:1003E00036495620500000070000001C2241000042
:1003F00041221C0014083E081408083E080800505A
:10040000300000080808080800606000002010089C
:1004100004023E5149453E00427F4000426151493D
:10042000462141454B311814127F10274545453967
:100430003C4A4949300171090503364949493606A4
:100440004949291E003636000000563600000814BF
:100450002241001414141414004122140802015102
:1004600009063E415D494E7E0909097E7F49494999
:10047000363E414141227F4141413E7F4949494108
:100480007F090909013E4149497A7F0808087F0030
:10049000417F41002040413F017F081422417F40BD
:1004A0004040407F020C027F7F0408107F3E4141A4
:1004B000413E7F090909063E4151215E7F09192904
:1004C00046464949493101017F01013F4040403FD3
:1004D0000F3040300F3F4030403F63140814630733
:1004E00008700807615149454300007F410002043C
:1004F00008102000417F0000040201020440404037
:100500004040000003040020545454787F48444481
:10051000383844444420384444487F3854545418AC
:10052000087E0901020C5252523E7F0804047800F2
:10053000447D40002040443D00007F10284400419D
:100540007F40007C041804787C0804047838444414
:1005500044387C14141408081414187C7C0804040F
:10056000084854545420043F4440203C4040207CE0
:100570001C2040201C3C4030403C44281028440CA7
:100580005050503C4464544C4400083641410000F3
:100590007F0000414136080004020408047E111166
:1005A000117E7F494949337F494949367F0101011D
:1005B00003E0514F41FF7F4949494177087F087760
:1005C00041494949367F1008047F7C2112097C7F0C
:1005D0000814224120413F017F7F020C027F7F08E7
:1005E00008087F3E4141413E7F0101017F7F0909AB
:1005F00009063E4141412201017F010147281008BF
:10060000071C227F221C63140814637F404040FFB4
:10061000070808087F7F407F407F7F407F40FF01C1
:100620007F4848307F4830007F007F484830224173
:1006300049493E7F083E413E462919097F205454CE
:1006400054783C4A4A49317C545428007C04040CB8
:1006500000E0544C44FC38545454186C107C106C1A
:1006600044545428007C2010087C78422412787C62
:100670001028440020443C047C7C0810087C7C103A
:1006800010107C38444444387C0404047C7C1414EA
:100690001408384444440004047C04040C505050B2
:1006A0003C3048FE483044281028447C40407CC000
:1006B0000C1010107C7C407C407C7C407C40FC0416
:1006C0007C5050207C5050207C7C5050200028448E
:1006D0005454387C10384438085434147C385554F9
:1006E000551800000000230026002900000000002B
:1006F000240027002A0000000000250028002B000D
:1007000004040404040404040202020202020303B7
:1007100003030303010204081020408001020408BF
:10072000102001020408102000000008000201004F
:10073000000304070000000000000000C32F7E3209
:1007400011241FBECFEFD8E0DEBFCDBF13E0A0E085
:10075000B1E0E2E6FCE602C005900D92A63AB107D0
:10076000D9F726E0A6EAB3E001C01D92A138B2078E
:10077000E1F713E0CFE9D3E004C02197FE010E9426
:10078000BD32CE39D107C9F70E9437300C942436D8
:100790000C9400008330B1F060F08730E9F08830CD
:1007A00009F1843021F5E0E8F0E080818F7D8083DD
:1007B0000895813069F0823021F484B58F7D84BD45
:1007C00008950895E0E8F0E080818F7780830895B0
:1007D00084B58F7784BD0895E0EBF0E080818F775A
:1007E00080830895E0EBF0E080818F7D8083089521
:1007F0001F93CF93DF93282F30E0F901E85DF84F86
:100800008491F901EC5EF84F1491F901E050F94F31
:10081000C491CC23A9F0D62F811116C0EC2FF0E0A3
:10082000EE0FFF1FEA50F94FA591B4918FB7F894DE
:10083000D1110DC09C91E12FE095E923EC938FBF7E
:10084000DF91CF911F9108950E94CA03E7CFEC91E9
:10085000E12BEC93F4CFCF93DF9390E0FC01EC5EBF
:10086000F84F24918050994FFC018491882319F10D
:1008700090E0880F991FFC01E451F94FA591B491C4
:10088000FC01EA50F94FC591D491662349F06230DA
:10089000A9F08FB7F894EC91E22BEC938FBF0BC0CB
:1008A0009FB7F8948C91E22FE0958E238C938881EA
:1008B000E823E8839FBFDF91CF9108959FB7F89415
:1008C0003C91822F809583238C93E881E22BE883EF
:1008D0009FBFF1CF789484B5826084BD84B5816078
:1008E00084BD85B5826085BD85B5816085BDEEE638
:1008F000F0E0808181608083E1E8F0E01082808117
:1009000082608083808181608083E0E8F0E0808184
:1009100081608083E1EBF0E0808184608083E0EBA4
:10092000F0E0808181608083EAE7F0E0808184608C
:1009300080838081826080838081816080838081E8
:10094000806880831092C10008958230910538F04C
:10095000880F991F880F991F05970197F1F7089540
:100960003FB7F8948091790690917A06A0917B0622
:10097000B0917C0626B5A89B05C02F3F19F00196C3
:10098000A11DB11D3FBFBA2FA92F982F8827BC01E9
:10099000CD01620F711D811D911D660F771F881F8C
:1009A000991F660F771F881F991F08952FB7F89416
:1009B0006091750670917606809177069091780621
:1009C0002FBF08950895DB01ED91FC9111970190DF
:1009D000F081E02DBC01CD0109950895DC01ED9178
:1009E000FC910190F081E02D09950895EF92FF921E
:1009F0000F931F93CF93DF938C01FB01D0E0C0E0F6
:100A00007F018FEFE81AF80A6491662369F0D80134
:100A1000ED91FC910190F081E02DC8010995892BA1
:100A200019F02196F701ECCFCE01DF91CF911F9104
:100A30000F91FF90EF900895CF92DF92EF92FF9287
:100A40000F931F93CF93DF938C01DB01D0E0C0E0C5
:100A50007A0181E0E81AF108452BA1F0F8018081C4
:100A60009181FC01208131816D01FFEFCF1ADF0AF6
:100A70006C91C801F9010995892B21F02196A701F4
:100A8000D601E6CFCE01DF91CF911F910F91FF905C
:100A9000EF90DF90CF900895019709F008956F3F90
:100AA0007F4FE1F7E7EDF5E01382128288EE93E0E5
:100AB000A0E0B0E084839583A683B7838CE691E0C1
:100AC0009183808385EC90E09587848784EC90E027
:100AD0009787868780EC90E0918B808B81EC90E00B
:100AE000938B828B82EC90E0958B848B86EC90E0EC
:100AF000978B868B118E128E138E148ECFCFFC01A6
:100B0000938D848D981720F4891B990B0197089574
:100B10002FE330E0291B3109820F932F911D089597
:100B2000FC01918D828D981761F0A28DAE0FBF2FC1
:100B3000B11D5D968C91928D9F5F9F73928F90E017
:100B400008958FEF9FEF0895FC01918D828D981786
:100B500031F0828DE80FF11D858D90E008958FEFC3
:100B60009FEF0895FC01218D30E0205C3F4F828D86
:100B7000A901481B5109CA018F739927089587ED70
:100B800095E00E94B20521E0892B09F420E0822F34
:100B90000895CF92DF92EF92FF921F93CF93DF934E
:100BA000EC016A017B01122F60E079E08DE390E0B7
:100BB000A70196010E949B32215031094109510938
:100BC0005695479537952795E889F98982E080837E
:100BD000C11481EED806E104F10421F0211580E171
:100BE000380798F0E889F989108260E874E88EE1A6
:100BF00090E0A70196010E949B32215031094109E2
:100C000051095695479537952795EC85FD85308395
:100C1000EE85FF852083188EEC89FD891083EA8993
:100C2000FB89808180618083EA89FB89808188607B
:100C30008083EA89FB89808180688083EA89FB89D7
:100C400080818F7D8083DF91CF911F91FF90EF9006
:100C5000DF90CF900895FC01A48DA80FB92FB11D8E
:100C6000A35ABF4F2C91848D90E001968F7390789A
:100C7000848FA689B7892C93A089B1898C918370C0
:100C800080648C93938D848D981308950288F389E2
:100C9000E02D80818F7D8083F8CF0F931F93CF93BA
:100CA000DF93EC0181E0888F9B8D8C8D9817B1F0DC
:100CB000062F8B8D90E001968F739078182F8C8D76
:100CC00081131EC00FB607FCFACFE889F98980812D
:100CD00085FFF5CFCE010E942B06F1CFE889F98977
:100CE000808185FFE5CF9FB7F894EE89FF89608307
:100CF000E889F98980818370806480839FBF10C0F8
:100D0000EB8DEC0FFD2FF11DE35AFF4F00839FB7D2
:100D1000F8941B8FEA89FB898081806280839FBF62
:100D200081E090E0DF91CF911F910F910895CF93D3
:100D3000DF93EC01888D811104C00DC00FB607FE52
:100D40000DC0EA89FB89808185FDF8CFA889B98922
:100D50008C9186FFF3CFDF91CF910895808185FF3D
:100D6000F0CFE889F989808185FFEBCFCE010E9421
:100D70002B06E7CF80E090E0892B21F00E94BF0591
:100D8000811101C008950E940000FCCF0E94D6048A
:100D90000895AC0190E080E001C001968A30910591
:100DA0009CF4FA01E80FF91FE056FF4F2081211152
:100DB000F4CFFC017496EE0FFF1FE40FF51F2081A6
:100DC0003181232B51F702C08FEF9FEF08956F926F
:100DD0007F928F929F92AF92BF92CF92DF92EF92CB
:100DE000FF920F931F93CF93DF93EC014A015B01B6
:100DF00039010E94C9066C0199230CF464C0611486
:100E0000710409F464C04496FC01EE0FFF1FEE0F5D
:100E1000FF1FEC0FFD1F80829182A282B382880F98
:100E2000991FFE01E80FF91F71826082F6017E961C
:100E3000EE0FFF1FEC0FFD1FF182E082F601FC9622
:100E4000EE0FFF1FEC0FFD1F11830083F601EA5B1D
:100E5000FF4FEE0FFF1FEC0FFD1F118210820E944B
:100E6000D604F601EE0FFF1FEE0FFF1FEC0FFD1F64
:100E70006083718382839383FE01EC0DFD1DE05638
:100E8000FF4F81E08083F601EB5AFF4FEE0FFF1F0B
:100E9000EC0FFD1F11821082C254DF4F88819981AF
:100EA000019699838883C601DF91CF911F910F919D
:100EB000FF90EF90DF90CF90BF90AF909F908F907A
:100EC0007F906F900895CC24CA94DC2CECCFCC2476
:100ED000CA94DC2CE8CFEF92FF920F931F93780116
:100EE00001E010E00E94E7061F910F91FF90EF9044
:100EF0000895EF92FF920F931F93780110E000E0A6
:100F00000E94E7061F910F91FF90EF900895FC015A
:100F1000E254FF4F1182108230E020E02A30310588
:100F200014F5F9017496EE0FFF1FE80FF91F1182F7
:100F30001082F9017E96EE0FFF1FE80FF91F118254
:100F40001082FC01E20FF31FE056FF4F1082F901FF
:100F5000EB5AFF4FEE0FFF1FE80FF91F11821082AF
:100F60002F5F3F4FDBCF089585EC8093BC0010923C
:100F7000B1050895811104C085E88093BC000895EF
:100F800085EC8093BC000895AC0120918D05260F5F
:100F90003327331F21323105F4F48091B1058430B9
:100FA000E1F490E00FC0E0918D05292F30E0E20FD1
:100FB000F32FF11D240F351FD9012C91E359FA4F5E
:100FC00020839F5F961778F380918D05680F60935B
:100FD0008D0580E0089581E0089582E00895ECEBAE
:100FE000F0E080818A7B808360E082E10E94F803E8
:100FF00060E083E10E94F80308951092B10581E05A
:101000008093B3051092B20561E082E10E94F8037B
:1010100061E083E10E94F803E9EBF0E080818E7FDC
:10102000808380818D7F808388E48093B80085E40D
:101030008093BC000895EF92FF920F931F93CF937C
:10104000DF9391E090936C05811107C0DF91CF9100
:101050001F910F91FF90EF900895C8EBD0E0F880BA
:101060000AEB10E0F801E0800E94EF070E94FD0704
:10107000F801E082F882EACF4F925F926F927F92FE
:101080008F929F92AF92BF92EF92FF920F931F9316
:10109000CF93DF93413280F081E0DF91CF911F91B8
:1010A0000F91FF90EF90BF90AF909F908F907F90A7
:1010B0006F905F904F900895D22FC42F7B01182F0F
:1010C0000E94B0044B015C019091B105992329F174
:1010D0008091680590916905A0916A05B0916B05B2
:1010E000892B8A2B8B2B81F30E94B0046819790914
:1010F0008A099B09409068055090690560906A05CF
:1011000070906B054616570668067906E8F68091DA
:1011100067050E941B0885E0C0CF82E08093B1057F
:101120000093B3058FEF8093B0051092D505C0935F
:10113000D4050AC0E92FF0E0D701AE0FBF1F8C9194
:10114000EC54FA4F80839F5F9C17A0F31092D60552
:10115000812F90E0880F991F1091D605812B8093E5
:10116000D6058091B2058130A1F185EE8093BC0057
:101170000E94B0044B015C01DD2309F462C0809140
:10118000B105823009F05DC08091680590916905D4
:10119000A0916A05B0916B05892B8A2B8B2B61F38B
:1011A0000E94B004681979098A099B0900916805B1
:1011B0001091690520916A0530916B050617170794
:1011C00028073907C8F6809167050E941B0885E04B
:1011D00064CF1092B2050E94B0044B015C0104C0C0
:1011E0008091BC0083FF29C08091D6058093BB000D
:1011F0008091680590916905A0916A05B0916B0591
:10120000892B8A2B8B2B61F30E94B0046819790912
:101210008A099B09009168051091690520916A056A
:1012200030916B050617170728073907C8F6809114
:1012300067050E941B0885E030CF85EC8093BC00D9
:1012400097CF8091B0058F3F61F08091B0058032DB
:1012500051F08091B005803311F084E01ECF83E01F
:101260001CCF80E01ACF82E018CF08958FEF9FEF58
:1012700008958FEF9FEF089580915A0590E0919522
:10128000819591090895CF92DF92EF92FF920F938B
:101290001F93CF93DF938C016B017A0180915905E5
:1012A000882399F0D0E0C0E0CE15DF0590F4D80196
:1012B000ED91FC910190F081E02DD601AC0FBD1FA6
:1012C0006C91C80109952196EFCF642FC6010E9449
:1012D000C407C701DF91CF911F910F91FF90EF904D
:1012E000DF90CF900895CF93DF931F92CDB7DEB7F5
:1012F000FC016983909159059923F1F0909158056B
:10130000903250F081E090E09383828390E080E01F
:101310000F90DF91CF91089580915705E82FF0E06D
:10132000E95CFA4F998190838F5F80935705809392
:10133000580581E090E0ECCF61E0CE0101960E947B
:10134000C40781E090E0E4CF0F9340915805062F49
:1013500021E067E375E0809136050E943C08109219
:10136000570510925805109259050F91089561E0A4
:101370000E94A409089581E0809359056093360581
:1013800010925705109258050895FC01138212829D
:1013900088EE93E0A0E0B0E084839583A683B783D2
:1013A0008AE591E0918380830895019709F008957B
:1013B0006F3F7F4FE1F78BE595E00E94C509F7CFBE
:1013C000019709F008956F3F7F4FE1F7EDE2F5E0F7
:1013D0001182108281E08283148213821682158228
:1013E00010861782EFCFFC016283089577234CF0BB
:1013F0006730710514F066E070E0FC017183608372
:10140000089570E060E0F9CFFF920F931F93CF93A0
:10141000DF93EC018A01F22E0E94F6096F2DCE01B6
:101420000E94F3091C830B83DF91CF911F910F91D1
:10143000FF9008950F931F9382E6FB0111928A9506
:10144000E9F780E0853040F5FB0193E1899FE00DED
:10145000F11D112491E09083118212822FEF3FEF52
:101460003483238300E315E720E030E0058316830F
:1014700027833087118612861386148628E833E185
:10148000368725872AEF30E0308B278725E030E04C
:10149000328B218B8F5FD6CFFB01EF59FF4F81E05D
:1014A0008083615A7F4F8FEF9FEFFB019183808391
:1014B0001F910F9108958C599F4F21E0FC012083CB
:1014C0000895653048F423E1629F800D911D112439
:1014D000FC0187859089089590E080E0089565304B
:1014E00058F423E1629F800D911D1124FC01678156
:1014F000708581859285089560E070E0CB01089544
:10150000653040F423E1629F800D911D1124FC01A0
:101510008481089580E008956530B8F470E023E197
:10152000269FF001279FF00D1124E80FF91F23815A
:10153000241759F023E1269FF001279FF00D112475
:10154000E80FF91F43830E945B0A0895653040F459
:1015500023E1629F800D911D1124FC018381089578
:1015600080E00895FC0171836083ED59FF4F108284
:101570008C599F4FFC0110820895FC0102C0FB01B1
:10158000B9019B0121503109672BC9F0BF016F5F81
:101590007F4F808190E0982F88274827592780E047
:1015A00007C0440F551F91E2492790E159278F5FEB
:1015B000883028F75523ACF3440F551FF8CFCA01E4
:1015C0000895CB014FEF5FEF62E670E00E94BD0A25
:1015D0000895EF92FF920F931F93CF93DF9300D064
:1015E00000D000D01F92CDB7DEB7FC01EC59FF4F01
:1015F00020812223D1F18C011F821E8285EA95EA87
:10160000DC0189839A83AB83BC8381E08D8378017D
:1016100082E0E80EF11CB701C8010E94E10A9F8335
:101620008E83D8018D919C91DC01ED91FC91068017
:10163000F781E02D22E630E0A70167E070E0099530
:10164000F80180819181DC01ED91FC910680F781A8
:10165000E02D27E030E0AE014F5F5F4F70E060E0CB
:101660000995F801EC59FF4F108227960FB6F894B0
:10167000DEBF0FBECDBFDF91CF911F910F91FF90C5
:10168000EF900895FF920F931F93CF93DF93EC0198
:10169000F62E888199810E94610A8C018C819D813E
:1016A000DC01ED91FC910680F781E02D0995EAE2DD
:1016B000F5E0D183C083F282A80170E060E08F0181
:1016C00029E93EE28A819B810E946B07DF91CF91DD
:1016D0001F910F91FF900895FC016281808191819B
:1016E0000E94420B0895DC01ED91FC91119741E0BD
:1016F00012966C91808191810E948C0A0895CF92FC
:10170000DF92EF92FF920F931F93CF937C01C0E083
:1017100001C0CF5FC53018F56C2FF7018081918132
:101720000E94800A8111F5CFF701C280D3808C2FEF
:1017300090E08C01000F111F080F191F0A5F1F4F47
:101740000E0D1F1D6C2F808191810E946F0AAB01CD
:10175000BC0123E73BE0C6010E947907DACFCF91B5
:101760001F910F91FF90EF90DF90CF900895DC01D3
:1017700011967C936E9313965C934E9312971596E5
:101780003C932E93149755961C92559790E0953064
:1017900070F4292F30E0F901EE0FFF1FE20FF31F65
:1017A000EA0FFB1FB783A68390879F5FF0CF089552
:1017B0004F925F926F927F929F92AF92BF92CF9221
:1017C000DF92EF92FF920F931F93CF93DF93EC0181
:1017D000B62E8DE0681721F19AE0691731F160E0CB
:1017E0008B85882379F14F8558892D8530E0C90193
:1017F000880F991F820F931F880F991F840F951FC1
:101800002F812817190609F0ECF4188A1F868E8597
:1018100029893A89820F932F911D9A8B898B15C044
:10182000188A1F8661E0B12CDBCF8E8529893A8921
:10183000820F932F911D9A8B898B81E08C8761E0B9
:10184000B12CCECF662309F473C069897A896F847D
:1018500078880E85CF80862F87708B8B060F172F89
:10186000111D0150110915950795159507951595A9
:101870000795C60CD72CD11C7B01F594E794F59401
:10188000E794F594E7946C818BE595E00E94BB09A1
:1018900060E08BE595E00E94730961E28BE595E0DD
:1018A0000E94730977200CF486C08F8190E0861522
:1018B00097050CF43C01662D8BE595E00E947309B9
:1018C000DD200CF47AC08F8190E08C159D050CF41E
:1018D0006C016C2D8BE595E00E94730962E28BE54B
:1018E00095E00E947309FF200CF469C08D8190E09F
:1018F0008E159F050CF47C016E2D8BE595E00E9402
:10190000730911230CF45DC08D8190E0801791075D
:101910000CF48C01602F8BE595E00E9473098BE538
:1019200095E00E94B7091D8A82E090E00E94A5041C
:1019300089899A892E85280F392F311D8E8190E053
:101940000196821793070CF4B12C8C85882331F013
:101950008B85882319F0E0E2BE16A9F1BB20D4F1F3
:10196000BB20B9F04F8558898D85282F30E0C901FB
:10197000880F991F820F931F880F991F840F951F3F
:1019800099232CF02F81241715060CF053C0988B47
:101990008F8781E090E0DF91CF911F910F91FF90B1
:1019A000EF90DF90CF90BF90AF909F907F906F901F
:1019B0005F904F90089560E07FCF60E08BCF60E054
:1019C0009CCF60E0A8CF8F859889892B39F61C863B
:1019D000B12CC4CFFFEBFB1558F18C89813D41F050
:1019E000803D79F0823EB1F08038C9F0BC8AB8CF32
:1019F00091E9B912F5CFBC8A0F2EF0ECBF2EF02D75
:101A0000B1CFE1E8BE12EECFBC8A0F2EF5E9BF2EB2
:101A1000F02DA8CFF0E8BF12E7CFBC8ABACF84E997
:101A2000B812E4CFBC8A0F2EFDE2BF2EF02D9ACF64
:101A3000BC8AAFCF6C818BE595E00E94BB0960E466
:101A40008BE595E00E947309912CD2C090E0FC01D7
:101A5000EE0FFF1FEE0FFF1FE80FF91FBF01690D0B
:101A6000711D6E537C4FFB01649121C090E08F96F5
:101A7000BC01660F771F660F771F680F791F690D0E
:101A8000711D6E537C4FFB01649111C08151990B04
:101A9000BC01660F771F660F771F680F791F690DEE
:101AA000711D6E537C4FFB01649101C060E08A851B
:101AB000811160955D85513009F01AC28F85988932
:101AC00099230CF48CC02F81281719060CF487C0B9
:101AD0008B898111C6C08E89E82FF0E089A1882307
:101AE00009F474C04F8558898B8D9C8D481B590B08
:101AF00089899A892D8D3E8D821B930B55230CF479
:101B00006EC02F89388D241735070CF468C09923CF
:101B10000CF465C0A98DBA8D9D01220F331F220FD1
:101B2000331F220F331F281739070CF458C0E13038
:101B3000F105E9F0E230F10599F1EF2B09F04FC022
:101B4000EF8DF8A1959587959595879595958795AE
:101B50004A9F90014B9F300D5A9F300D1124820FE8
:101B6000931FE80FF91F8081682B608338C0EF8DC9
:101B7000F8A19595879595958795959587954A9F11
:101B800090014B9F300D5A9F300D1124820F931FEF
:101B9000E80FF91F862F80959081892380831FC0CD
:101BA0002F8D38A1959587959595879595958795CE
:101BB0004A9FF0014B9FF00D5A9FF00D11248E0F9C
:101BC0009F1F820F931FFC01608309C08BE595E086
:101BD0000E9473098D898F5F8D8B803170F58D85A3
:101BE0002F853889820F932F911D988B8F8793941F
:101BF00095E0991508F4DEC3E4E0E91508F456CF42
:101C000080EE8B0D803608F421CF90E89B0D90314B
:101C100008F42CCF803A08F439CF8150990BBC01DD
:101C2000660F771F660F771F680F791F690D711D8B
:101C30006E537C4FFB0164913ACF8BE595E00E9497
:101C4000B7091D8A82E090E00E94A5046C818BE5B3
:101C500095E00E94BB0960E48BE595E00E94730962
:101C6000BECF9E89E92FF0E0062F10E0B80102C038
:101C7000660F771F8A95E2F789A1882309F473C05C
:101C80002F8538898B8D9C8D281B390B89899A89E2
:101C90004D8D5E8D841B950B33230CF46EC04F89E4
:101CA000588D421753070CF468C099230CF465C093
:101CB000498D5A8DDA01AA0FBB1FAA0FBB1FAA0FAD
:101CC000BB1FA817B9070CF458C0E130F105E9F0C3
:101CD000E230F10599F1EF2B09F04FC0EF8DF8A13B
:101CE000959587959595879595958795249FD0018E
:101CF000259FB00D349FB00D11248A0F9B1FE80F54
:101D0000F91F8081862B808338C0EF8DF8A19595CF
:101D100087959595879595958795249FD001259FC3
:101D2000B00D349FB00D11248A0F9B1FE80FF91FCF
:101D3000862F80959081892380831FC0EF8DF8A125
:101D4000959587959595879595958795249FD0012D
:101D5000259FB00D349FB00D11248A0F9B1FE80FF3
:101D6000F91F60830AC08BE595E00E9473098D8995
:101D70008F5F8D8B803108F058C04E8950E02B89E1
:101D800088E090E0821B910902C0159507958A951D
:101D9000E2F789A1882309F48CC02F8538898B8DBF
:101DA0009C8D281B390B89899A89ED8DFE8D8E1BA0
:101DB0009F0B33230CF413CFEF89F88DE217F30751
:101DC0000CF40DCF99230CF40ACFE98DFA8DDF01C5
:101DD000AA0FBB1FAA0FBB1FAA0FBB1FA817B907CB
:101DE0000CF4FDCE41305105A1F14230510509F40A
:101DF0004AC0452B09F0F3CE4F8D58A19595879594
:101E000095958795959587952E9FD0012F9FB00D1D
:101E10003E9FB00D1124FC01EA0FFB1FE40FF51FDC
:101E20008081682F602B6083DACE8BE595E00E947D
:101E3000B7091D8A82E090E00E94A5046C818BE5C1
:101E400095E00E94BB0960E48BE595E00E94730970
:101E500094CF4F8D58A19595879595958795959594
:101E600087952E9FD0012F9FB00D3E9FB00D11245E
:101E7000FC01EA0FFB1FE40FF51F802F8095908176
:101E800089238083ACCE4F8D58A1959587959595E4
:101E90008795959587952E9FD0012F9FB00D3E9FDA
:101EA000B00D11248A0F9B1F840F951FFC01008326
:101EB00096CE602F8BE595E00E9473098D898F5F28
:101EC0008D8B803108F48BCE8BE595E00E94B709AD
:101ED0001D8A82E090E00E94A5046C818BE595E06C
:101EE0000E94BB0960E48BE595E00E94730977CE00
:101EF00030E040E0C12CD12C760134C081E090E08C
:101F0000A0E0B0E0032E04C0880F991FAA1FBB1FDA
:101F10000A94D2F780959095A095B095C822D922C1
:101F2000EA22FB222F5F3F5F2517D8F4862F90E02F
:101F3000042E02C0959587950A94E2F780FFDECFC4
:101F400081E090E0A0E0B0E0032E04C0880F991F6C
:101F5000AA1FBB1F0A94D2F7C82AD92AEA2AFB2A49
:101F6000E1CF4F5F483010F420E0DECF00E072C1D7
:101F700010E0A12C01C16F8D78A13595279535957D
:101F80002795359527954E9FC0014F9F900D5E9FD9
:101F9000900D1124280F391FFB01E20FF31F842D30
:101FA0008095908189238083E6C06F8D78A13595D7
:101FB000279535952795359527954E9FC0014F9FBD
:101FC000900D5E9F900D1124280F391F260F371F8B
:101FD000F9014082D0C0642D8BE595E00E94730921
:101FE0008D898F5F8D8B803108F4C5C08BE595E0BE
:101FF0000E94B7091D8A82E090E00E94A5046C81CE
:102000008BE595E00E94BB0960E48BE595E00E94BA
:102010007309B1C0EE89F0E028E030E0241B3109FB
:102020008A2D90E002C0959587952A95E2F7642D58
:1020300070E002C0660F771F4A95E2F7682B89A10E
:10204000882309F477C04F8558898B8D9C8D481B58
:10205000590B29893A898D8D9E8D281B390B552363
:102060000CF488C08F89988D841795070CF4E7C00D
:1020700033230CF4E6C0A98DBA8DCD01880F991FCA
:10208000880F991F880F991F821793070CF4DBC0E4
:10209000E130F105F9F0E230F105B1F1EF2B11F08B
:1020A000A42C69C0EF8DF8A1359527953595279516
:1020B000359527954A9FC0014B9F900D5A9F900DD3
:1020C0001124280F391FE20FF31F8081682B6083D2
:1020D000A42C51C0EF8DF8A13595279535952795FE
:1020E000359527954A9FC0014B9F900D5A9F900DA3
:1020F0001124280F391FE20FF31F862F809590813E
:1021000089238083A42C37C0EF8DF8A135952795BE
:1021100035952795359527954A9FC0014B9F900D82
:102120005A9F900D1124280F391FE20FF31F60836F
:10213000A42C21C08BE595E00E9473098D898F5FE7
:102140008D8B803110F4A42C16C08BE595E00E9495
:10215000B7091D8A82E090E00E94A5046C818BE59E
:1021600095E00E94BB0960E48BE595E00E9473094D
:10217000A42C01C0A42C1F5F8D85181708F066C021
:10218000812F90E0880F991F880F991F880F991F42
:102190002601370104C076946794579447948A9532
:1021A000D2F74B89411136CF6E8970E089A188231F
:1021B00009F411CF4F8558898B8D9C8D481B590B85
:1021C00029893A898D8D9E8D281B390B55239CF2C8
:1021D0008F89988D8417950774F2332364F2E98D03
:1021E000FA8DCF01880F991F880F991F880F991FAB
:1021F000821793070CF4BFCF6130710509F4BBCE91
:102200006230710509F4D1CE672B09F0B4CF6F8D20
:1022100078A13595279535952795359527954E9F26
:10222000C0014F9F900D5E9F900D1124280F391F04
:10223000FB01E20FF31F8081482A40829CCFA42C2F
:102240009ACFA42C98CFA42C96CFA12C8B89811146
:1022500012C00F5F8D85081708F0C1CC8F85988953
:10226000800F911D99238CF32F81281719060CF0EC
:102270007FCEA12CEBCFEE89F0E028E030E0281BE8
:1022800031096A2D70E002C0759567952A95E2F7CD
:1022900089A1882309F470C08F8598892B8D3C8D86
:1022A000821B930B49895A892D8D3E8D421B530BFE
:1022B00099237CF22F89388D2817390754F255233A
:1022C00044F2A98DBA8D9D01220F331F220F331FB7
:1022D000220F331F241735070CF4BBCFE130F10573
:1022E000E9F0E230F10599F1EF2B09F0B2CFEF8D73
:1022F000F8A15595479555954795559547958A9FCA
:1023000090018B9F300D9A9F300D1124420F531F67
:10231000E40FF51F8081682B60839BCFEF8DF8A1C0
:102320005595479555954795559547958A9F9001A1
:102330008B9F300D9A9F300D1124420F531FE40FD5
:10234000F51F862F809590818923808382CFEF8D22
:10235000F8A15595479555954795559547958A9F69
:1023600090018B9F300D9A9F300D1124420F531F07
:10237000E40FF51F60836DCF8BE595E00E94730934
:102380008D898F5F8D8B803108F463CF8BE595E06D
:102390000E94B7091D8A82E090E00E94A5046C812A
:1023A0008BE595E00E94BB0960E48BE595E00E9417
:1023B00073094FCF8BE595E00E94B7091D8A82E033
:1023C00090E00E94A504E5CA0895089590E080E099
:1023D000089508950895CF93C0E0C53038F460E0C3
:1023E00085E08C0F0E94F803CF5FF7CFCF9108955F
:1023F000CF93DF93653078F4D62FC0E006C061E05C
:1024000085E08C0F0E94F803CF5FC53020F4CD1714
:10241000B1F360E0F5CFDF91CF91089560E084E003
:102420000E94F803089561E084E00E94F803089593
:10243000CF93DF93C0E0C53060F4D5E0DC0F61E0FE
:102440008D2F0E942B0460E08D2F0E94F803CF5F38
:10245000F2CF61E084E00E942B0460E084E00E94FF
:10246000F803DF91CF91089508950895FC01708BD2
:10247000678708950F931F93CF93DF93EC018D81AE
:102480009E8182FD42C09C01207531702031310552
:1024900009F449C02885322F307124FD07C025FF7B
:1024A00005C099231CF003E010E031C0332339F05C
:1024B00025FF05C099231CF004E010E028C08E0120
:1024C0000E5F1F4FF8018381948193FD0BC080E064
:1024D000882361F18D819E81977F9E838D8305E0A6
:1024E00010E015C00E94C606F80121813281621BEE
:1024F000730B8581F0E18F9FC00111246817790764
:1025000010F480E0E5CF81E0E3CF01E010E0EF855B
:10251000F889309711F0C8010995C801DF91CF9172
:102520001F910F91089502E010E0F1CF10E000E05C
:10253000F4CF089508954F925F926F927F928F9299
:102540009F92AF92BF92CF92DF92EF92FF920F9342
:102550001F93CF93DF93E091A603F091A70300852B
:102560001185F8016581C62FD0E06781E62EF12C38
:1025700064818BE595E00E94BB0960E08BE595E006
:102580000E94730961E28BE595E00E947309F801EE
:102590008781682F70E0161617060CF460E08BE553
:1025A00095E00E947309F801878190E0B7018E15CC
:1025B0009F050CF4BC018BE595E00E94730962E273
:1025C0008BE595E00E947309F801658170E01616AD
:1025D00017060CF460E08BE595E00E947309F801A2
:1025E000858190E0BE018C179D070CF4BC018BE542
:1025F00095E00E9473098BE595E00E94B709F80108
:10260000158A82E090E00E94A504F80164818BE5C0
:1026100095E00E94BB0960E48BE595E00E94730998
:10262000D0E0C0E001C02196C115F4E0DF070CF551
:1026300060E08BE595E00E947309F80185898F5F62
:10264000858B803180F38BE595E00E94B709F80116
:10265000158A82E090E00E94A504F80164818BE570
:1026600095E00E94BB0960E48BE595E00E94730948
:10267000DACF8BE595E00E94B709F801158A82E070
:1026800090E00E94A504F80181899289A784B0880E
:10269000C685C780282F2770238BC80FD92FD11D3F
:1026A0002197D595C795D595C795D595C795CA0C4A
:1026B000DB2CD11C7C01F594E794F594E794F59418
:1026C000E79464818BE595E00E94BB0960E08BE5AF
:1026D00095E00E94730961E28BE595E00E94730921
:1026E000BB200CF4B7C0F801878190E08A159B05E8
:1026F0000CF45C016A2D8BE595E00E947309DD20E6
:102700000CF4AAC0F801878190E08C159D050CF4AB
:102710006C016C2D8BE595E00E94730962E28BE5FC
:1027200095E00E947309FF200CF498C0F8018581A0
:1027300090E08E159F050CF47C016E2D8BE595E0E5
:102740000E947309DD230CF48BC0F801858190E0B1
:102750008C179D070CF4EC016C2F8BE595E00E9423
:1027600073098BE595E00E94B709F801158A82E0AC
:1027700090E00E94A5044090A803442009F48BC275
:102780008091A9039091AA03E091A603F091A70379
:10279000C085D185892B09F065C00F2EF0E68F2EFC
:1027A000F2E09F2EF02D188A1F861A8A198A84E07B
:1027B0008B8B6C818BE595E00E94BB0960E08BE51B
:1027C00095E00E94730961E28BE595E00E94730930
:1027D0006F8170E06B30710514F06AE070E08BE59A
:1027E00095E00E9473096F8170E06332710514F007
:1027F00062E270E08BE595E00E94730962E28BE58E
:1028000095E00E9473096D8170E06330710514F0EA
:1028100062E070E08BE595E00E9473096D8170E0E5
:102820006630710514F065E070E08BE595E00E947C
:1028300073098BE595E00E94B7091D8A82E090E05C
:102840000E94A5048B898823A1F08D81853090F4A6
:10285000412C10C060E04FCF60E05CCF60E06ECFF5
:1028600060E07BCF0F2EF8E18F2EF2E09F2EF02D4F
:102870009ACF412C6C818BE595E00E94BB0960E406
:102880008BE595E00E947309B12CA12C0F2EFAE084
:10289000CF2ED12CF02D11C1662D8BE595E00E9435
:1028A00073098D898F5F8D8B8031F0F08BE595E01A
:1028B0000E94B7091D8A82E090E00E94A5046C8105
:1028C0008BE595E00E94BB0960E48BE595E00E94F2
:1028D00073090AC02D8130E011230CF4DCC02017ED
:1028E00031070CF065C0562C0F5F1F4F8FEFE81AB1
:1028F000F80A053011050CF0D8C0F701EE0FFF1FE4
:10290000EE0DFF1DEE0FFF1FEE0FFF1FEE0FFF1F5F
:10291000EA0DFB1DE80DF91D6590749060948B899C
:102920008111D8CF8D8190E01123F4F280179107A7
:10293000DCF289A1882309F4AFCF2F8538898B8DEC
:102940009C8D281B390B89899A894D8D5E8D841B3E
:10295000950B33234CF24F89588D421753070CF4D3
:10296000C3CF99230CF4C0CF498D5A8DBA01660F9D
:10297000771F660F771F660F771F681779070CF4AC
:10298000B3CFEF8DF8A195958795959587959595FA
:102990008795249FB001259F700D349F700D1124E1
:1029A000860F971FE80FF91F8081682A60829CCFED
:1029B00048E050E0481B5109252D30E002C0359514
:1029C00027954A95E2F7662D70E002C0660F771FE3
:1029D0008A95E2F7622B89A18823E9F12F8538894E
:1029E0008B8D9C8D281B390B89899A894D8D5E8D25
:1029F000841B950B33230CF450C04F89588D42171C
:102A000053070CF44CC099230CF44BC0498D5A8DDC
:102A1000FA01EE0FFF1FEE0FFF1FEE0FFF1FE8176B
:102A2000F9070CF440C0AF8DB8A1959587959595A1
:102A3000879595958795249FF001259FF00D349FEC
:102A4000F00D11248E0F9F1FA80FB91F8C91682BBA
:102A50006C93562C49CF8BE595E00E9473098D89C4
:102A60008F5F8D8B803110F4562C3ECF8BE595E037
:102A70000E94B7091D8A82E090E00E94A5046C8143
:102A80008BE595E00E94BB0960E48BE595E00E9430
:102A90007309562C29CF562C27CF562C25CF562CD0
:102AA00023CF562C21CF562C1FCF411018C0EFEF4B
:102AB000CE1ADE0AFFEFAF1ABF0AF2E2CF16D10438
:102AC0000CF074C08F8190E0DD208CF38C159D0597
:102AD00074F3F12CE12C02E010E0512C0ACF2B8989
:102AE00088E090E0821B9109652D70E002C0759529
:102AF00067958A95E2F789A18823D1F12F853889D6
:102B00008B8D9C8D281B390B89899A894D8D5E8D03
:102B1000841B950B33235CF24F89588D4217530762
:102B200034F2992324F2E98DFA8DAF01440F551F39
:102B3000440F551F440F551F481759070CF4B7CFC2
:102B40004F8D58A1959587959595879595958795DE
:102B50002E9FD0012F9FB00D3E9FB00D11248A0FE4
:102B60009B1FFA01E80FF91F8081682B60839FCFBC
:102B70008BE595E00E9473098D898F5F8D8B803185
:102B800008F495CF8BE595E00E94B7091D8A82E095
:102B900090E00E94A5046C818BE595E00E94BB0942
:102BA00060E48BE595E00E94730981CF8BE595E0A9
:102BB0000E94B7091D8A82E090E00E94A5048091DE
:102BC000A9039091AA03E091A603F091A703C08501
:102BD000D185019709F476C20F2EF8EF8F2EF0E021
:102BE0009F2EF02D188A1F861A8A198A84E08B8BF3
:102BF0006C818BE595E00E94BB0960E08BE595E078
:102C00000E94730961E28BE595E00E9473096F8170
:102C100070E06333710514F062E370E08BE595E0DA
:102C20000E9473096F8170E06B34710514F06AE4DF
:102C300070E08BE595E00E94730962E28BE595E018
:102C40000E9473096D8170E06330710514F062E0D9
:102C500070E08BE595E00E9473096D8170E066304D
:102C6000710514F065E070E08BE595E00E94730952
:102C70008BE595E00E94B7091D8A82E090E00E94F2
:102C8000A5048B89882309F424C28D81853008F03E
:102C900033C2512C1FC28091A9039091AA03E091E5
:102CA000A603F091A703C085D185892B09F06FC0D9
:102CB0000F2EF0ED8F2EF1E09F2EF02D188A1F863B
:102CC0001A8A198A84E08B8B6C818BE595E00E94CF
:102CD000BB0960E08BE595E00E94730961E28BE53A
:102CE00095E00E9473096F8170E06B30710514F0FC
:102CF0006AE070E08BE595E00E9473096F8170E0F7
:102D00006332710514F062E270E08BE595E00E9499
:102D1000730962E28BE595E00E9473096D8170E0B2
:102D20006330710514F062E070E08BE595E00E947D
:102D300073096D8170E06630710514F065E070E034
:102D40008BE595E00E9473098BE595E00E94B70939
:102D50001D8A82E090E00E94A5048B89882329F0D7
:102D60008D81853010F0442443946C818BE595E08F
:102D70000E94BB0960E48BE595E00E947309B12CC9
:102D8000A12C0F2EFAE0CF2ED12CF02D18C10F2E32
:102D9000F8E88F2EF1E09F2EF02D90CF662D8BE579
:102DA00095E00E9473098D898F5F8D8B8031F0F0E3
:102DB0008BE595E00E94B7091D8A82E090E00E94B1
:102DC000A5046C818BE595E00E94BB0960E48BE56E
:102DD00095E00E9473090AC02D8130E011230CF4A4
:102DE000DCC0201731070CF065C0562C0F5F1F4F59
:102DF000EFEFEE1AFE0A053011050CF0D8C0F7010E
:102E0000EE0FFF1FEE0DFF1DEE0FFF1FEE0FFF1F5A
:102E1000EE0FFF1FEA0DFB1DE80DF91D6590749084
:102E200060948B898111D8CF8D8190E01123F4F2C9
:102E300080179107DCF289A1882309F4AFCF2F8591
:102E400038898B8D9C8D281B390B89899A894D8DEA
:102E50005E8D841B950B33234CF24F89588D42179E
:102E600053070CF4C3CF99230CF4C0CF498D5A8D6E
:102E7000BA01660F771F660F771F660F771F6817F7
:102E800079070CF4B3CFEF8DF8A1959587959595BB
:102E9000879595958795249FB001259F700D349F48
:102EA000700D1124860F971FE80FF91F8081682A83
:102EB00060829CCF48E050E0481B5109252D30E04E
:102EC00002C0359527954A95E2F7662D70E002C05D
:102ED000660F771F8A95E2F7622B89A18823E9F1B3
:102EE0002F8538898B8D9C8D281B390B89899A8970
:102EF0004D8D5E8D841B950B33230CF450C04F8990
:102F0000588D421753070CF44CC099230CF44BC056
:102F1000498D5A8DFA01EE0FFF1FEE0FFF1FEE0FC6
:102F2000FF1FE817F9070CF440C0AF8DB8A19595C5
:102F300087959595879595958795249FF001259F71
:102F4000F00D349FF00D11248E0F9F1FA80FB91F95
:102F50008C91682B6C93562C49CF8BE595E00E94A1
:102F600073098D898F5F8D8B803110F4562C3ECF85
:102F70008BE595E00E94B7091D8A82E090E00E94EF
:102F8000A5046C818BE595E00E94BB0960E48BE5AC
:102F900095E00E947309562C29CF562C27CF562C2A
:102FA00025CF562C23CF562C21CF562C1FCF411086
:102FB00018C0FFEFCF1ADF0A8FEFA81AB80A82E213
:102FC000C816D1040CF074C08F8190E0DD208CF322
:102FD0008C159D0574F3F12CE12C02E010E0512CCE
:102FE0000ACF2B8988E090E0821B9109652D70E063
:102FF00002C0759567958A95E2F789A18823D1F17A
:103000002F8538898B8D9C8D281B390B89899A894E
:103010004D8D5E8D841B950B33235CF24F89588D4B
:103020004217530734F2992324F2E98DFA8DAF0148
:10303000440F551F440F551F440F551F481759077C
:103040000CF4B7CF4F8D58A1959587959595879599
:10305000959587952E9FD0012F9FB00D3E9FB00D67
:1030600011248A0F9B1FFA01E80FF91F8081682B3A
:1030700060839FCF8BE595E00E9473098D898F5FF8
:103080008D8B803108F495CF8BE595E00E94B709D0
:103090001D8A82E090E00E94A5046C818BE595E09A
:1030A0000E94BB0960E48BE595E00E94730981CF23
:1030B0008BE595E00E94B7091D8A82E090E00E94AE
:1030C000A5047DCD0F2EF0E48F2EF1E09F2EF02D84
:1030D00089CD512C6C818BE595E00E94BB0960E4A1
:1030E0008BE595E00E947309B12CA12C0F2EF2E321
:1030F000CF2ED12CF02D16C155245394EBCF672D34
:103100008BE595E00E9473098D898F5F8D8B8031EF
:10311000F0F08BE595E00E94B7091D8A82E090E00F
:103120000E94A5046C818BE595E00E94BB0960E4D8
:103130008BE595E00E9473090AC02D8130E01123D0
:103140000CF4DEC0201731070CF066C0672C0F5F4F
:103150001F4FFFEFEF1AFF0A053011050CF0DAC020
:10316000F701EE0FFF1FEE0DFF1DEE0FFF1FEE0F1D
:10317000FF1FEE0FFF1FEA0DFB1DE80DF91D8591E6
:103180009491782E70948B898111D7CF8D8190E0A6
:103190001123ECF280179107D4F289A1882309F456
:1031A000AECF8F8598892B8D3C8D821B930B2989FF
:1031B0003A894D8D5E8D241B350B992344F24F893E
:1031C000588D481759070CF4C2CF33230CF4BFCFE6
:1031D000498D5A8DBA01660F771F660F771F660FEC
:1031E000771F621773070CF4B2CFEF8DF8A13595F6
:1031F00027953595279535952795849FB001859F0F
:10320000700D949F700D1124260F371FE20FF31FCE
:103210008081782A70829BCF48E050E0481B51099A
:10322000262D30E002C0359527954A95E2F7672DA7
:1032300070E002C0660F771F8A95E2F7622B89A1C2
:103240008823F1F18F8598892B8D3C8D821B930B00
:10325000E989FA894D8D5E8DE41BF50B99230CF4F9
:1032600051C02F89388D281739070CF44DC0FF2322
:103270000CF44CC0498D5A8DDA01AA0FBB1FAA0F5E
:10328000BB1FAA0FBB1FAE17BF070CF441C0AF8D09
:10329000B8A19F01359527953595279535952795A3
:1032A000849FF001859FF00D949FF00D11242E0F47
:1032B0003F1FA20FB31F8C91682B6C93672C47CFD5
:1032C0008BE595E00E9473098D898F5F8D8B80312E
:1032D00010F4672C3CCF8BE595E00E94B7091D8A5E
:1032E00082E090E00E94A5046C818BE595E00E944D
:1032F000BB0960E48BE595E00E947309672C27CF3A
:10330000672C25CF672C23CF672C21CF672C1FCFAD
:10331000672C1DCF511018C08FEFC81AD80AEFEFD5
:10332000AE1ABE0AEAE4CE16D1040CF074C08F8146
:1033300090E0DD208CF38C159D0574F3F12CE12CCD
:1033400002E010E0612C08CF2B8988E090E0821B1E
:103350009109662D70E002C0759567958A95E2F730
:1033600089A18823D1F12F8538898B8D9C8D281BCD
:10337000390B89899A894D8D5E8D841B950B33237A
:103380005CF24F89588D4217530734F2992324F287
:10339000E98DFA8DAF01440F551F440F551F440F9F
:1033A000551F481759070CF4B7CF4F8D58A1959565
:1033B000879595958795959587952E9FD0012F9FF9
:1033C000B00D3E9FB00D11248A0F9B1FFA01E80F2C
:1033D000F91F8081682B60839FCF8BE595E00E9469
:1033E00073098D898F5F8D8B803108F495CF8BE5C4
:1033F00095E00E94B7091D8A82E090E00E94A50432
:103400006C818BE595E00E94BB0960E48BE595E05B
:103410000E94730981CF8BE595E00E94B7091D8A50
:1034200082E090E00E94A5048091A9039091AA03F4
:10343000E091A603F091A703C085D185029709F416
:103440005DC00F2EF8E68F2EF0E09F2EF02D188A2B
:103450001F861A8A198A84E08B8B6C818BE595E034
:103460000E94BB0960E08BE595E00E94730961E270
:103470008BE595E00E9473096F8170E06B357105F3
:1034800014F06AE570E08BE595E00E9473096F81A6
:1034900070E06337710514F062E770E08BE595E04A
:1034A0000E94730962E28BE595E00E9473096D81C9
:1034B00070E06330710514F062E070E08BE595E038
:1034C0000E9473096D8170E06630710514F065E04B
:1034D00070E08BE595E00E9473098BE595E00E9412
:1034E000B7091D8A82E090E00E94A5048B89882399
:1034F00061F08D818530E0F4512C08C00F2EF0EB87
:103500008F2EF0E09F2EF02DA2CF512C6C818BE5F9
:1035100095E00E94BB0960E48BE595E00E94730989
:10352000B12CA12C0F2EFAE5CF2ED12CF02D16C1E7
:1035300055245394EBCF672D8BE595E00E947309DA
:103540008D898F5F8D8B8031F0F08BE595E00E9447
:10355000B7091D8A82E090E00E94A5046C818BE58A
:1035600095E00E94BB0960E48BE595E00E94730939
:103570000AC02D8130E011230CF4DEC02017310782
:103580000CF066C0672C0F5F1F4F8FEFE81AF80A28
:10359000053011050CF0DAC0F701EE0FFF1FEE0D3C
:1035A000FF1DEE0FFF1FEE0FFF1FEE0FFF1FEA0DB7
:1035B000FB1DE80DF91D85919491782E70948B89EF
:1035C0008111D7CF8D8190E01123ECF28017910704
:1035D000D4F289A1882309F4AECF8F8598892B8DE9
:1035E0003C8D821B930B29893A894D8D5E8D241B5E
:1035F000350B992344F24F89588D481759070CF41D
:10360000C2CF33230CF4BFCF498D5A8DBA01660F58
:10361000771F660F771F660F771F621773070CF40B
:10362000B2CFEF8DF8A1359527953595279535952E
:103630002795849FB001859F700D949F700D112474
:10364000260F371FE20FF31F8081782A70829BCFED
:1036500048E050E0481B5109262D30E002C0359566
:1036600027954A95E2F7672D70E002C0660F771F35
:103670008A95E2F7622B89A18823F1F18F859889D9
:103680002B8D3C8D821B930BE989FA894D8D5E8DC4
:10369000E41BF50B99230CF451C02F89388D2817A2
:1036A00039070CF44DC0FF230CF44CC0498D5A8DE2
:1036B000DA01AA0FBB1FAA0FBB1FAA0FBB1FAE17B1
:1036C000BF070CF441C0AF8DB8A19F013595279578
:1036D0003595279535952795849FF001859FF00DA9
:1036E000949FF00D11242E0F3F1FA20FB31F8C913A
:1036F000682B6C93672C47CF8BE595E00E9473098C
:103700008D898F5F8D8B803110F4672C3CCF8BE5DA
:1037100095E00E94B7091D8A82E090E00E94A5040E
:103720006C818BE595E00E94BB0960E48BE595E038
:103730000E947309672C27CF672C25CF672C23CFD6
:10374000672C21CF672C1FCF672C1DCF511018C0BD
:10375000EFEFCE1ADE0AFFEFAF1ABF0AF2E7CF167D
:10376000D1040CF074C08F8190E0DD208CF38C15B7
:103770009D0574F3F12CE12C02E010E0612C08CFE0
:103780002B8988E090E0821B9109662D70E002C0D1
:10379000759567958A95E2F789A18823D1F12F85E0
:1037A00038898B8D9C8D281B390B89899A894D8D81
:1037B0005E8D841B950B33235CF24F89588D421725
:1037C000530734F2992324F2E98DFA8DAF01440FA7
:1037D000551F440F551F440F551F481759070CF428
:1037E000B7CF4F8D58A195958795959587959595C8
:1037F00087952E9FD0012F9FB00D3E9FB00D1124B5
:103800008A0F9B1FFA01E80FF91F8081682B6083E4
:103810009FCF8BE595E00E9473098D898F5F8D8B1B
:10382000803108F495CF8BE595E00E94B7091D8A99
:1038300082E090E00E94A5046C818BE595E00E94F7
:10384000BB0960E48BE595E00E94730981CF8BE5AD
:1038500095E00E94B7091D8A82E090E00E94A504CD
:10386000DF91CF911F910F91FF90EF90DF90CF905C
:10387000BF90AF909F908F907F906F905F904F9090
:1038800008952F923F925F926F927F928F929F92B4
:10389000AF92BF92CF92DF92EF92FF920F931F935E
:1038A000CF93DF9300D01F92CDB7DEB79E012F5F7D
:1038B0003F4F3B832A838330910509F436C4F4F4E7
:1038C0008130910509F48EC0029709F011C48091EE
:1038D000AB03882309F421C48091A9039091AA0322
:1038E000892B09F005C48091A80391E08927809372
:1038F000A803CE0102960E949B12FAC38430910560
:1039000009F43AC4059709F0F3C31092AB03E091B0
:10391000A603F091A703E084F184F7016581062FE7
:1039200010E06781C62ED12C64818BE595E00E9462
:10393000BB0960E08BE595E00E94730961E28BE5CD
:1039400095E00E947309D70117968C91682F70E05B
:10395000161617060CF460E08BE595E00E947309DB
:10396000F701878190E0B6018C159D050CF4BC0130
:103970008BE595E00E94730962E28BE595E00E9479
:103980007309D70115966C9170E0161617060CF4A2
:1039900060E08BE595E00E947309F701858190E076
:1039A000B801801791070CF4BC018BE595E00E94EB
:1039B00073098BE595E00E94B709D70155961C92D3
:1039C00082E090E00E94A504F70164818BE595E018
:1039D0000E94BB0960E48BE595E00E94730910E04A
:1039E00000E0F0C31092AB03E091A603F091A703AF
:1039F000E084F184D70115966C911597062F10E09D
:103A000017966C911797C62ED12C14966C918BE556
:103A100095E00E94BB0960E08BE595E00E94730988
:103A200061E28BE595E00E947309F7018781682FB9
:103A300070E0161617060CF460E08BE595E00E9426
:103A40007309D70117968C9190E0B6018C159D05EE
:103A50000CF4BC018BE595E00E94730962E28BE5F2
:103A600095E00E947309F701658170E0161617064C
:103A70000CF460E08BE595E00E947309D701159680
:103A80008C9190E0B801801791070CF4BC018BE594
:103A900095E00E9473098BE595E00E94B709F70154
:103AA000158A82E090E00E94A504D70114966C91DB
:103AB0008BE595E00E94BB0960E48BE595E00E94F0
:103AC000730910E000E002C00F5F1F4F0115B4E062
:103AD0001B0714F560E08BE595E00E947309F70180
:103AE00085898F5F858B803178F38BE595E00E9427
:103AF000B709D70155961C9282E090E00E94A50478
:103B0000F70164818BE595E00E94BB0960E48BE5D9
:103B100095E00E947309D8CF8BE595E00E94B70924
:103B2000D70155961C9282E090E00E94A504F7010F
:103B300081899289878490880685A780282F27709D
:103B4000238B080F192F111D015011091595079589
:103B50001595079515950795A80CB92CB11C6C0106
:103B6000D594C794D594C794D594C79464818BE5B4
:103B700095E00E94BB0960E08BE595E00E94730927
:103B800061E28BE595E00E94730999200CF4B1C0C5
:103B9000D70117968C9190E0881599050CF44C018B
:103BA000682D8BE595E00E947309BB200CF4A3C03F
:103BB000F701878190E08A159B050CF45C016A2D62
:103BC0008BE595E00E94730962E28BE595E00E9427
:103BD0007309DD200CF491C0D70115968C9190E00B
:103BE0008C159D050CF46C016C2D8BE595E00E9405
:103BF000730911230CF483C0F701858190E08017CD
:103C000091070CF48C01602F8BE595E00E947309FD
:103C10008BE595E00E94B709D70155961C9282E08A
:103C200090E00E94A504E091A603F091A70300850F
:103C30001185F801108A1786128A118A138A648105
:103C40008BE595E00E94BB0960E08BE595E00E9462
:103C5000730961E28BE595E00E947309D80117961C
:103C60006C9170E06932710514F068E270E08BE5E8
:103C700095E00E947309F801678170E0683571056D
:103C800014F067E570E08BE595E00E94730962E24D
:103C90008BE595E00E947309D80115966C9170E050
:103CA0001616170614F461E070E08BE595E00E94AB
:103CB0007309F801658170E06730710514F066E002
:103CC00070E08BE595E00E9473098BE595E00E941A
:103CD000B709D80155961C9282E090E00E94A50495
:103CE000F8018389882369F085818730F8F4512CA5
:103CF00009C060E056CF60E063CF60E076CF60E05F
:103D000083CF512CD80114966C918BE595E00E94DD
:103D1000BB0960E48BE595E00E947309712C612C6E
:103D20000F2EF8E2CF2ED12CF02D43C15524539401
:103D3000E9CF6B2D8BE595E00E947309F801858929
:103D40008F5F858B803118F18BE595E00E94B70974
:103D5000D80155961C9282E090E00E94A504F801DB
:103D600064818BE595E00E94BB0960E48BE595E0FA
:103D70000E9473090CC015962C91159730E0FF2016
:103D80000CF405C12E153F050CF078C0AB2CFFEFED
:103D9000EF1AFF0A8FEF881A980AF7E0EF16F1047E
:103DA0000CF0FFC08FE2889DF001899DF00D112479
:103DB000E60DF71DE855FD4F85919491B82EB0940E
:103DC000D80153968C9153978111D5CF15968C912C
:103DD000159790E0FF20DCF28E159F05C4F29196B6
:103DE0008C919197882309F4A4CF1F968D919C9173
:103DF00050975B962D913C915C97821B930B51964B
:103E00002D913C9152975D964D915C915E97241B4C
:103E1000350B99230CF4BBCF57964D915C91589775
:103E2000481759070CF4B3CF33230CF4B0CF59968D
:103E30004D915C915A97BA01660F771F660F771FF5
:103E4000660F771F621773070CF4A1CF5F96ED9191
:103E5000FC91359527953595279535952795849F20
:103E6000B001859F700D949F700D1124260F371F90
:103E7000E20FF31F8081B82AB08289CF48E050E07A
:103E8000481B51092A2D30E002C0359527954A95E7
:103E9000E2F76B2D70E002C0660F771F8A95E2F79C
:103EA000622B91968C919197882309F44CC01F96B0
:103EB0008D919C9150975B962D913C915C97821BC4
:103EC000930B5196ED91FC9152975D964D915C91BB
:103ED0005E97E41BF50B99230CF45BC057962D916C
:103EE0003C915897281739070CF455C0FF230CF460
:103EF00054C059964D915C91DA01AA0FBB1FAA0FCD
:103F0000BB1FAA0FBB1FAE17BF070CF448C0D801D8
:103F10005F962D903C909F01359527953595279577
:103F200035952795849FF001859FF00D949FF00DA6
:103F300011242E0F3F1FD101A20FB31F8C91682BAC
:103F40006C93AB2C24CF8BE595E00E947309F801AC
:103F500085898F5F858B803110F4AB2C18CF8BE572
:103F600095E00E94B709D80155961C9282E090E036
:103F70000E94A504F80164818BE595E00E94BB09CD
:103F800060E48BE595E00E947309AB2C00CFAB2C6D
:103F9000FECEAB2CFCCEAB2CFACEAB2CF8CEAB2CA1
:103FA000F6CE51101AC0FFEFCF1ADF0A8FEF681A52
:103FB000780AB7E5CB16D1040CF08FC0F8018781E1
:103FC00090E0DD2084F38C159D056CF3912C812C01
:103FD000EE24E394F12CA12CE0CED80153962C9141
:103FE000539788E090E0821B91096A2D70E002C02F
:103FF000759567958A95E2F791968C9191978823AC
:1040000009F449C01F964D915C9150975B968D9134
:104010009C915C97481B590B51968D919C9152979E
:104020005D962D913C915E97821B930B55230CF46A
:10403000BACF57962D913C915897241735070CF419
:10404000B2CF99230CF4AFCF59962D913C915A974A
:10405000F901EE0FFF1FEE0FFF1FEE0FFF1FE81716
:10406000F9070CF4A0CF5F96ED91FC91959587959B
:104070009595879595958795429FD001439FB00D63
:10408000529FB00D11248A0F9B1FE80FF91F8081EA
:10409000682B608388CF8BE595E00E947309F80157
:1040A00085898F5F858B803108F47DCF8BE595E026
:1040B0000E94B709D80155961C9282E090E00E94B8
:1040C000A504F80164818BE595E00E94BB0960E4DA
:1040D0008BE595E00E94730966CF8BE595E00E9421
:1040E000B709D80155961C9282E090E00E94A50481
:1040F0000F900F900F90DF91CF911F910F91FF9034
:10410000EF90DF90CF90BF90AF909F908F907F9077
:104110006F905F903F902F90089581E08093AB0364
:10412000CE0102960E949B12E3CF8091AB038823BD
:1041300081F08091A9039091AA0301979093AA031B
:104140008093A90399238CF0CE0102960E949B12C2
:10415000CFCF81E08093AB031092AA031092A90302
:10416000CE0102960E949B12C3CF82E090E0909312
:10417000AA038093A903E8CF8091AB038823A1F021
:104180008091A9039091AA0301969093AA0380932A
:10419000A903039724F01092AA031092A903CE0159
:1041A00002960E949B12A4CF81E08093AB031092F1
:1041B000AA031092A903CE0102960E949B1298CFE7
:1041C0000F5F1F4F0115F4E01F072CF560E08BE532
:1041D00095E00E947309D70155968C9155978F5F92
:1041E00055968C93803160F38BE595E00E94B7097A
:1041F000F701158A82E090E00E94A504D701149689
:104200006C918BE595E00E94BB0960E48BE595E03D
:104210000E947309D5CF8BE595E00E94B709F7019D
:10422000158A82E090E00E94A504D70151968D91F5
:104230009C9152971F968D909C9050971E960C9132
:104240001E971796AC901797282F277053962C938C
:104250005397080F192F111D015011091595079536
:104260001595079515950795A80CB92CB11C6C01EF
:10427000D594C794D594C794D594C79414966C914B
:104280008BE595E00E94BB0960E08BE595E00E941C
:10429000730961E28BE595E00E94730999200CF4A3
:1042A000B9C0F701878190E0881599050CF44C019D
:1042B000682D8BE595E00E947309BB200CF4ACC01F
:1042C000D70117968C9190E08A159B050CF45C0140
:1042D0006A2D8BE595E00E94730962E28BE595E01B
:1042E0000E947309DD200CF499C0F701858190E0EC
:1042F0008C159D050CF46C016C2D8BE595E00E94EE
:10430000730911230CF48CC0D70115968C9190E0A1
:10431000801791070CF48C01602F8BE595E00E94CB
:1043200073098BE595E00E94B709F701158A82E0D1
:1043300090E00E94A504E091A603F091A7030085F8
:104340001185D80150961C921E921F9752961C926E
:104350001E92519753961C92539714966C918BE52D
:1043600095E00E94BB0960E08BE595E00E9473092F
:1043700061E28BE595E00E947309F801678170E0C6
:104380006932710514F068E270E08BE595E00E94F7
:104390007309D80117966C9170E06835710514F0B7
:1043A00067E570E08BE595E00E94730962E28BE5BA
:1043B00095E00E947309F801658170E016161706F2
:1043C00014F461E070E08BE595E00E947309D80178
:1043D00015966C9170E06730710514F066E070E03E
:1043E0008BE595E00E9473098BE595E00E94B70983
:1043F000F801158A82E090E00E94A504D801539646
:104400008C915397882371F015968C918730F0F436
:10441000512C09C060E04DCF60E05BCF60E06DCF14
:1044200060E07BCF512CF80164818BE595E00E9420
:10443000BB0960E48BE595E00E947309712C612C47
:104440000F2EF8E2CF2ED12CF02D2AC155245394F3
:10445000EACF6B2D8BE595E00E947309D801559644
:104460008C9155978F5F55968C93803108F18BE531
:1044700095E00E94B709F801158A82E090E00E9459
:10448000A504D80114966C918BE595E00E94BB09B8
:1044900060E48BE595E00E9473090AC0258130E055
:1044A000FF200CF4EBC02E153F050CF064C0AB2CC4
:1044B000FFEFEF1AFF0A8FEF881A980AB7E0EB16A2
:1044C000F1040CF0E5C08FE2889DF001899DF00DAC
:1044D0001124E60DF71DE855FD4F85919491B82EF6
:1044E000B094F80183898111D9CF858190E0FF20B4
:1044F000FCF28E159F05E4F281A1882309F4A9CF6F
:1045000087859089238D348D821B930B2189328975
:10451000458D568D241B350B992354F24789508DB8
:10452000481759072CF233230CF4C2CF418D528D1A
:10453000BA01660F771F660F771F660F771F621726
:1045400073070CF4B5CF078CF0A1E02D35952795B6
:104550003595279535952795849FB001859F700DDA
:10456000949F700D1124260F371FE20FF31F8081D7
:10457000B82AB0829DCF48E050E0481B51092A2D4F
:1045800030E002C0359527954A95E2F76B2D70E033
:1045900002C0660F771F8A95E2F7622B81A18823FC
:1045A00009F448C087859089238D348D821B930B35
:1045B0000188F289E02DD8015D964D915C915E975E
:1045C000E41BF50B99230CF45BC057962D913C919D
:1045D0005897281739070CF455C0FF230CF454C022
:1045E00059964D915C91DA01AA0FBB1FAA0FBB1F10
:1045F000AA0FBB1FAE17BF070CF448C0D8015F96C7
:104600002D903C909F0135952795359527953595AB
:104610002795849FF001859FF00D949FF00D112444
:104620002E0F3F1FD101A20FB31F8C91682B6C93EB
:10463000AB2C3ECF8BE595E00E947309F80185898C
:104640008F5F858B803110F4AB2C32CF8BE595E0FA
:104650000E94B709D80155961C9282E090E00E9412
:10466000A504F80164818BE595E00E94BB0960E434
:104670008BE595E00E947309AB2C1ACFAB2C18CFB9
:10468000AB2C16CFAB2C14CFAB2C12CFAB2C10CF46
:1046900051101BC0FFEFCF1ADF0A8FEF681A780A9C
:1046A000F7E5CF16D1040CF090C0D80117968C9185
:1046B00090E0DD207CF38C159D0564F3912C812C1A
:1046C000EE24E394F12CA12CF9CED80153962C9131
:1046D000539788E090E0821B91096A2D70E002C038
:1046E000759567958A95E2F791968C9191978823B5
:1046F00009F449C01F964D915C9150975B968D913E
:104700009C915C97481B590B51968D919C915297A7
:104710005D962D913C915E97821B930B55230CF473
:10472000B9CF57962D913C915897241735070CF423
:10473000B1CF99230CF4AECF59962D913C915A9755
:10474000F901EE0FFF1FEE0FFF1FEE0FFF1FE8171F
:10475000F9070CF49FCF5F96ED91FC9195958795A5
:104760009595879595958795429FD001439FB00D6C
:10477000529FB00D11248A0F9B1FE80FF91F8081F3
:10478000682B608387CF8BE595E00E947309F80161
:1047900085898F5F858B803108F47CCF8BE595E030
:1047A0000E94B709D80155961C9282E090E00E94C1
:1047B000A504F80164818BE595E00E94BB0960E4E3
:1047C0008BE595E00E94730965CF8BE595E00E942B
:1047D000B709D80155961C9282E090E00E94A5048A
:1047E00087CCEF92FF920F931F93FC01718360833C
:1047F000538342833583248317830683F186E086BF
:104800009093A7038093A6031F910F91FF90EF90C1
:1048100008950E949B3508950E94092408950E94DE
:10482000092408950E9409240895DF92EF92FF92CF
:104830000F931F93CF93DF93CDB7DEB7A1970FB63A
:10484000F894DEBF0FBECDBF7C01CB01BA01D22EE2
:1048500019A221E02D1520F48E010F5D1F4F0EC00F
:104860000F2EFAE0DF2EF02DF7CFE95CD801EE93A2
:104870008D01611571058105910579F02D2D30E0CF
:1048800050E040E00E949B32E62F622F732F842F6E
:10489000952FEA3054F7E05DE9CF1097F9F0FD016C
:1048A00001900020E9F73197AF014A1B5B0BD7015C
:1048B000ED91FC910280F381E02DB801C7010995CB
:1048C000A1960FB6F894DEBF0FBECDBFDF91CF919A
:1048D0001F910F91FF90EF90DF90089590E080E09E
:1048E000EFCF2115310549F4DC01ED91FC910190E8
:1048F000F081E02D642F099508950E9415240895F4
:104900009A01AB0170E060E00E9471240895CF929B
:10491000DF92EF92FF920F931F93CF93DF93EC01FF
:104920006A017B012115310581F4E881F98101904B
:10493000F081E02D642F0995DF91CF911F910F91A8
:10494000FF90EF90DF90CF9008952A303105C1F4A9
:10495000FF2024F02AE00E941524EECF6DE20E9491
:10496000EE048C0144275527BA014C195D096E09E4
:104970007F092AE0CE010E941524800F911FDCCF11
:104980000E941524D9CF9A01AB01770F660B770BE4
:104990000E94872408956115710581F0FB01019043
:1049A0000020E9F73197AF01461B570BDC01ED9171
:1049B000FC910280F381E02D0995089590E080E05C
:1049C00008954F925F926F927F92AF92BF92CF9273
:1049D000DF92EF92FF920F931F93CF93DF9300D05C
:1049E00000D01F92CDB7DEB75C016A017B012D8339
:1049F000AB019601CB01B6010E94FA34811151C07E
:104A000026013701E89477F821E029832FEF3FEF63
:104A10004FE75FE7C301B2010E94FA3481110BC076
:104A20002FEF3FEF4FE75FE7C301B2010E94303342
:104A300018160CF4198289818823D1F12FEF3FEFEA
:104A40004FE75FE4C701B6010E94883418160CF4E2
:104A50004AC02FEF3FEF4FE75FECC701B6010E945E
:104A6000303388230CF446C020E030E0A901C701B0
:104A7000B6010E94303388230CF443C0712C612CA2
:104A800010E060E070E080E09FE32D81121708F0F5
:104A900042C020E030E040E251E40E9435331F5F25
:104AA000F4CF6AE771E0C5010E94CB248C0106C0F7
:104AB0006EE771E0C5010E94CB248C01C8010F9004
:104AC0000F900F900F900F90DF91CF911F910F914A
:104AD000FF90EF90DF90CF90BF90AF907F906F905E
:104AE0005F904F90089562E871E0C5010E94CB2469
:104AF0008C01E4CF62E871E0C5010E94CB248C01F7
:104B0000DDCF6DE2C5010E94EE043C01F7FAF0949E
:104B1000F7F8F094B5CF9B01AC01C701B6010E9434
:104B2000C4326B017C010E94A73369837A838B8333
:104B30009C830E94D6339B01AC01C701B6010E9441
:104B4000C3326B017C012AE030E049815A816B81DC
:104B50007C81C5010E9471248301080F191F8D817A
:104B600081112BC02D81215029838D81882309F447
:104B7000A5CF20E030E040E251E4C701B6010E9439
:104B80008D342B013C010E94A7336B014AE050E0B9
:104B9000C5010E948024080F191FB60190E080E033
:104BA0000E94D6339B01AC01C301B2010E94C33203
:104BB0006B017C0129812D83D5CF6EE2C5010E9456
:104BC000EE04080F191FCECF0E94E12408950F9321
:104BD0001F93CF93DF93662309F480C08A01EC0111
:104BE000653209F447C0633709F449C0633509F4F5
:104BF00055C0643609F461C0693609F45EC0643496
:104C000009F471C0663409F46EC0683709F47FC0D6
:104C1000683509F48EC0603709F4BFC0623609F404
:104C2000CBC0623409F4DAC06C3609F4EFC06537E2
:104C300009F400C1633609F411C1633409F41DC1DC
:104C4000643709F445C1643509F048C0DA01ED91D3
:104C5000FC911197CF0102968D939C938081918155
:104C6000019709F44FC165E971E08B819C810E9435
:104C7000F60434C08B819C810E94EE042FC0DA01BF
:104C8000ED91FC911197CF0102968D939C936081D9
:104C900071818B819C810E94CB2420C0DA01ED912F
:104CA000FC911197CF0102968D939C936081718145
:104CB0008B819C810E94F60411C08B819C81D8015C
:104CC000ED91FC9111979F012E5F3F4F2D933C93E7
:104CD000608171814AE050E00E94C324DF91CF914E
:104CE0001F910F9108958B819C81D801ED91FC91CA
:104CF00011979F012C5F3F4F2D933C934081518131
:104D00006281738122E030E00E94E425E7CF8B814D
:104D10009C81DA01ED91FC9111979F012E5F3F4F2D
:104D20002D933C936081718140E150E00E94C32447
:104D3000D5CF66E871E08B819C810E94CB24D8019D
:104D4000ED91FC911197CF0102968D939C93008178
:104D500011810F3FBFE01B0770F00F3F110588F076
:104D60000F301105A0F040E150E0B8018B819C812B
:104D70000E948024B3CF60E38B819C810E94EE046B
:104D8000ECCF60E38B819C810E94EE04E9CF60E36D
:104D90008B819C810E94EE04E6CFDA01ED91FC91BB
:104DA0001197CF0102968D939C93608171818B81C5
:104DB0009C810E94E30492CF8B819C81DA01ED916A
:104DC000FC9111979F012E5F3F4F2D933C93608183
:104DD000718142E050E00E94C32480CF69E871E015
:104DE0008B819C810E94CB248B819C81D801ED9189
:104DF000FC9111979F012E5F3F4F2D933C93608153
:104E0000718142E050E00E94C32468CF8B819C8175
:104E1000DA01ED91FC9111979F012C5F3F4F2D938B
:104E20003C9340815181628173812AE030E00E948D
:104E3000872454CF8B819C81DA01ED91FC911197ED
:104E40009F012C5F3F4F2D933C93408151816281A4
:104E500073812AE030E00E94712440CF8B819C81D5
:104E6000DA01ED91FC9111979F012E5F3F4F2D9339
:104E70003C9360810E94EE0431CFDA01ED91FC9108
:104E80001197CF0102968D939C93108180EE810F34
:104E90008F3590F066E871E08B819C810E94CB2475
:104EA0001F3084F0612F110F770B40E150E08B81B0
:104EB0009C810E94C32412CF612F8B819C810E9410
:104EC000EE040CCF60E38B819C810E94EE04EACF5C
:104ED000DA01ED91FC911197CF0102968D939C938D
:104EE00080819181019739F06EE871E08B819C811E
:104EF0000E94CB24F3CE6CE871E08B819C810E94F0
:104F0000CB24ECCE60E971E08B819C810E94F60499
:104F1000E5CECF92DF92EF92FF920F931F93CF9344
:104F2000DF9300D0CDB7DEB76C015A8349837B0194
:104F30008FEFE81AF80AFB01608111C087010F5F4B
:104F40001F4FF7016081AE014F5F5F4FC6010E94A6
:104F5000E7257801FFEFEF1AFF0AF8016081662369
:104F600049F0653259F3F601838194810E94EE0481
:104F70008701EFCF0F900F90DF91CF911F910F918D
:104F8000FF90EF90DF90CF900895613009F45AC000
:104F900020F0623009F42DC0089590E09C012C5E51
:104FA000384FF90154918050994FFC014491E42FFE
:104FB000F0E0EE0FFF1FE451F94FA591B4916C9111
:104FC000452F50E04095509546234C93F90124918C
:104FD000FC018491E82FF0E0EE0FFF1FEA50F94F3B
:104FE000A591B4918C9130E02095309528232C9395
:104FF000089590E09C012C5E384FF9015491805047
:10500000994FFC014491E42FF0E0EE0FFF1FE451B3
:10501000F94FA591B4916C91452F50E04095509572
:1050200046234C93F9012491FC018491E82FF0E090
:10503000EE0FFF1FEA50F94FA591B4918C91282BE8
:105040002C93089590E0FC01EC5EF84F2491FC0154
:10505000E050F94FE491F0E0EE0FFF1FE451F94FFB
:10506000A591B491EC91E22BEC93089590E0FC01B2
:10507000E050F94FE491F0E0EE0FFF1FEE51F94FD1
:10508000A591B4912C918C5E984FFC018491822360
:1050900021E030E011F430E020E081E0232B09F43E
:1050A00080E00895EF92FF920F931F93CF93DF93C9
:1050B0008C01EC0122968E8188230CF487C08C85AC
:1050C0000E943628E82E8B850E943628F82E8A8585
:1050D0000E9436282B813C8120FF02C0F8011282F9
:1050E000A9014F715527452B19F0207E3C832B8356
:1050F0009E8195FF02C09F7D9E83FE013696918121
:10510000292F2295220F220F207C26FB220F220B13
:1051100020F99295907F96FB990F990B90F929278A
:10512000022E000C330B482F50E028273527F216AB
:10513000130609F45FC1292F990F330B4217530748
:1051400009F439C19181292F22952F702F5F229563
:10515000207F9F70922B9183282F2295220F220F60
:10516000207C26FB220F220B20F9237091819C7F4B
:10517000922B2F2D2295220F220F207C26FB220F0F
:10518000220B20F92370220F220F937F922B918301
:10519000907F09F431C12E81922F9370913009F4E0
:1051A0001BC108F413C1923009F41BC1818191E045
:1051B00080310CF41BC181E022FF80E0981709F4D4
:1051C00017C12FEF81818F70818317C18C850E9459
:1051D00036282B813C8120FF02C0F8011282A901F0
:1051E0004F715527452B19F0207E3C832B839E81E0
:1051F00095FF02C09F7D9E83288539852115310545
:1052000019F121FF4CC09E8190619E8322FF4BC00B
:105210009E8198609E83369527953695279536957D
:105220002795398728872B813C8125FF40C030682E
:105230003C832B832B813C8133FD03C038603C834E
:105240002B839E8190629E832B813C8136FF32C0EE
:105250003F7B3C832B83FF24F3948B819C8191FDC6
:1052600006C0FF2009F494C192609C838B830E9446
:10527000C60629813A81AB01421B530B9A01FF20DC
:1052800009F44EC04B815C8145FD28C052FD1BC016
:105290009A0134603C832B837A83698379C19E8130
:1052A0009F7E9E83B3CF9E81977F9E83B4CFF8016C
:1052B0001282C0CF91E034FF90E0FF24F394891371
:1052C000CCCFF12CCACF2233310508F461C19A0149
:1052D00022623C832B837A8369835AC155230CF461
:1052E00057C146FD0BC02835324008F451C19A0120
:1052F00024643C832B837A8369834AC147FF0DC0B2
:10530000E8ECF0E02E173F0708F442C19A01286844
:105310003C832B837A8369833BC1E8E5F2E0F2CFDB
:10532000AB81BC81A5FF1CC04233510570F0A6FDC6
:1053300004C0F80122812F5F2283BB2374F0CD01CA
:10534000806191608F7D9C838B838B819C8192FF98
:105350001FC19B7F9C838B831BC1F8011282EFCFFF
:10536000B0FF0EC0BB2324F09D0120613C832B8342
:105370002B813C813E773C832B837A836983E5CF05
:10538000F8014281442361F0AD01407C5527452B53
:1053900019F4243F3140C8F2A160BC83AB83D5CF60
:1053A000B1FFD3CF9D012F733D7F38603C832B83AA
:1053B0007A836983CACF9181292F22952F70215F2B
:1053C0002295207F9F70922B9183C6CEFF2011F0F3
:1053D0008111ECCE20E011C08F2909F4E7CE20E046
:1053E0000CC0F81609F4E2CE20E007C090E0E3CE4E
:1053F00021E0E8CE20E001C020E088859985009773
:1054000009F456C081FF4CC02E8120612E8382FF9B
:105410004BC02E8128602E8396958795969587950B
:1054200096958795998788878B819C8185FF5EC03B
:1054300090689C838B838B819C8193FD03C09860D3
:105440009C838B838E8180628E838B819C8196FF6F
:1054500050C09F7B9C838B83FF24F3948B819C8122
:1054600091FD06C0FF2009F493C092609C838B835A
:105470000E94C60629813A81AB01421B530B9A0157
:10548000FF2009F469C04B815C8145FD46C052FD97
:1054900039C09A0134603C832B837A83698378C056
:1054A0002E812F7E2E83B3CF2E81277F2E83B4CFE4
:1054B000222359F29CF08E8180618E830E94C60661
:1054C00029813A81AB01421B530B7A8369834E31A8
:1054D000510540F48E8188608E83A6CF8E818F7EA9
:1054E0008E83ECCF8E81877F8E839ECFF8011282D0
:1054F000A2CF21E094FF20E0FF24F394E212AECF8C
:10550000F12CACCF2233310508F442C09A0122625B
:105510003C832B837A8369833BC05523CCF146FDC2
:105520000AC028353240A0F19A0124643C832B83C1
:105530007A8369832DC047FF0CC0E8ECF0E02E179A
:105540003F0730F19A0128683C832B837A83698373
:105550001FC0E8E5F2E0F3CFAB81BC81A5FF22C01C
:105560004233510570F0A6FD04C0F80122812F5F7F
:105570002283BB23A4F0CD01806191608F7D9C8349
:105580008B838B819C8192FF03C09B7F9C838B8349
:10559000DF91CF911F910F91FF90EF900895F80147
:1055A0001282E9CFB0FF0EC0BB2324F09D01206121
:1055B0003C832B832B813C813E773C832B837A83F6
:1055C0006983DFCFF8014281442361F0AD01407C63
:1055D0005527452B19F4243F314098F2A160BC8334
:1055E000AB83CFCFB1FFCDCF9D012F733D7F38600F
:1055F0003C832B837A836983C4CFFF920F931F93DD
:10560000CF93DF938C01862FE8016EE371E06993FD
:105610007993F80114821382168215829EE3978390
:1056200010861186138612868A874B872C8760E046
:105630000E94C52760E08B850E94C52762E08C85AB
:105640000E94C5278B819C8190619C838B838B8575
:105650000E943628F82E8A850E9436288295880F67
:10566000880F807C86FB880F880B80F9982F9370B9
:105670008F818C7F892B9F2D9295990F990F907C0C
:1056800096FB990F990B90F99370990F990F837F5F
:10569000892B8F83F801108A1786DF91CF911F9194
:1056A0000F91FF900895EF92FF920F931F93019730
:1056B00029F01F910F91FF90EF9008956F3F7F4F5A
:1056C000C1F7E2E0F5E0138212828EE491E091836B
:1056D00080838CE3848387E085838FE386838FE7F1
:1056E00087831186108612861386148681E085874B
:1056F00088E08687108A1786128A118A138A158A8B
:1057000082E0868B11A220E043E062E081EF94E02A
:105710000E94FD2A62E071E08CE894E00E94B20AE7
:105720008CEC93E00E94870720E031E04CEC53E0E2
:105730006CE874E086EB93E00E94B70B0F2EF2E06A
:10574000EF2EF5E0FF2EF02D0CEC13E026EB33E00E
:105750004CE854E061EF74E08CEA93E00E94F1239E
:10576000A8CF85ED8093BC004091680550916905F4
:1057700060916A0570916B05495F5F4F6F4F7F4F76
:10578000689412F876956795579547951694D1F7D2
:105790008091BC0084FF1FC08091680590916905CD
:1057A000A0916A05B0916B05892B8A2B8B2B81F315
:1057B000411551056105710549F08AE28A95F1F7B5
:1057C00000C04150510961097109E2CF809167051C
:1057D0000E941B0808951092B1050895AF92BF92E0
:1057E000CF92DF92EF92FF920F931F93CF93DF93AD
:1057F0005B016A017901D0E0C0E0CE15DF0560F4FD
:1058000086010C0F1D1FC5018C0F9D1F0E94853244
:10581000F80180832196F1CFDF91CF911F910F91F5
:10582000FF90EF90DF90CF90BF90AF9008958F9250
:105830009F92AF92BF92CF92DF92FF920F931F93EE
:10584000CF93DF934B015A016901D0E0C0E001C062
:105850002196CC15DD0588F4F501EC0FFD1FF080D5
:1058600084010C0F1D1FC8010E948532F81681F3B8
:105870006F2DC8010E948D32EBCFDF91CF911F9128
:105880000F91FF90DF90CF90BF90AF909F908F903F
:105890000895EF92FF920F931F93CF93DF93CDB7AD
:1058A000DEB709851A85EB84FC84D8018D919C9123
:1058B0008E159F054CF1FF2074F1D8011596ED91DE
:1058C000FC911697309729F0B70113968D919C9112
:1058D0000995F8018281811121C0AE01405F5F4FBF
:1058E0006E857F85C8010E948927D8011796ED91A2
:1058F000FC911897309729F0B70113968D919C91E0
:1059000009958D8581111CC0DF91CF911F910F9159
:10591000FF90EF900895F12CE12CCFCFF701EE5CD2
:10592000FE4F6081D80113968D919C910E94EE04E8
:105930006BE971E0F801838194810E94CB24CDCF83
:1059400062E872E0F801838194810E94CB24DCCF6D
:10595000AF92BF92CF92DF92EF92FF920F931F937D
:10596000CF93DF93CDB7DEB72E970FB6F894DEBF97
:105970000FBECDBF8EE991E09F938F931F921F9230
:105980006894FF24F2F8FF920DE215E01F930F9345
:105990000E94492C87E0ECE0F1E0DE0111960190D5
:1059A0000D928A95E1F76E0148E0C40ED11C87E0A4
:1059B000D6011D928A95E9F70F2EF4E0AF2EF1E0A3
:1059C000BF2EF02DD501ED91FC910680F781E02DE1
:1059D00027E030E0AE014F5F5F4F70E060E0C5014F
:1059E00009956F812B813C814D815E8189819A81EE
:1059F0001F926F935F934F933F932F939F938F9338
:105A00008CEC91E09F938F931F921F92FF921F93B4
:105A10000F930E94492CD501ED91FC910084F185F2
:105A2000E02D27E030E0A60170E060E0C5010995B7
:105A30006E852A853B854C855D85888599851F9275
:105A40006F935F934F933F932F939F938F938AEF1F
:105A500091E09F938F931F921F92FF921F930F933A
:105A60000E94492C29813A81888599850FB6F8943E
:105A7000DEBF0FBECDBF2817390711F52A853B853C
:105A80004C855D856B817C818D819E810E94C332B6
:105A90006B017C0120E030E0A9010E9488341816D7
:105AA0000CF045C02FE632E143E85AE3C701B601E6
:105AB0000E943033882324F49F818E859817E1F16A
:105AC0008FE492E09F938F931F921F9282E08F93B7
:105AD0008DE295E09F938F930E94492C0FB6F89426
