:100000000C9458000C9480000C9480000C94800098
:100010000C9480000C9480000C9480000C94800060
:100020000C9480000C9480000C9480000C94800050
:100030000C9480000C9480000C9480000C94800040
:100040000C94290D0C9480000C94B30D0C948D0D20
:100050000C9480000C9480000C9480000C94800020
:100060000C9480000C948000000000002300260007
:10007000290000000000250028002B0000000000DF
:10008000240027002A0004040404040404040202D7
:100090000202020203030303030301020408102007
:1000A0004080010204081020010204081020160DEF
:1000B00011241FBECFEFD8E0DEBFCDBF11E0A0E01E
:1000C000B1E0E2EAF0E202C005900D92A43EB10771
:1000D000D9F722E0A4EEB1E001C01D92A13BB20726
:1000E000E1F710E0C8E5D0E004C02197FE010E94CE
:1000F0000D0EC735D107C9F70E94840D0C944F101F
:100100000C940000789484B5826084BD84B58160CD
:1001100084BD85B5826085BD85B5816085BDEEE60F
:10012000F0E0808181608083E1E8F0E010828081EE
:1001300082608083808181608083E0E8F0E080815C
:1001400081608083E1EBF0E0808184608083E0EB7C
:10015000F0E0808181608083EAE7F0E08081846064
:1001600080838081826080838081816080838081C0
:10017000806880831092C10008952FB7F894609131
:10018000AD027091AE028091AF029091B0022FBF8C
:1001900008950895DB01ED91FC9111970190F08194
:1001A000E02DBC01CD0109950895DC01ED91FC9194
:1001B0000190F081E02D09950895EF92FF920F9341
:1001C0001F93CF93DF938C01FB01D0E0C0E07F0150
:1001D0008FEFE81AF80A6491662369F0D801ED916F
:1001E000FC910190F081E02DC8010995892B19F04F
:1001F0002196F701ECCFCE01DF91CF911F910F91A6
:10020000FF90EF900895CF92DF92EF92FF920F93BD
:100210001F93CF93DF938C01DB01D0E0C0E07A0124
:1002200081E0E81AF108452BA1F0F8018081918165
:10023000FC01208131816D01FFEFCF1ADF0A6C9143
:10024000C801F9010995892B21F02196A701D60152
:10025000E6CFCE01DF91CF911F910F91FF90EF90EC
:10026000DF90CF900895019709F008956F3F7F4F79
:10027000E1F7EBE0F2E01382128288EE93E0A0E077
:10028000B0E084839583A683B78381E191E0918375
:10029000808385EC90E09587848784EC90E0978755
:1002A000868780EC90E0918B808B81EC90E0938B43
:1002B000828B82EC90E0958B848B86EC90E0978B20
:1002C000868B118E128E138E148ECFCFFC01938DE0
:1002D000848D981720F4891B990B019708952FE3BB
:1002E00030E0291B3109820F932F911D0895FC01E5
:1002F000918D828D981761F0A28DAE0FBF2FB11D29
:100300005D968C91928D9F5F9F73928F90E0089580
:100310008FEF9FEF0895FC01918D828D981731F03A
:10032000828DE80FF11D858D90E008958FEF9FEF8E
:100330000895FC01218D30E0205C3F4F828DA901A2
:10034000481B5109CA018F73992708958BE092E0E9
:100350000E94990121E0892B09F420E0822F089561
:10036000CF92DF92EF92FF921F93CF93DF93EC0136
:100370006A017B01122F60E079E08DE390E0A70134
:1003800096010E94EB0D2150310941095109569502
:10039000479537952795E889F98982E08083C114CC
:1003A00081EED806E104F10421F0211580E138073F
:1003B00098F0E889F989108260E874E88EE190E0AD
:1003C000A70196010E94EB0D215031094109510905
:1003D0005695479537952795EC85FD853083EE85B5
:1003E000FF852083188EEC89FD891083EA89FB89BB
:1003F000808180618083EA89FB8980818860808335
:10040000EA89FB89808180688083EA89FB89808111
:100410008F7D8083DF91CF911F91FF90EF90DF90D0
:10042000CF900895FC01A48DA80FB92FB11DA35A38
:10043000BF4F2C91848D90E001968F739078848FBC
:10044000A689B7892C93A089B1898C918370806427
:100450008C93938D848D981308950288F389E02DF1
:1004600080818F7D8083F8CF0F931F93CF93DF938D
:10047000EC0181E0888F9B8D8C8D9817B1F0062F51
:100480008B8D90E001968F739078182F8C8D81134F
:100490001EC00FB607FCFACFE889F989808185FF75
:1004A000F5CFCE010E941202F1CFE889F98980814F
:1004B00085FFE5CF9FB7F894EE89FF896083E889CF
:1004C000F98980818370806480839FBF10C0EB8D29
:1004D000EC0FFD2FF11DE35AFF4F00839FB7F894F7
:1004E0001B8FEA89FB898081806280839FBF81E0C6
:1004F00090E0DF91CF911F910F910895CF93DF93FB
:10050000EC01888D811104C00DC00FB607FE0DC02F
:10051000EA89FB89808185FDF8CFA889B9898C910A
:1005200086FFF3CFDF91CF910895808185FFF0CFD3
:10053000E889F989808185FFEBCFCE010E94120204
:10054000E7CF80E090E0892B21F00E94A601811185
:1005500001C008950E940000FCCF0E94BD000895D4
:10056000019709F008956F3F7F4FE1F7E2E0F2E075
:100570001182108281E08283148213821682158296
:1005800010861782EFCFFC016283089577234CF029
:100590006730710514F066E070E0FC0171836083E0
:1005A000089570E060E0F9CFFF920F931F93CF930F
:1005B000DF93EC018A01F22E0E94C6026F2DCE015C
:1005C0000E94C3021C830B83DF91CF911F910F9177
:1005D000FF900895FC01718360830895DF92EF928C
:1005E000FF920F931F93CF93DF93CDB7DEB7A19701
:1005F0000FB6F894DEBF0FBECDBF7C01CB01BA01B0
:10060000D22E19A221E02D1520F48E010F5D1F4F6F
:100610000EC00F2EFAE0DF2EF02DF7CFE95CD801E7
:10062000EE938D01611571058105910579F02D2DF0
:1006300030E050E040E00E94EB0DE62F622F732F78
:10064000842F952FEA3054F7E05DE9CF1097F9F049
:10065000FD0101900020E9F73197AF014A1B5B0BC8
:10066000D701ED91FC910280F381E02DB801C70123
:100670000995A1960FB6F894DEBF0FBECDBFDF91EE
:10068000CF911F910F91FF90EF90DF90089590E030
:1006900080E0EFCF2115310549F4DC01ED91FC91AB
:1006A0000190F081E02D642F099508950E94EE02DB
:1006B00008959A01AB0170E060E00E944A0308953A
:1006C000CF92DF92EF92FF920F931F93CF93DF931E
:1006D000EC016A017B012115310581F4E881F98182
:1006E0000190F081E02D642F0995DF91CF911F914A
:1006F0000F91FF90EF90DF90CF9008952A30310551
:10070000C1F4FF2024F02AE00E94EE02EECF6DE259
:100710000E94D5008C0144275527BA014C195D0968
:100720006E097F092AE0CE010E94EE02800F911F20
:10073000DCCF0E94EE02D9CF9A01AB01770F660B96
:10074000770B0E94600308956115710581F0FB012C
:1007500001900020E9F73197AF01461B570BDC01F0
:10076000ED91FC910280F381E02D0995089590E0D0
:1007700080E008954F925F926F927F92AF92BF9206
:10078000CF92DF92EF92FF920F931F93CF93DF935D
:1007900000D000D01F92CDB7DEB75C016A017B01AB
:1007A0002D83AB019601CB01B6010E944A10811145
:1007B00051C026013701E89477F821E029832FEF13
:1007C0003FEF4FE75FE7C301B2010E944A1081117A
:1007D0000BC02FEF3FEF4FE75FE7C301B2010E946D
:1007E000800E18160CF4198289818823D1F12FEF1D
:1007F0003FEF4FE75FE4C701B6010E94D80F18161C
:100800000CF44AC02FEF3FEF4FE75FECC701B60192
:100810000E94800E88230CF446C020E030E0A9013D
:10082000C701B6010E94800E88230CF443C0712CCE
:10083000612C10E060E070E080E09FE32D811217F2
:1008400008F042C020E030E040E251E40E94850E12
:100850001F5FF4CF6FE171E0C5010E94A4038C011A
:1008600006C063E271E0C5010E94A4038C01C801C7
:100870000F900F900F900F900F90DF91CF911F91DD
:100880000F91FF90EF90DF90CF90BF90AF907F904F
:100890006F905F904F90089567E271E0C5010E94EC
:1008A000A4038C01E4CF67E271E0C5010E94A403B8
:1008B0008C01DDCF6DE2C5010E94D5003C01F7FA45
:1008C000F094F7F8F094B5CF9B01AC01C701B601E5
:1008D0000E94140E6B017C010E94F70E69837A83DB
:1008E0008B839C830E94260F9B01AC01C701B6013C
:1008F0000E94130E6B017C012AE030E049815A818D
:100900006B817C81C5010E944A038301080F191F76
:100910008D8181112BC02D81215029838D818823C8
:1009200009F4A5CF20E030E040E251E4C701B60170
:100930000E94DD0F2B013C010E94F70E6B014AE083
:1009400050E0C5010E945903080F191FB60190E03D
:1009500080E00E94260F9B01AC01C301B2010E94FE
:10096000130E6B017C0129812D83D5CF6EE2C50169
:100970000E94D500080F191FCECF0E94BA03089518
:100980000F931F93CF93DF93662309F480C08A01EE
:10099000EC01653209F447C0633709F449C0633597
:1009A00009F455C0643609F461C0693609F45EC0C3
:1009B000643409F471C0663409F46EC0683709F410
:1009C0007FC0683509F48EC0603709F4BFC0623655
:1009D00009F4CBC0623409F4DAC06C3609F4EFC014
:1009E000653709F400C1633609F411C1633409F4B1
:1009F0001DC1643709F445C1643509F048C0DA0106
:100A0000ED91FC911197CF0102968D939C9380817B
:100A10009181019709F44FC16AE371E08B819C8158
:100A20000E94DD0034C08B819C810E94D5002FC0C4
:100A3000DA01ED91FC911197CF0102968D939C9371
:100A4000608171818B819C810E94A40320C0DA01A6
:100A5000ED91FC911197CF0102968D939C9360814B
:100A600071818B819C810E94DD0011C08B819C81F2
:100A7000D801ED91FC9111979F012E5F3F4F2D936F
:100A80003C93608171814AE050E00E949C03DF91B9
:100A9000CF911F910F9108958B819C81D801ED9189
:100AA000FC9111979F012C5F3F4F2D933C93408108
:100AB00051816281738122E030E00E94BD04E7CF62
:100AC0008B819C81DA01ED91FC9111979F012E5F42
:100AD0003F4F2D933C936081718140E150E00E9433
:100AE0009C03D5CF6BE271E08B819C810E94A403B3
:100AF000D801ED91FC911197CF0102968D939C93B3
:100B0000008111810F3FBFE01B0770F00F3F1105FF
:100B100088F00F301105A0F040E150E0B8018B8162
:100B20009C810E945903B3CF60E38B819C810E941A
:100B3000D500ECCF60E38B819C810E94D500E9CF8A
:100B400060E38B819C810E94D500E6CFDA01ED91B4
:100B5000FC911197CF0102968D939C9360817181D6
:100B60008B819C810E94CA0092CF8B819C81DA018B
:100B7000ED91FC9111979F012E5F3F4F2D933C9378
:100B80006081718142E050E00E949C0380CF6EE260
:100B900071E08B819C810E94A4038B819C81D80190
:100BA000ED91FC9111979F012E5F3F4F2D933C9348
:100BB0006081718142E050E00E949C0368CF8B818C
:100BC0009C81DA01ED91FC9111979F012C5F3F4FC1
:100BD0002D933C9340815181628173812AE030E002
:100BE0000E94600354CF8B819C81DA01ED91FC91CE
:100BF00011979F012C5F3F4F2D933C934081518172
:100C0000628173812AE030E00E944A0340CF8B81E9
:100C10009C81DA01ED91FC9111979F012E5F3F4F6E
:100C20002D933C9360810E94D50031CFDA01ED9184
:100C3000FC911197CF0102968D939C93108180EEC9
:100C4000810F8F3590F06BE271E08B819C810E9467
:100C5000A4031F3084F0612F110F770B40E150E0A7
:100C60008B819C810E949C0312CF612F8B819C8180
:100C70000E94D5000CCF60E38B819C810E94D5003F
:100C8000EACFDA01ED91FC911197CF0102968D9395
:100C90009C9380819181019739F063E371E08B81AE
:100CA0009C810E94A403F3CE61E371E08B819C815F
:100CB0000E94A403ECCE65E371E08B819C810E94CD
:100CC000DD00E5CECF92DF92EF92FF920F931F935C
:100CD000CF93DF9300D0CDB7DEB76C015A83498341
:100CE0007B018FEFE81AF80AFB01608111C08701D0
:100CF0000F5F1F4FF7016081AE014F5F5F4FC6016D
:100D00000E94C0047801FFEFEF1AFF0AF80160812A
:100D1000662349F0653259F3F601838194810E947C
:100D2000D5008701EFCF0F900F90DF91CF911F91EA
:100D30000F91FF90EF90DF90CF900895613009F40C
:100D40005AC020F0623009F42DC0089590E09C0153
:100D500026563F4FF90154918A579F4FFC01449109
:100D6000E42FF0E0EE0FFF1FE458FF4FA591B49180
:100D70006C91452F50E04095509546234C93F901D6
:100D80002491FC018491E82FF0E0EE0FFF1FEE5854
:100D9000FF4FA591B4918C9130E020953095282398
:100DA0002C93089590E09C0126563F4FF9015491F1
:100DB0008A579F4FFC014491E42FF0E0EE0FFF1F94
:100DC000E458FF4FA591B4916C91452F50E04095A8
:100DD000509546234C93F9012491FC018491E82F0E
:100DE000F0E0EE0FFF1FEE58FF4FA591B4918C91EC
:100DF000282B2C93089590E0FC01E656FF4F249198
:100E0000FC01EA57FF4FE491F0E0EE0FFF1FE458BA
:100E1000FF4FA591B491EC91E22BEC93089590E0F3
:100E2000FC01EA57FF4FE491F0E0EE0FFF1FE85995
:100E3000FF4FA591B4912C9186569F4FFC01849150
:100E4000822321E030E011F430E020E081E0232B28
:100E500009F480E00895FF920F931F93CF93DF93DF
:100E6000019731F0DF91CF911F910F91FF9008957D
:100E70006F3F7F4FB9F7C6EED1E08BE091E09983E9
:100E800088831C821B821E821D8218861F821A86FE
:100E9000198682E38B878FE18C8785E28D878CE0D2
:100EA0008E878EE38F87188A198A1A8A1B8A1C8A72
:100EB0000BEF11E0F80110828EE18E8B188E1F8AE5
:100EC00082E0898F83E08A8F1B8E60E082E00E943F
:100ED0009E0660E08A8D0E949E0662E08B8D0E94D5
:100EE0009E068D819E8190619E838D838A8D0E9456
:100EF0000F07F82E898D0E940F078295880F880FA3
:100F0000807C86FB880F880B80F9982F9370F801FE
:100F100080818C7F892B9F2D9295990F990F907CC2
:100F200096FB990F990B90F99370990F990F837F06
:100F3000892B8083BE0184EE91E00E94EA0292CF69
:100F4000DF92EF92FF920F931F93CF93DF937C0179
:100F5000EC0122968A8988230CF49AC0898D0E941C
:100F60000F07082F888D0E940F07182F8F890E9466
:100F70000F072B813C8120FF03C0D70112961C92E2
:100F8000A9014F715527452B19F0207E3C832B83F7
:100F90009A8995FF02C09F7D9A8BFE013E969581AE
:100FA000292F2295220F220F207C26FB220F220BB5
:100FB00020F99295907F96FB990F990B90F929272C
:100FC000022E000C330B482F50E02827352712172C
:100FD000130609F4DFC1292F990F330B421753076A
:100FE00009F4B9C19581292F22952F702F5F229581
:100FF000207F9F70922B9583282F2295220F220FFE
:10100000207C26FB220F220B20F9237095819C7FE8
:10101000922B212F2295220F220F207C26FB220FBC
:10102000220B20F92370220F220F937F922B95839E
:10103000907F09F4B1C12481922F9370913009F40B
:101040009BC108F493C1923009F49BC1858191E062
:1010500080310CF49BC181E022FF80E0981709F4F5
:1010600097C12FEF85818F7085838E859F85A88995
:10107000B989422F022E000C550B660B770B840F9B
:10108000951FA61FB71F8E879F87A88BB98B85C119
:10109000898D0E940F072B813C8120FF03C0D7015F
:1010A00012961C92A9014F715527452B19F0207EED
:1010B0003C832B839A8995FF02C09F7D9A8B2D8953
:1010C0003E892115310581F121FF23C09A89906164
:1010D0009A8B22FF22C09A8998609A8B3695279521
:1010E00036952795369527953E8B2D8B2B813C8108
:1010F00025FF17C030683C832B832B813C8133FD57
:1011000003C038603C832B839A8990629A8B01E0FC
:101110000CC09A899F7E9A8BDCCF9A89977F9A8B95
:10112000DDCFF7011282E9CF00E02B813C8136FF51
:1011300027C03F7B3C832B8311E08B819C8191FDF9
:1011400006C0112309F482C092609C838B830E94A5
:10115000AD0229813A81FB01E21BF30B112309F453
:101160004FC02B813C8125FD22C032FD11C0498535
:10117000442371F034603C832B837A8369835EC09F
:1011800091E034FF90E011E08913D7CF10E0D5CF84
:1011900049854E171F0619F010F041114FC0226209
:1011A0003C832B8378876F837A83698347C033239B
:1011B0000CF444C026FD0EC04B85A0E14A9FA0015F
:1011C0001124E417F507D0F124643C832B837A8340
:1011D000698334C027FF0EC04C85B0E14B9FA0014E
:1011E0001124E417F50750F128683C832B837A8398
:1011F000698324C04B85A0E14A9FA0011124F1CF4F
:101200004B815C8145FF48C029852E171F0609F0D8
:1012100070F446FD04C0F70122812F5F228355231D
:10122000BCF1CA01806191608F7D9C838B838B812F
:101230009C8192FF03C09B7F9C838B838B819C81CD
:101240008F71992711E0892B09F410E0102B41F4DC
:101250008B819C8193FD5BC0812F882309F4AAC1F7
:101260008D819E81009709F4A5C1FC01892B09F4A9
:10127000A1C109958B819C8193FD5BC080E088238F
:1012800009F498C18B819C81977F9C838B8392C149
:10129000D70112961C92C5CF50FF0EC0552324F0E3
:1012A0009A0120613C832B832B813C813E773C83D8
:1012B0002B837A836983BBCFD70112962C9122238B
:1012C000C9F09A01207C3327232B81F42A85B0E1D1
:1012D0002B9F90011124E217F30740F48F8198852A
:1012E000892B09F4A4CF18861F82A1CF41605C83AB
:1012F0004B839DCF51FF9BCF9A012F733D7F386069
:101300003C832B8318861F827A83698390CF0E9447
:10131000AD0229813A81621B730B8D85E0E18E9FBE
:10132000C00111246817790710F4812F96CF81E04E
:1013300094CF0E94AD0229813A81621B730B8D8587
:10134000F0E18F9FC00111246817790710F480E045
:1013500096CF81E094CF9581292F22952F70215F20
:101360002295207F9F70922B958346CE112311F0FA
:1013700081116CCE20E011C0812B09F467CE20E0F2
:101380000CC0181709F462CE20E007C090E063CECD
:1013900021E068CE20E001C020E08D899E89009781
:1013A00009F45BC081FF51C02A8920612A8B82FF2A
:1013B00050C02A8928602A8B96958795969587959F
:1013C000969587959E8B8D8B8B819C8185FF65C0C3
:1013D00090689C838B838B819C8193FD03C0986074
:1013E0009C838B838A8980628A8BDD24D3948B8152
:1013F0009C8196FF58C09F7B9C838B8311E08B81DF
:101400009C8191FD06C0112309F4B7C092609C83B2
:101410008B830E94AD0229813A81FB01E21BF30B11
:101420009F01112309F482C04B815C8145FD53C0AB
:1014300052FD41C0E985EE2309F43DC09A013460B4
:101440003C832B837A83698390C02A892F7E2A8BE1
:10145000AECF2A89277F2A8BAFCF222311F1ACF0A0
:101460008A8980618A8B0E94AD0229813A81FB01C1
:10147000E21BF30B4C897A8369834E171F0649F0F0
:1014800040F08A8988608A8B9FCF8A898F7E8A8B79
:10149000EACF8A89877F8A8B97CFD70112961C92D1
:1014A0009ACFD12CA4CF21E094FF20E011E00213C9
:1014B000A6CF10E0A4CFE985E217130619F010F0CB
:1014C000E11153C09A0122623C832B8378876F839A
:1014D0007A8369834AC055230CF447C046FD0FC088
:1014E000EB85A0E1EA9FF00111242E173F07E8F1F8
:1014F0009A0124643C832B837A83698336C047FF37
:101500000FC0EC85B0E1EB9FF00111242E173F07CF
:1015100060F19A0128683C832B837A83698325C014
:10152000EB85A0E1EA9FF0011124F0CFAB81BC81F3
:10153000A5FF66C049854E171F0609F078F4A6FD81
:1015400004C0F70122812F5F2283BB230CF455C016
:10155000CD01806191608F7D9C838B838B819C8189
:1015600092FF03C09B7F9C838B838B819C818F71B7
:10157000992711E0892B09F410E01D2939F48B819A
:101580009C8193FD77C0812F8823A1F08D819E815E
:10159000009781F0FC01892B69F009958B819C8172
:1015A00093FD7AC080E0882329F08B819C81977F0E
:1015B0009C838B83112309F42DC1D70154968C9100
:1015C00085FD32C1E70122968B819C819170843622
:1015D000910509F4E3C008F07BC08232910509F45B
:1015E0009BC008F06BC08130910509F4BAC04097E8
:1015F00009F088C080E190E091C0F7011282A8CF85
:10160000B0FF0EC0BB2324F09D0120613C832B83DF
:101610002B813C813E773C832B837A8369839ECFE9
:10162000F70142814423C9F0AD01407C5527452B89
:1016300081F44A85F0E14F9FA0011124241735075A
:1016400040F48F819885892B09F488CF18861F82F2
:1016500085CFA160BC83AB8381CFB1FF7FCF9D01DC
:101660002F733D7F38603C832B8318861F827A83DB
:10167000698374CF0E94AD0229813A81621B730B8A
:101680008D8520E1829FC00111246817790710F42D
:10169000812F7ACF81E078CF0E94AD0229813A81F3
:1016A000621B730B8D8540E1849FC0011124681774
:1016B000790710F480E077CF81E075CF8134910510
:1016C00009F452C080359105E9F480E890E026C025
:1016D000883E910509F43FC050F4813C910509F41E
:1016E00046C0803D910571F480E092E017C08035DE
:1016F000B1E09B0799F1803DE1E09E0779F18031EF
:10170000914061F18B819C8193FD34C010E01111F7
:1017100042C090E080E002C081E090E0803291051C
:1017200009F466C0F0F1811541E0940709F466C040
:1017300008F44BC08115A4E09A0709F465C081152F
:10174000B8E09B0709F463C08115924009F459C0C1
:1017500090E080E061C084E090E0E0CF88E090E03D
:10176000DDCF80E290E0DACF80E091E0D7CF80E07B
:1017700094E0D4CF0E94AD0229813A81621B730BA1
:101780008D8520E1829FC00111246817790708F038
:10179000BECF10E0BCCF80E098E0C0CF82E090E008
:1017A000BDCF84309105F1F040F481309105B9F05E
:1017B000029771F682E090E02FC088309105A9F081
:1017C000409731F685E090E027C08034910599F08C
:1017D0008038910509F0BCCF88E090E01DC081E021
:1017E00090E01AC083E090E017C084E090E014C05D
:1017F00086E090E011C087E090E00EC089E090E0C4
:101800000BC08AE090E008C08BE090E005C08CE05F
:1018100090E002C090E080E0DF91CF911F910F91A6
:10182000FF90EF90DF90089587E090E0F5CFEF9282
:10183000FF920F931F93CF93DF93CDB7DEB7098548
:101840001A85EB84FC84D8018D919C918E159F059F
:101850004CF1FF2074F1D8011596ED91FC9116978B
:10186000309729F0B70113968D919C910995F80155
:101870008281811121C0AE01405F5F4F6E857F85FF
:10188000C8010E946206D8011796ED91FC91189745
:10189000309729F0B70113968D919C9109958D850C
:1018A00081111CC0DF91CF911F910F91FF90EF909C
:1018B0000895F12CE12CCFCFF701E150FF4F60816B
:1018C000D80113968D919C910E94D50060E471E03F
:1018D000F801838194810E94A403CDCF63E471E079
:1018E000F801838194810E94A403DCCFDC018D91F7
:1018F0009C91DC01ED91FC910190F081E02D099526
:10190000009709F408958D30910508F036C084578A
:10191000934FFC010C940D0E990CC00C9C0C9F0C69
:10192000A20CA50CA80CAB0CAE0CB10CB40CB70CF3
:10193000BA0C85E491E026C08AE691E023C088E8ED
:1019400091E020C080E591E01DC088E591E01AC0DB
:101950008AE791E017C08EE591E014C083E691E03C
:1019600011C08FE691E00EC081E891E00BC08DE8D8
:1019700091E008C08FE991E005C087EA91E002C0DC
:101980008AE491E09F938F938FEA91E09F938F93E6
:1019900081E08F931F9284E08F9382E092E09F9387
:1019A0008F930E94170C8DB79EB709960FB6F894C7
:1019B0009EBF0FBE8DBFA6CF84EE91E00E94760C35
:1019C000089526E040E855E260E070E08BE092E0A8
:1019D0000E94B00121E04BE052E066E070E082E05E
:1019E00092E00E94D4020E94BD009F938F937F9348
:1019F0006F9381EC91E09F938F9381E08F931F927F
:101A000084E08F9382E092E09F938F930E94170C63
:101A10008DB79EB70B960FB6F8949EBF0FBE8DBFC5
:101A2000089584EE91E00E94E10C08956FEF7FEF3E
:101A300081E090E00E9433016FEF7FEF81E090E062
:101A40000E94B0026FEF7FEF81E090E00E942B07D1
:101A500008951F920F920FB60F9211240F931F93A8
:101A60002F933F934F935F936F937F938F939F93A6
:101A7000AF93BF930091AD021091AE022091AF02DF
:101A80003091B0029091AC02B901A8014F5F5F4F55
:101A90006F4F7F4F83E0890F8D3740F086E8890FC5
:101AA000B901A8014E5F5F4F6F4F7F4F8093AC022B
:101AB0004093AD025093AE026093AF027093B002B8
:101AC0008091A8029091A902A091AA02B091AB02C4
:101AD0000196A11DB11D8093A8029093A902A09325
:101AE000AA02B093AB02BF91AF919F918F917F916A
:101AF0006F915F914F913F912F911F910F910F9097
:101B00000FBE0F901F9018950E9482000E94110D29
:101B10000E94DC0C0E94A102FBCF1F920F920FB615
:101B20000F9211242F933F934F935F936F937F9363
:101B30008F939F93AF93BF93EF93FF938BE092E0CC
:101B40000E941202FF91EF91BF91AF919F918F91EF
:101B50007F916F915F914F913F912F910F900FBEA9
:101B60000F901F9018951F920F920FB60F9211248D
:101B70002F938F939F93AF93BF93EF93FF93E09136
:101B80001B02F0911C02808182FD14C0EBE0F2E0A8
:101B9000A689B7892C91818D8F5F8F73928D89175C
:101BA00071F0DF01E18DF0E0E55FFD4F258F599683
:101BB0008C9305C0E0912102F09122028081FF9177
:101BC000EF91BF91AF919F918F912F910F900FBE89
:101BD0000F901F901895A1E21A2EAA1BBB1BFD01A6
:101BE0000DC0AA1FBB1FEE1FFF1FA217B307E407FC
:101BF000F50720F0A21BB30BE40BF50B661F771F54
:101C0000881F991F1A9469F7609570958095909533
:101C10009B01AC01BD01CF010895EE0FFF1F0590A0
:101C2000F491E02D09945058BB27AA270E942B0E4F
:101C30000C949E0F0E94900F38F00E94970F20F096
:101C400039F49F3F19F426F40C948D0F0EF4E095AF
:101C5000E7FB0C94870FE92F0E94AF0F58F3BA17D8
:101C6000620773078407950720F079F4A6F50C94B2
:101C7000D10F0EF4E0950B2EBA2FA02D0B01B90158
:101C800090010C01CA01A0011124FF27591B99F0F2
:101C9000593F50F4503E68F11A16F040A22F232FFE
:101CA000342F4427585FF3CF469537952795A7954E
:101CB000F0405395C9F77EF41F16BA0B620B730BF5
:101CC000840BBAF09150A1F0FF0FBB1F661F771F66
:101CD000881FC2F70EC0BA0F621F731F841F48F41B
:101CE000879577956795B795F7959E3F08F0B0CFA4
:101CF0009395880F08F09927EE0F9795879508958B
:101D00000E94630F08F481E008950E94990E0C94DC
:101D10009E0F0E94970F58F00E94900F40F029F4F8
:101D20005F3F29F00C94870F51110C94D20F0C9443
:101D30008D0F0E94AF0F68F39923B1F3552391F3F0
:101D4000951B550BBB27AA2762177307840738F02A
:101D50009F5F5F4F220F331F441FAA1FA9F335D087
:101D60000E2E3AF0E0E832D091505040E695001C3B
:101D7000CAF72BD0FE2F29D0660F771F881FBB1FF5
:101D8000261737074807AB07B0E809F0BB0B802DD3
:101D9000BF01FF2793585F4F3AF09E3F510578F0FF
:101DA0000C94870F0C94D20F5F3FE4F3983ED4F36A
:101DB000869577956795B795F7959F5FC9F7880FD3
:101DC000911D9695879597F90895E1E0660F771F25
:101DD000881FBB1F621773078407BA0720F0621BB6
:101DE000730B840BBA0BEE1F88F7E09508950E94E1
:101DF000B70F88F09F5798F0B92F9927B751B0F0D7
:101E0000E1F0660F771F881F991F1AF0BA95C9F77E
:101E100014C0B13091F00E94D10FB1E008950C943C
:101E2000D10F672F782F8827B85F39F0B93FCCF3EF
:101E3000869577956795B395D9F73EF490958095FB
:101E4000709561957F4F8F4F9F4F0895E89409C01B
:101E500097FB3EF490958095709561957F4F8F4FDD
:101E60009F4F9923A9F0F92F96E9BB279395F695F3
:101E7000879577956795B795F111F8CFFAF4BB0F71
:101E800011F460FF1BC06F5F7F4F8F4F9F4F16C0D5
:101E9000882311F096E911C0772321F09EE8872F5F
:101EA000762F05C0662371F096E8862F70E060E01B
:101EB0002AF09A95660F771F881FDAF7880F969594
:101EC000879597F90895990F0008550FAA0BE0E838
:101ED000FEEF16161706E807F907C0F012161306EC
:101EE000E407F50798F0621B730B840B950B39F42C
:101EF0000A2661F0232B242B252B21F408950A2692
:101F000009F4A140A6958FEF811D811D089597F9D1
:101F10009F6780E870E060E008959FEF80EC08958F
:101F200000240A94161617061806090608950024B8
:101F30000A9412161306140605060895092E039432
:101F4000000C11F4882352F0BB0F40F4BF2B11F4A6
:101F500060FF04C06F5F7F4F8F4F9F4F089557FD05
:101F60009058440F551F59F05F3F71F04795880F07
:101F700097FB991F61F09F3F79F08795089512169E
:101F800013061406551FF2CF4695F1DF08C016164A
:101F900017061806991FF1CF8695710561050894FB
:101FA0000895E894BB2766277727CB0197F9089512
:101FB0000E94630F08F48FEF08950E94F00F0C94B5
:101FC0009E0F0E94900F38F00E94970F20F09523EB
:101FD00011F00C94870F0C948D0F11240C94D20FD8
:101FE0000E94AF0F70F3959FC1F3950F50E0551FFE
:101FF000629FF001729FBB27F00DB11D639FAA275E
:10200000F00DB11DAA1F649F6627B00DA11D661FAC
:10201000829F2227B00DA11D621F739FB00DA11DCD
:10202000621F839FA00D611D221F749F3327A00D87
:10203000611D231F849F600D211D822F762F6A2F23
:1020400011249F5750409AF0F1F088234AF0EE0F88
:10205000FF1FBB1F661F771F881F91505040A9F7B5
:102060009E3F510580F00C94870F0C94D20F5F3F78
:10207000E4F3983ED4F3869577956795B795F795F1
:10208000E7959F5FC1F7FE2B880F911D9695879569
:1020900097F908950E94630F880B990B0895F8949F
:0220A000FFCF70
:1020A2004645574954560000000000A007000000B2
:1020B200003402030166017E02990177018B016EF1
:1020C200616E00696E66006F76660030780030627D
:1020D2000054004600747275650066616C73650099
:1020E2003A20000A004E6F6E6500507265737300ED
:1020F20052656C6561736500436C69636B0054756E
:10210200726E0052656C65617365486F6C64005253
:10211200656C65617365486F6C64436C69636B736E
:102122000052656C65617365537465700052656C2D
:102132006561736553746570436C69636B730054B6
:10214200696D656F757400556E6B6E6F776E0045C5
:102152006E636F646572206576656E743A202573CE
:102162000041707020736574757020636F6D706CC0
:1021720065746564206174206D696C6C69733A20C2
:04218200256C750053
:00000001FF
