:100000000C943E070C9466070C9466070C946607E4
:100010000C9466070C9466070C9466070C946607AC
:100020000C9466070C9466070C9466070C9466079C
:100030000C9466070C9466070C9466070C9466078C
:100040000C9460360C9466070C94EA360C94C43613
:100050000C9466070C9466070C9466070C9466076C
:100060000C947A340C946607000000000000000035
:100070000030F8FCFCFEFEFCF8F0E0F0FFFFFFFFB4
:10008000FFFFFFF0E0F0F8FCFEFEFCFCF8300000A3
:10009000000000000000000060F8FCFEFEFCFCF820
:1000A000FCFE7F3F1F0F87E7E3C30303010101014C
:1000B000010303C3E3E7870F1F3F7FFEFCF8FCFC4F
:1000C000FEFEFCF86000F0F0F0F1FBFFFFFFFF1F09
:1000D000010000007FFFFFFFDF3EF8F0E0C0E0F02E
:1000E000F83EDFFFFFFF7F000000011FFFFFFFFF63
:1000F000FBF1F0F0F0070787C7EFFFFFFFFFFCC041
:10010000800000000103070F0F08C3FFFFFFC308B3
:100110000F0F07030100000080C0FCFFFFFFFFEF8F
:10012000C787070700030F1F3F3F1F1F0F1FBFFF9A
:10013000FFFEFCFCF8F8FCFEFFFFFFFFFFFFFFFEE9
:10014000FCF8F8FCFCFEFFFFBF1F0F1F1F3F3F1F07
:100150000F0300000000000000000000060F1F1F3A
:100160003F3F1F0F0703077F7F7F7F7F7F7F07034F
:10017000070F1F3F3F1F1F0F060000000000000079
:10018000000000000000C0C0C0C0C0E0E0C0C0C0AF
:10019000C0C0C0C0C0C000000000000000001818AF
:1001A000989818191918181818183C3C18180000B5
:1001B0000000000000000303070703030303030319
:1001C00003030303030300000000FFFF0707C7C783
:1001D000C7C7C7E7E7C7C7C7C7C7C7C7C7C70707EF
:1001E000FFFFFFFF00001818989818191918181821
:1001F00018183C3C18180000FFFFFFFFE0E0E3E3A5
:10020000E7E7E3E3E3E3E3E3E3E3E3E3E3E3E0E0BC
:10021000FFFF0000000040E0F0E0C0E0F8F8F8F870
:10022000E0C0E0F0E040000000000000003C3C7E48
:10023000FFFFFFC381818181C3FFFFFF7E3C3C0044
:1002400000000000000002070F0703071F1F1F1F09
:100250000703070F070200000000FFFFBF1F4FE763
:10026000F3E7C1E1F9F9F9F9E1C1E7F3E74F1FBF9E
:10027000FFFFFF00003C3C7EFFFFFFC381818181C7
:10028000C3FFFFFF7E3C3C0000FFFFFFFDF8F2E7ED
:10029000CFE783879F9F9F9F8783E7CFE7F2F8FD94
:1002A000FFFF0000000000F8F8F8F8F80000000078
:1002B000F8F8F8F8F800000000000000000000FF67
:1002C000FFFFFFFF00000000FFFFFFFFFF00000037
:1002D000000000000000001F1F1F1F1F0000000083
:1002E0001F1F1F1F1F0000000000FFFFFF0303F37D
:1002F000F3F3F3F303030303F3F3F3F3F30303FF62
:10030000FFFFFFFFFF0000FFFFFFFFFF00000000F7
:10031000FFFFFFFFFF0000FFFFFFFFFFFFC0C0CF99
:10032000CFCFCFCFC0C0C0C0CFCFCFCFCFC0C0FF07
:10033000FFFF00000000F0F0E0E0C0C0808000009F
:100340000000000000000000000000000000FFFFAF
:10035000FFFFFFFFFFFFFFFF7E7E3C3C1818000001
:100360000000000000000F0F070703030101000059
:1003700000000000000000000000FFFF0303F3F393
:10038000E3E7C7CF8F9F1F3F3F7F7FFFFFFFFFFF49
:10039000FFFFFFFF0000FFFFFFFFFFFFFFFFFFFF6B
:1003A0007E7E3C3C189981C3FFFFFFFFC0C0CFCFCA
:1003B000C7E7E3F3F1F9F8FCFCFEFEFFFFFFFFFFE8
:1003C000FFFF00000000000000000000000000002F
:1003D0000000000000000000F0FCFEFFE3C1808090
:1003E00080C0E0000000000000000000000000FFEE
:1003F00055FF0404040404040484C464349CCCE461
:10040000F4F8FCFE7F3F9FCF67371717131B090CCB
:1004100004040404FF55FF00000000001F151F84A2
:10042000C4E4646466F3F9FCFE7F3F1F0F07030119
:100430000406070504040404040404040404040476
:10044000041F151F00000000000000000F1F3830BF
:100450003030381F0F0000000000000000000000D6
:100460000000000000000000000000000000C0F0DC
:10047000FCFFFCF0C00000000000000000000000D5
:10048000000000000000000000000000000000006C
:10049000000000000000000000000003070F0F0F25
:1004A000070300FEFF3333FFFEF070303030303092
:1004B000303030303030303030303030303030303C
:1004C000303030303030303030303030303030302C
:1004D000303030303030303030303030303030301C
:1004E0003070F0FEFF3333FFFEFFFF3333FFFF00BA
:1004F00000000000303030303030303033B7FEFC98
:1005000078300000000707070080800F4F4F0F80F2
:1005100080800004240080870707001C1C1D000049
:10052000808C8C800000000000FFFF3333FFFFFF52
:10053000FF3333FFFF3C3830303030303030303034
:1005400030303333313030303030303130303031A2
:100550003130303430333333303034303131303087
:1005600033333030313037373737303030383CFF85
:10057000FF3333FFFF01030303030100000000000A
:10058000000000000000000000000000000000006B
:10059000000000000000000000000000000000005B
:1005A000000000000000000000000000000000004B
:1005B00000000000000103030303010008102000F5
:1005C000000000000000000000000000000000002B
:1005D0000000F800000000000000333000000000C0
:1005E000100C06100C060000000000000000004087
:1005F000C07840C0784000043F04043F0404000079
:100600007088FC08300000001820FF211E0000F058
:1006100008F000E018000000211C031E211E00004D
:10062000F00888700000001E2123241927211010D3
:10063000160E000000000000000000000000000096
:100640000000E0180402000000000718204000002D
:10065000020418E0000000004020180700000040DD
:100660004080F0804040000202010F0102020000C1
:100670000000F0000000000101011F010101000065
:100680000000000000000080B070000000000000CA
:100690000000000000000000010101010101010053
:1006A00000000000000000003030000000000000EA
:1006B00000000080601804006018060100000000BF
:1006C000E010080810E000000F102020100F0000BC
:1006D0001010F8000000000020203F202000000043
:1006E000700808088870000030282422213000009B
:1006F000300888884830000018202020110E0000A3
:1007000000C02010F8000000070424243F2400004B
:10071000F80888880808000019212020110E000020
:10072000E0108888180000000F112020110E000032
:10073000380808C83808000000003F00000000002A
:1007400070880808887000001C222121221C0000EB
:10075000E010080810E0000000312222110F000014
:100760000000C0C0000000000000303000000000A9
:100770000000800000000000008060000000000019
:1007800000804020100800000102040810200040F2
:1007900040404040404000040404040404040000BD
:1007A0000810204080000000201008040201000012
:1007B0007048080808F0000000003036010000C052
:1007C00030C828E810E0000718272423140B000085
:1007D00000C038E0000000203C2302022738200837
:1007E000F8888888700000203F202020110E00C06B
:1007F00030080808083800071820202010080008D2
:10080000F808080810E000203F202020100F000802
:10081000F88888E8081000203F20202320180008CE
:10082000F88888E8081000203F200003000000C07E
:100830003008080838000007182020221E0200088F
:10084000F808000008F808203F210101213F20009E
:100850000808F8080800000020203F2020000000C1
:10086000000808F8080800C08080807F00000008A9
:10087000F888C028180800203F20012638200008EA
:10088000F8080000000000203F2020202030000851
:10089000F8F800F8F80800203F003F003F2000086B
:1008A000F830C00008F808203F200007183F00E09B
:1008B0001008080810E0000F10202020100F00087A
:1008C000F808080808F000203F210101010000E0BD
:1008D0001008080810E0000F18242438504F0008B2
:1008E000F8888888887000203F2000030C302000A2
:1008F000708808080838000038202121221C0018C0
:100900000808F8080818000000203F200000000830
:10091000F808000008F808001F202020201F000809
:1009200078880000C83808000007380E010000F879
:100930000800F80008F800033C0700073C03000823
:100940001868808068180820302C03032C30200899
:1009500038C800C83808000000203F200000001000
:10096000080808C838080020382621202018000070
:100970000000FE020202000000007F404040000034
:100980000C30C000000000000000010638C000006C
:10099000020202FE000000004040407F0000000014
:1009A0000004020202040000000000000000000039
:1009B0000000000000000080808080808080800037
:1009C000020204000000000000000000000000001F
:1009D000008080808000000019242222223F20080D
:1009E000F8008080000000003F112020110E000060
:1009F00000008080800000000E11202020110000E7
:100A00000000808088F800000E112020103F200098
:100A100000808080800000001F222222221300001C
:100A20008080F0888888180020203F202000000067
:100A300000808080808000006B9494949360000814
:100A4000F8008080800000203F210000203F20002F
:100A5000809898000000000020203F202000000027
:100A60000000809898000000C08080807F0000080F
:100A7000F8000080808000203F24022D30200000FC
:100A80000808F8000000000020203F20200000801F
:100A900080808080808000203F20003F20003F80B9
:100AA00080008080800000203F210000203F200047
:100AB00000808080800000001F202020201F0080F8
:100AC0008000808000000080FFA12020110E000027
:100AD00000008080808000000E112020A0FF808018
:100AE0008080008080800020203F212000010000C5
:100AF000008080808080000033242424241900009A
:100B00008080E0808000000000001F202000008026
:100B100080000000808000001F202020103F2080E7
:100B20008080000080808000010E30080601008077
:100B3000800080008080800F300C030C300F00009C
:100B4000808000808080000020312E0E31200080C7
:100B50008080000080808080818E701806010000F7
:100B6000808080808080000021302C222130000095
:100B7000000000807C020200000000003F404000B6
:100B8000000000FF00000000000000FF0000000067
:100B900002027C800000000040403F000000000096
:100BA0000601010202040400000000000000000031
:100BB0000608200000000000000000002F000000D8
:100BC000000700070000147F147F1400242A7F2AE6
:100BD00012002313086462003649552250000005B4
:100BE00003000000001C224100000041221C000004
:100BF00014083E08140008083E0808000000A06021
:100C000000000808080808000060600000002010CC
:100C1000080402003E5149453E0000427F4000006A
:100C20004261514946002141454B31001814127F61
:100C300010002745454539003C4A494930000171BB
:100C400009050300364949493600064949291E006D
:100C5000003636000000005636000000081422411D
:100C6000000014141414140000412214080002019E
:100C700051090600324959513E007C1211127C0084
:100C80007F49494936003E41414122007F4141228E
:100C90001C007F49494941007F09090901003E4183
:100CA00049497A007F0808087F0000417F41000021
:100CB0002040413F01007F08142241007F40404016
:100CC00040007F020C027F007F0408107F003E413D
:100CD00041413E007F09090906003E4151215E0065
:100CE0007F091929460046494949310001017F0120
:100CF00001003F4040403F001F2040201F003F4078
:100D000038403F00631408146300070870080700A8
:100D1000615149454300007F41410000552A552A51
:100D200055000041417F00000402010204004040E0
:100D30004040400000010204000020545454780058
:100D40007F484444380038444444200038444448F0
:100D50007F00385454541800087E0901020018A47A
:100D6000A4A47C007F080404780000447D400000B7
:100D70004080847D00007F102844000000417F40B7
:100D800000007C04180478007C08040478003844CF
:100D900044443800FC242424180018242418FC009F
:100DA0007C0804040800485454542000043F444084
:100DB00020003C4040207C001C2040201C003C4087
:100DC00030403C004428102844001CA0A0A07C0017
:100DD0004464544C440000087700000000007F0089
:100DE0000000007708000000100810080014141418
:100DF00014141400AE00200100C800400081017FDF
:100E0000A100A600A8013FD30100D50180D901228D
:100E1000DA0112DB01208D0114A400AF00000000F4
:100E20000023002600290000000000240027002ADB
:100E30000000000000250028002B00040404040426
:100E40000404040202020202020303030303030177
:100E5000020408102040800102040810200102044E
:100E60000810200000000800020100000304070031
:100E700000000000000000006134223711241FBE72
:100E8000CFEFD8E0DEBFCDBF13E0A0E0B1E0E0E8F7
:100E9000F7E702C005900D92A636B107D9F727E013
:100EA000A6E6B3E001C01D92A231B207E1F717E058
:100EB000CDE3D7E004C02197FE010E947537CC3303
:100EC000D107C9F70E94BB360C94B33B0C940000C9
:100ED00085EC8093BC001092E8060895811104C04F
:100EE00085E88093BC00089585EC8093BC0008954C
:100EF0009093C1068093C00608959093C506809391
:100F0000C4060895AC012091C206260F3327331F73
:100F100021323105F4F48091E8068430E1F490E068
:100F20000FC0E091C206292F30E0E20FF32FF11D30
:100F3000240F351FD9012C91E056F94F20839F5F74
:100F4000961778F38091C206680F6093C20680E01E
:100F5000089581E0089582E008959B01AC0160E06E
:100F600074E284EF90E00E94533720513109410927
:100F7000510956954795379527952093B8000895C0
:100F8000089508950895E0918B0680918A06E817E8
:100F900030F4F0E0E659F94F808190E008958FEF4A
:100FA0009FEF089590918B0680918A06981758F4C8
:100FB000E92FF0E0E659F94F208130E09F5F9093F0
:100FC0008B06C90108952FEF3FEFFBCF80918A0672
:100FD00090918B06891B990B0895CF92DF92EF9227
:100FE000FF920F931F93CF93DF938C016B017A01D4
:100FF00080916906882399F0D0E0C0E0CE15DF0526
:1010000090F4D801ED91FC910190F081E02DD60192
:10101000AC0FBD1F6C91C80109952196EFCF642FCD
:10102000C6010E948207C701DF91CF911F910F91E6
:10103000FF90EF90DF90CF900895CF93DF931F92B2
:10104000CDB7DEB7FC016983909169069923F1F071
:1010500090918C06903250F081E090E093838283EF
:1010600090E080E00F90DF91CF91089580918D0600
:10107000E82FF0E0E75BF94F998190838F5F8093D1
:101080008D0680938C0681E090E0ECCF61E0CE018C
:1010900001960E94820781E090E0E4CF81E0809396
:1010A00069066093480610928D0610928C0608958A
:1010B000CB01BA010E94AD070895FC011382128290
:1010C00088EE93E0A0E0B0E084839583A683B783A5
:1010D00084EB91E0918380830895019709F008954E
:1010E0006F3F7F4FE1F78EE896E00E945D08F7CFF3
:1010F00008958330B1F060F08730E9F0883009F16D
:10110000843021F5E0E8F0E080818F7D80830895D0
:10111000813069F0823021F484B58F7D84BD0895DB
:101120000895E0E8F0E080818F778083089584B5AA
:101130008F7784BD0895E0EBF0E080818F77808326
:101140000895E0EBF0E080818F7D808308951F9308
:10115000CF93DF93282F30E0F901ED59F14F8491BF
:10116000F901E15BF14F1491F901E55CF14FC49194
:10117000CC23A9F0D62F811116C0EC2FF0E0EE0F92
:10118000FF1FEF5CF14FA591B4918FB7F894D11187
:101190000DC09C91E12FE095E923EC938FBFDF9187
:1011A000CF911F9108950E947908E7CFEC91E12B30
:1011B000EC93F4CFECEBF0E080818A7B808360E0FD
:1011C00082E10E94A70860E083E10E94A7080895D9
:1011D0001092E80681E08093EA061092E90661E049
:1011E00082E10E94A70861E083E10E94A708E9EB81
:1011F000F0E080818E7F808380818D7F808388E492
:101200008093B80085E48093BC000895EF92FF922C
:101210000F931F93CF93DF9391E090939F068111DB
:1012200007C0DF91CF911F910F91FF90EF9008952C
:10123000C8EBD0E0F8800AEB10E0F801E0800E94F3
:10124000DA080E94E808F801E082F882EACF1092FA
:101250008B0610928A0610928D0610928C060E94C0
:10126000E80880EC97E00E94780781EC97E00E9404
:101270007D070895CF93DF9390E0FC01E15BF14F90
:101280002491855C914FFC018491882319F190E0B1
:10129000880F991FFC01E95DF14FA591B491FC0104
:1012A000EF5CF14FC591D491662349F06230A9F00B
:1012B0008FB7F894EC91E22BEC938FBF0BC09FB7E4
:1012C000F8948C91E22FE0958E238C938881E8230B
:1012D000E8839FBFDF91CF9108959FB7F8943C9129
:1012E000822F809583238C93E881E22BE8839FBF34
:1012F000F1CF789484B5826084BD84B5816084BD6B
:1013000085B5826085BD85B5816085BDEEE6F0E07E
:10131000808181608083E1E8F0E0108280818260DA
:101320008083808181608083E0E8F0E0808181605B
:101330008083E1EBF0E0808184608083E0EBF0E08B
:10134000808181608083EAE7F0E08081846080832F
:1013500080818260808380818160808380818068D9
:1013600080831092C10008953FB7F894809144069D
:1013700090914506A0914606B091470626B5A89BD8
:1013800005C02F3F19F00196A11DB11D3FBFBA2F17
:10139000A92F982F8827BC01CD01620F711D811DD7
:1013A000911D660F771F881F991F660F771F881F73
:1013B000991F08954F925F926F927F928F929F92A2
:1013C000AF92BF92EF92FF920F931F93CF93DF9351
:1013D000413280F081E0DF91CF911F910F91FF901A
:1013E000EF90BF90AF909F908F907F906F905F90A5
:1013F0004F900895D22FC42F7B01182F0E94B4095B
:101400004B015C019091E806992329F180919B069C
:1014100090919C06A0919D06B0919E06892B8A2BE7
:101420008B2B81F30E94B409681979098A099B09F9
:1014300040909B0650909C0660909D0670909E0682
:101440004616570668067906E8F680919A060E94C5
:10145000060985E0C0CF82E08093E8060093EA06A3
:101460008FEF8093E70610920C07C0930B070AC01A
:10147000E92FF0E0D701AE0FBF1F8C91E551F94F76
:1014800080839F5F9C17A0F310920D07812F90E03F
:10149000880F991F10910D07812B80930D07809164
:1014A000E9068130A1F185EE8093BC000E94B40969
:1014B0004B015C01DD2309F462C08091E8068230B3
:1014C00009F05DC080919B0690919C06A0919D06BD
:1014D000B0919E06892B8A2B8B2B61F30E94B40955
:1014E000681979098A099B0900919B0610919C064D
:1014F00020919D0630919E06061717072807390789
:10150000C8F680919A060E94060985E064CF109281
:10151000E9060E94B4094B015C0104C08091BC0043
:1015200083FF29C080910D078093BB0080919B06AB
:1015300090919C06A0919D06B0919E06892B8A2BC6
:101540008B2B61F30E94B409681979098A099B09F8
:1015500000919B0610919C0620919D0630919E065D
:101560000617170728073907C8F680919A060E94C0
:10157000060985E030CF85EC8093BC0097CF809141
:10158000E7068F3F61F08091E706803251F080914D
:10159000E706803311F084E01ECF83E01CCF80E0AB
:1015A0001ACF82E018CF0F9340918C06062F21E0CE
:1015B00069E476E0809148060E94DA0910928D066F
:1015C00010928C06109269060F91089561E00E94B6
:1015D000D30A08958F929F92AF92BF92CF92DF92DB
:1015E000EF92FF926B017C010E94B4094B015C01F8
:1015F0001BC021E0C21AD108E108F10888EE880E6C
:1016000083E0981EA11CB11CC114D104E104F104B3
:1016100059F00E94B409681979098A099B09683E42
:1016200073408105910528F7C114D104E104F10448
:1016300059F7FF90EF90DF90CF90BF90AF909F90C1
:101640008F9008952FB7F8946091400670914106ED
:1016500080914206909143062FBF08950895CF923E
:10166000DF92EF92FF920F931F93CF93DF938C0142
:10167000DB01D0E0C0E07A0181E0E81AF108452BF7
:10168000A1F0F80180819181FC01208131816D01FF
:10169000FFEFCF1ADF0A6C91C801F9010995892B78
:1016A00021F02196A701D601E6CFCE01DF91CF919F
:1016B0001F910F91FF90EF90DF90CF90089590E0F1
:1016C00080E00895019709F008956F3F7F4FE1F79B
:1016D000E2EAF5E01382128288EE93E0A0E0B0E047
:1016E00084839583A683B78382EA91E09183808384
:1016F00085EC90E09587848784EC90E097878687D7
:1017000080EC90E0918B808B81EC90E0938B828BCE
:1017100082EC90E0958B848B86EC90E0978B868BA7
:10172000118E128E138E148ECFCFFC01938D848D6B
:10173000981720F4891B990B019708952FE330E047
:10174000291B3109820F932F911D0895FC01918D62
:10175000828D981761F0A28DAE0FBF2FB11D5D96DF
:101760008C91928D9F5F9F73928F90E008958FEF81
:101770009FEF0895FC01918D828D981731F0828D35
:10178000E80FF11D858D90E008958FEF9FEF08958C
:10179000FC01218D30E0205C3F4F828DA901481B68
:1017A0005109CA018F739927089582EA95E00E9432
:1017B000C80B21E0892B09F420E0822F0895CF92F5
:1017C000DF92EF92FF921F93CF93DF93EC016A01B8
:1017D0007B01122F60E079E08DE390E0A701960194
:1017E0000E945337215031094109510956954795B7
:1017F00037952795E889F98982E08083C11481EEC5
:10180000D806E104F10421F0211580E1380798F0B1
:10181000E889F989108260E874E88EE190E0A70118
:1018200096010E94533721503109410951095695BB
:10183000479537952795EC85FD853083EE85FF85A7
:101840002083188EEC89FD891083EA89FB898081C9
:1018500080618083EA89FB89808188608083EA894E
:10186000FB89808180688083EA89FB8980818F7D04
:101870008083DF91CF911F91FF90EF90DF90CF9009
:101880000895FC01A48DA80FB92FB11DA35ABF4F15
:101890002C91848D90E001968F739078848FA68927
:1018A000B7892C93A089B1898C91837080648C93C3
:1018B000938D848D981308950288F389E02D80819B
:1018C0008F7D8083F8CF0F931F93CF93DF93EC012D
:1018D00081E0888F9B8D8C8D9817B1F0062F8B8DB2
:1018E00090E001968F739078182F8C8D81131EC015
:1018F0000FB607FCFACFE889F989808185FFF5CF1B
:10190000CE010E94410CF1CFE889F989808185FFE1
:10191000E5CF9FB7F894EE89FF896083E889F9895C
:1019200080818370806480839FBF10C0EB8DEC0F3B
:10193000FD2FF11DE35AFF4F00839FB7F8941B8FD3
:10194000EA89FB898081806280839FBF81E090E08B
:10195000DF91CF911F910F910895CF93DF93EC0109
:10196000888D811104C00DC00FB607FE0DC0EA8935
:10197000FB89808185FDF8CFA889B9898C9186FF84
:10198000F3CFDF91CF910895808185FFF0CFE88973
:10199000F989808185FFEBCFCE010E94410CE7CF12
:1019A00080E090E0892B21F00E94D50B811101C0CD
:1019B00008950E940000FCCF0E94220B0895CF9250
:1019C000DF92EF92FF920F931F93CF93DF936A30D2
:1019D000710508F058C0FB017496EE0FFF1FE80F69
:1019E000F91F20813181232B09F459C0FC01E60F36
:1019F000F71FE056FF4F2081222309F454C0FC0159
:101A0000E60FF71FE254FF4F2081222371F06E5C36
:101A10007F4F660F771F660F771F860F971FFC019A
:101A2000608171818281938131C0EB018C010E94C0
:101A3000220BFE01EE0FFF1FEE0FFF1FE00FF11F45
:101A4000C080D180E280F3809B01AC012C193D095C
:101A50004E095F0969017A016496CC0FDD1FCC0F36
:101A6000DD1FC00FD11F88819981AA81BB81C81653
:101A7000D906EA06FB06D8F4BC01CD016C197D0934
:101A80008E099F0903C060E070E0CB01DF91CF9128
:101A90001F910F91FF90EF90DF90CF90089560E03D
:101AA00070E0CB01F3CF60E070E0CB01EFCF60E0FE
:101AB00070E0CB01EBCF6A30710538F4860F971FC9
:101AC000FC01E254FF4F8081089580E008958F92D9
:101AD0009F92AF92BF92CF92DF92EF92FF920F93BD
:101AE0001F93CF93DF936A307105D0F4FB01749696
:101AF000EE0FFF1FE80FF91F20813181232B81F0AA
:101B0000FC01E60FF71FE056FF4F2081222341F032
:101B1000FC01E60FF71FE254FF4F208121110DC099
:101B2000DF91CF911F910F91FF90EF90DF90CF90B9
:101B3000BF90AF909F908F900895EB018C010E9411
:101B4000220BFE01F296EE0FFF1FEE0FFF1FE00FBC
:101B5000F11FC080D180E280F380C114D104E10480
:101B6000F104B1F1FE017496EE0FFF1FEE0FFF1F9F
:101B7000E00FF11F80809180A280B3808C149D04BF
:101B8000AE04BF0428F18C189D08AE08BF08681584
:101B900079058A059B0580F0681979098A099B09EE
:101BA000FE01EE0FFF1FEE0FFF1FE00FF11F60831E
:101BB00071838283938317C0FE01EE0FFF1FEE0F28
:101BC000FF1FE00FF11F10821182128213820BC0DF
:101BD000FE01EE0FFF1FEE0FFF1FE00FF11F6083EE
:101BE000718382839383F801EC0FFD1FE254FF4F52
:101BF0001082BE016E5C7F4F660F771F660F771FE6
:101C0000600F711FFB01108211821282138288CF34
:101C1000CF92DF92EF92FF920F931F93CF93DF93B8
:101C20006A307105D0F4FB017496EE0FFF1FE80FC8
:101C3000F91F20813181232B81F0FC01E60FF71F72
:101C4000E056FF4F2081222341F0FC01E60FF71FF1
:101C5000E254FF4F2081222349F0DF91CF911F9161
:101C60000F91FF90EF90DF90CF9008958B01EC01E2
:101C70000E94220BF801EE0FFF1FEE0FFF1FEC0F6B
:101C8000FD1FC080D180E280F380DC01CB018C1984
:101C90009D09AE09BF09F801EB5AFF4FEE0FFF1F78
:101CA000EC0FFD1F11821082F8017496EE0FFF1FDA
:101CB000EE0FFF1FEC0FFD1FC080D180E280F3808C
:101CC0008C159D05AE05BF05B8F4C81AD90AEA0AF5
:101CD000FB0AF801F296EE0FFF1FEE0FFF1FEC0F4D
:101CE000FD1FC082D182E282F382C00FD11FC25495
:101CF000DF4F81E08883B1CFF801F296EE0FFF1F2E
:101D0000EE0FFF1FEC0FFD1F108211821282138253
:101D1000ECCF6A30710538F4860F971FFC01E0564E
:101D2000FF4F8081089580E00895FB017496EE0FC7
:101D3000FF1FE80FF91F20813181232B09F456C0C2
:101D40009B012C5E3F4FF901EE0FFF1FE80FF91FBB
:101D500011821082FB017E96EE0FFF1FE80FF91F24
:101D600011821082AC01460F571FFA01E056FF4F57
:101D70001082FB01EB5AFF4FEE0FFF1FE80FF91F18
:101D800011821082220F331F220F331FFC01E20F3A
:101D9000F31F1082118212821382FB01EA5BFF4F54
:101DA000EE0FFF1FE80FF91F11821082FB01FC9656
:101DB000EE0FFF1FE80FF91F1182108242545F4F90
:101DC000FA011082FB01F296EE0FFF1FEE0FFF1FCC
:101DD000E80FF91F1082118212821382FC01E05178
:101DE000FF4F8081918101979183808308958F9225
:101DF0009F92AF92BF92CF92DF92EF92FF920F939A
:101E00001F93CF93DF938C010E94220BAB01BC0187
:101E100090E080E01DC02130310509F480C021E050
:101E200030E0FC01EB5AFF4FEE0FFF1FE00FF11FF8
:101E300031832083FC01EA5BFF4FEE0FFF1FE00FB1
:101E4000F11F208131812F5F3F4F31832083019625
:101E50008A3091050CF066C0FC017496EE0FFF1FEE
:101E6000E00FF11F20813181232B89F3F801E80F66
:101E7000F91FE056FF4F2081222349F3F801E80FB4
:101E8000F91FE254FF4F20812111E1CFFC01EE0F39
:101E9000FF1FEE0FFF1FE00FF11FC080D180E28017
:101EA000F3804A015B018C189D08AE08BF08FC0155
:101EB0007496EE0FFF1FEE0FFF1FE00FF11FC080A3
:101EC000D180E280F3808C149D04AE04BF0408F43A
:101ED000BECFFC01EE0FFF1FEE0FFF1FE00FF11F43
:101EE0004083518362837383FC01FC96EE0FFF1FD6
:101EF000E00FF11F208131812115310509F48BCFCD
:101F0000FC01EA5BFF4FEE0FFF1FE00FF11F019096
:101F1000F081E02DE217F3070CF099CF7CCF22E09F
:101F200030E07FCFD0E0C0E00AC0FE01EB5AFF4FA7
:101F3000EE0FFF1FE00FF11F118210822196CA30B1
:101F4000D1050CF041C0FE01EB5AFF4FEE0FFF1F11
:101F5000E00FF11F80819181892B81F3F801EC0F53
:101F6000FD1FE254FF4F80818111DFCFFE01749687
:101F7000EE0FFF1FE00FF11F0190F081E02D309771
:101F800049F0DE015E96AA0FBB1FA00FB11F8D9115
:101F90009C910995FE01EB5AFF4FEE0FFF1FE00FDA
:101FA000F11F80819181029751F0FE01EB5AFF4FA2
:101FB000EE0FFF1FE00FF11F11821082BFCFBE0195
:101FC000C8010E94950EBACFDF91CF911F910F915A
:101FD000FF90EF90DF90CF90BF90AF909F908F9049
:101FE00008958F929F92AF92BF92CF92DF92EF921D
:101FF000FF920F931F93CF93DF936A30710598F48C
:10200000FB017496EE0FFF1FE80FF91F0190F0819E
:10201000E02DEF2B41F0FC01E60FF71FE056FF4FDC
:10202000E081E1110DC0DF91CF911F910F91FF90E1
:10203000EF90DF90CF90BF90AF909F908F900895DA
:1020400069017A01EB018C010E94220BFE01EE0F67
:10205000FF1FEE0FFF1FE00FF11F80809180A28015
:10206000B3809B01AC01281939094A095B09490170
:102070005A01C814D904EA04FB04E8F4FE01EE0F87
:10208000FF1FEE0FFF1FE00FF11F6083718382833C
:102090009383FE017496EE0FFF1FE00FF11F019076
:1020A000F081E02DDE015E96AA0FBB1FA00FB11FCD
:1020B0008D919C9109956496CC0FDD1FCC0FDD1F8F
:1020C000C00FD11FC882D982EA82FB82ACCFAC019B
:1020D00090E080E001C001968A3091059CF4FA01FD
:1020E000E80FF91FE056FF4F20812111F4CFFC01CA
:1020F0007496EE0FFF1FE40FF51F20813181232B13
:1021000051F702C08FEF9FEF08956F927F928F92E9
:102110009F92AF92BF92CF92DF92EF92FF920F9376
:102120001F93CF93DF93EC014A015B0139010E94B9
:1021300067106C0199230CF475C06114710409F4E3
:1021400075C04496FC01EE0FFF1FEE0FFF1FEC0F52
:10215000FD1F80829182A282B382880F991FFE01A7
:10216000E80FF91F71826082F6017E96EE0FFF1F65
:10217000EC0FFD1FF182E082F601FC96EE0FFF1FCF
:10218000EC0FFD1F11830083F601EA5BFF4FEE0F9A
:10219000FF1FEC0FFD1F118210820E94220BF6011F
:1021A000EE0FFF1FEE0FFF1FEC0FFD1F608371830B
:1021B00082839383CE018C0D9D1DFC01E056FF4F61
:1021C00021E02083F601EB5AFF4FEE0FFF1FEC0FCB
:1021D000FD1F1182108282549F4FFC011082F60174
:1021E000F296EE0FFF1FEE0FFF1FEC0FFD1F108288
:1021F000118212821382C051DF4F8881998101962A
:1022000099838883C601DF91CF911F910F91FF9031
:10221000EF90DF90CF90BF90AF909F908F907F9086
:102220006F900895CC24CA94DC2CECCFCC24CA94B3
:10223000DC2CE8CFEF92FF920F931F93780101E01F
:1022400010E00E9485101F910F91FF90EF9008956C
:10225000EF92FF920F931F93780110E000E00E942D
:1022600085101F910F91FF90EF900895FC01E051B0
:10227000FF4F1182108230E020E02A3031059CF5BA
:10228000F9017496EE0FFF1FE80FF91F11821082FB
:10229000F9017E96EE0FFF1FE80FF91F11821082E1
:1022A000AC01420F531FFA01E056FF4F1082F901B3
:1022B000EB5AFF4FEE0FFF1FE80FF91F118210823C
:1022C00042545F4FFA011082F901F296EE0FFF1FA0
:1022D000EE0FFF1FE80FF91F108211821282138286
:1022E0002F5F3F4FCACF08950E94A70808951F93FC
:1022F000CF93DF9388234CF1162FC82F61E00E9403
:102300003A090C2E000CDD0B61E070E0CE010E945A
:1023100074116AE070E080E090E00E94EA0A70E0E8
:1023200060E0CE010E9474116AE070E080E090E00D
:102330000E94EA0A61E070E0CE010E947411612FF0
:1023400070E090E080E00E94EA0ADF91CF911F9157
:1023500008958EE896E00E94E60A0895FC016281E5
:102360008EE896E00E944E081092A10508950F9302
:102370001F93CF938C01C62F8091A105811102C0BC
:10238000F80163838E3170F46C2F8EE896E00E9422
:102390001D088091A1058F5F8093A105CF911F91AA
:1023A0000F910895C8010E94A911C8010E94AE11A1
:1023B000F8016381C8010E94B711E6CF089508951E
:1023C0008EE896E00E94270940E85AE166E070E056
:1023D0008EE896E00E94580808950895FC016083F5
:1023E0004183228313820895019709F008956F3F76
:1023F0007F4FE1F7E3E9F5E08CE0DF011D928A957C
:10240000E9F715861486F2CF882314F090E008953A
:1024100086FD1FC0209190053091910500243695CE
:1024200027950794369527950794322F202D8F7383
:10243000A901482BCA0190939105809390052091A2
:102440009205215020939205222309F38FEF9FEFED
:10245000089591E0909392056FE1462F50E0FA01C4
:10246000E095F095282F209530E02E233F23232B55
:1024700049F455954795642F909192059F5F9093ED
:102480009205EBCF862390E0909391058093900581
:102490008FEF9FEF0895DC011C96ED91FC9109955B
:1024A0000895DC01FB0184918C93319684911196FF
:1024B0008C9311973196249112962C931297319602
:1024C000E4911396EC9313976C5F7F4F19967C936E
:1024D0006E9318974CE353E11D965C934E931C97B3
:1024E00030E0295F3F4F35952795359527953595F0
:1024F000279515962C931597829FE02D11241696FB
:10250000EC93169717961C9217971B961C921E9287
:102510001A970895FC01408551858381062E000C91
:10252000770B681B71098681869F9001879F300D0C
:1025300011248081813039F090E080E0820F931F78
:10254000840F951F089583E090E0F8CFFB0124915C
:1025500030E0322F22273196E4912E2BDC011196A8
:102560003C932E93FB013296E4911296EC93EE236A
:1025700019F0CB010396089590E080E00895CF9282
:10258000DF92EF92FF920F931F93CF93DF9300D0D0
:102590001F92CDB7DEB76C018B017A0106C0F60140
:1025A0009681899F000D111D1124B801CE0101965D
:1025B0000E94A6128B81882361F00D5F1F4F298135
:1025C0003A81E216F30658F3280F311DE216F3069E
:1025D00030F78823C9F089819A81E81AF90AF6014F
:1025E00026812E9DC0012F9D900D1124800F911FDB
:1025F0000F900F900F90DF91CF911F910F91FF904F
:10260000EF90DF90CF90089590E080E0F1CF0F93AE
:102610001F93CF93DF93EC018B016038710558F461
:102620008881811108C088859985892B21F0CE0188
:102630000E948A120DC088859985009771F0A801C3
:10264000BC01CE010E94BF12009739F0009779F0CB
:10265000DF91CF911F910F9108956A857B85611558
:102660007105A1F3A801CE010E94BF12EFCF6B81CB
:10267000CE010E948A12ECCFCF93DF934115510512
:1026800069F0EA01FC0181818883828189838781E5
:102690008A83CF010E9407139C838B83DF91CF91A4
:1026A00008950895DB018CE6FB0111928A95E9F704
:1026B00080E0853048F5FD0195E1899FE00DF11D31
:1026C00011241082118212822FEF3FEF3483238373
:1026D00040E355E760E070E0458356836783708789
:1026E000118612861386148628E833E136872587FB
:1026F0002AEF30E0308B278725E030E0328B218BCA
:10270000148A138A8F5FD5CF40E355E760E070E00D
:1027100015964D935D936D937C93189788E893E19C
:102720001E969C938E931D97FD01E559FF4F81E006
:102730008083A759BF4F8FEF9FEF8D939C93089590
:1027400082599F4F21E0FC01208308956530F8F401
:1027500070E09B012F5F3F4FA5E1A29FF001A39F77
:10276000F00D1124E80FF91F20813181241735075E
:1027700071F06F5F7F4F25E1269FF001279FF00DDD
:102780001124E80FF91F518340830E94A01308957C
:10279000653078F470E06F5F7F4F45E1469F9001B0
:1027A000479F300D1124820F931FFC01808191817E
:1027B000089590E080E008956530D0F470E025E160
:1027C000269FF001279FF00D1124E80FF91F2389A0
:1027D00034892417350761F025E1269FF001279FF2
:1027E000F00D1124E80FF91F548B438B0E94A013A6
:1027F0000895653048F425E1629F800D911D1124F4
:10280000FC0183899489089590E080E00895653003
:10281000D0F470E025E1269FF001279FF00D1124F0
:10282000E80FF91F218932892417350761F025E166
:10283000269FF001279FF00D1124E80FF91F528BFE
:10284000418B0E94A0130895653048F425E1629FF2
:10285000800D911D1124FC0181899289089590E0D9
:1028600080E00895EF92FF920F931F93CF9365300E
:1028700020F5C62F8C010E9424147C016C2FC80106
:102880000E94F913009781F09701DC010E947B37C9
:102890006115710521E08207910520F06FEF7FEF50
:1028A00080E090E0CB010BC0F80125E1C29FE00D74
:1028B000F11D11248785908902C090E080E0CF91BE
:1028C0001F910F91FF90EF900895653048F425E136
:1028D000629F800D911D1124FC01878590890895C8
:1028E00090E080E00895CF92DF92EF92FF92653002
:1028F000F8F470E0A5E1A69FF001A79FF00D112468
:10290000E80FF91FC780D084E184F284C216D30691
:10291000E406F50669F0A69FF001A79FF00D1124CB
:10292000E80FF91F27833087418752870E94A01341
:10293000FF90EF90DF90CF900895653058F425E137
:10294000629F800D911D1124FC0167817085818536
:102950009285089560E070E0CB010895CF93DF93F6
:10296000653090F4EC0170E085E1869FF001879F6F
:10297000F00D1124EC0FFD1F8581968184179507BA
:1029800031F4CE010E94A013DF91CF91089585E12B
:10299000869FF001879FF00D1124EC0FFD1F5683D9
:1029A0004583CE010E94A013ECCF653048F425E1A9
:1029B000629F800D911D1124FC01858196810895EF
:1029C00090E080E00895653040F425E1629F800D3D
:1029D000911D1124FC018481089580E008956530E3
:1029E000B8F470E025E1269FF001279FF00D112437
:1029F000E80FF91F2381241759F025E1269FF001E4
:102A0000279FF00D1124E80FF91F43830E94A013A4
:102A10000895653040F425E1629F800D911D1124D9
:102A2000FC018381089580E008956530B8F470E07A
:102A300025E1269FF001279FF00D1124E80FF91FD3
:102A40002281241759F025E1269FF001279FF00DE0
:102A50001124E80FF91F42830E94A01308956530E6
:102A600040F425E1629F800D911D1124FC018281BB
:102A7000089580E00895FC01E559FF4F20813181E0
:102A80002617370721F0718360830E94A0130895F1
:102A900085599F4FFC01808191810895FC01E35984
:102AA000FF4F2081261719F060830E94A01308951C
:102AB00083599F4FFC0180810895FC0171836083DD
:102AC000E359FF4F108282599F4FFC0110820895F5
:102AD000FC0102C0FB01B9019B0121503109672BA8
:102AE000C9F0BF016F5F7F4F808190E0982F8827EA
:102AF0004827592780E007C0440F551F91E2492716
:102B000090E159278F5F883028F75523ACF3440FA5
:102B1000551FF8CFCA010895CB014FEF5FEF6CE668
:102B200070E00E9468150895EF92FF920F931F9333
:102B3000CF93DF9300D000D000D01F92CDB7DEB787
:102B4000FC01E259FF4F20812223D1F18C011F8229
:102B50001E8285EA95EADC0189839A83AB83BC8374
:102B600081E08D83780182E0E80EF11CB701C80195
:102B70000E948C159F838E83D8018D919C91DC01DE
:102B8000ED91FC910284F385E02D2CE630E0A70165
:102B900067E070E00995F80180819181DC01ED9199
:102BA000FC910284F385E02D27E030E0AE014F5F19
:102BB0005F4F70E060E00995F801E259FF4F108225
:102BC00027960FB6F894DEBF0FBECDBFDF91CF9131
:102BD0001F910F91FF90EF900895CF93DF93EC0139
:102BE000BC016E5F7F4F0E945213FE01E259FF4FFE
:102BF00081E08083CE010E949415DF91CF910895EA
:102C0000CF93DF93EC0188819981DC01ED91FC91F8
:102C10000084F185E02D2FEF43E750E070E060E0A5
:102C20000995CE010E94ED15DF91CF910895EF92A5
:102C3000FF920F931F93CF93DF93CDB7DEB7C357A8
:102C4000D1090FB6F894DEBF0FBECDBF8C01DC01F9
:102C50008D919C91DC01ED91FC910480F581E02D3A
:102C6000099519821A821B821C821D821F821E8274
:102C7000F80180819181DC01ED91FC910484F5855E
:102C8000E02D27E030E0AE014F5F5F4F70E060E085
:102C9000099589819A81AB81BC81853A954AA54A7B
:102CA000B54A41F58D81813029F57E01F8E0EF0EBE
:102CB000F11C8CE6D7011D928A95E9F7F801808115
:102CC0009181DC01ED91FC910484F585E02D2CE6E9
:102CD00030E0A70167E070E00995B701C8010E94E4
:102CE0008C152E813F8182179307A9F0C8010E949D
:102CF000ED1503C0C8010E94ED15CD58DF4F0FB68A
:102D0000F894DEBF0FBECDBFDF91CF911F910F9121
:102D1000FF90EF9008958CE6FE013896D801129648
:102D200001900D928A95E1F7F801E259FF4F108268
:102D3000E4CFEF92FF920F931F93CF938C01DC01AE
:102D40008D919C910E9448157C01992314F4C0E058
:102D500019C0BC01F801828193810E94890E8823E9
:102D6000B1F3B701D80112968D919C910E945B0D31
:102D7000882369F3B701F801828193810E94670D6E
:102D8000E6CFCF5FC53088F56C2FD8018D919C912F
:102D90000E94D5147C019923A4F36C2FF801808143
:102DA00091810E94E3148111ECCF6C2FD8018D9199
:102DB0009C910E942F15882321F3B701F80182818D
:102DC00093810E94890E8823E1F2B701D8011296FF
:102DD0008D919C910E945B0D882399F2B701F801B7
:102DE000828193810E94670DCCCFD8015A966D9154
:102DF0007C915B9777238CF4F801608D718D77233C
:102E000034F0828193810E94890E811131C0CF916B
:102E10001F910F91FF90EF90089512968D919C91C4
:102E20000E94890E882341F3F801628D738D82819F
:102E300093810E945B0D8823F9F2D8015A966D9117
:102E40007C915B9712968D919C910E94670DF80181
:102E50008589882389F284819581DC01ED91FC913B
:102E60000284F385E02DD80157966C910995C4CF63
:102E7000D80158966D917C91599712968D919C919D
:102E80000E945B0D882319F2F801608D718D82819B
:102E900093810E94DF0CD80158966D917C915997CF
:102EA00012968D919C910E94670DF8018589882367
:102EB00009F4ADCF84819581DC01ED91FC91028410
:102EC000F385E02DD80157966C910995F80184811E
:102ED0009581DC01ED91FC910680F781E02D09954B
:102EE00096CFEF92FF920F931F93CF938C01DC014B
:102EF0008D919C910E9448157C01992314F4C0E0A7
:102F000019C0BC01F801828193810E94890E882337
:102F1000B1F3B701D80112968D919C910E945B0D7F
:102F20008111EDCFB701F801828193810E94080ED3
:102F3000E6CFCF5FC53008F56C2FD8018D919C91FD
:102F40000E94D5147C019923A4F3BC01F80182816D
:102F500093810E94890E882361F3B701D8011296EC
:102F60008D919C910E945B0D8111E3CFB701F80117
:102F7000828193810E94080EDCCFD8015A966D9110
:102F80007C915B97772314F5F801608D718D772321
:102F9000C4F5F8018589882399F084819581DC0145
:102FA000ED91FC910084F185E02D0995F801848173
:102FB0009581DC01ED91FC910484F585E02D099566
:102FC000CF911F910F91FF90EF90089512968D91E0
:102FD0009C910E94890E8823B9F2F801628D738D4D
:102FE000828193810E945B0D8111CECFD8015A96C8
:102FF0006D917C915B9712968D919C910E94080E29
:10300000C3CF828193810E94890E882311F2D80157
:1030100058966D917C91599712968D919C910E9432
:103020005B0D8111B6CFF801608D718D8281938126
:103030000E94DF0CD80158966D917C915997129699
:103040008D919C910E94080EA4CF1F93CF93DF9384
:10305000EC01162F8C819D81DC01ED91FC910084A7
:10306000F185E02D09958C819D81DC01ED91FC912C
:103070000484F585E02D099540E0612F88819981D0
:103080000E94EF141D8A688D798D772384F46A8DF0
:103090007B8D772344F08A819B810E94950E8FEF70
:1030A0009FEF9B8F8A8FDF91CF911F9108958A8127
:1030B0009B810E94950E8FEF9FEF998F888FE7CFAE
:1030C000EF92FF920F931F93CF93DF93EC01162F94
:1030D000888199810E945815882339F0612F888151
:1030E00099810E942F1581110BC0612FCE010E9482
:1030F0002518DF91CF911F910F91FF90EF900895C8
:10310000612F888199810E9432147C018C819D817C
:10311000DC01ED91FC910680F781E02D0995EDE849
:10312000F5E0D183C0831283A70170E060E08F01D6
:1031300021EA38E18A819B810E941A11998F888F38
:10314000D8CF0F931F93CF93DF938C01FC01C081E5
:10315000D1818FEF9FEF998F888F888199810E940D
:103160005815882351F0F8016281CE010E9425187C
:10317000DF91CF911F910F910895F8016281CE01E7
:103180000E942518F5CF0F931F93CF93DF938C01E7
:10319000FC01C081D1818FEF9FEF9B8F8A8F888147
:1031A00099810E945815882351F0F8016281CE015F
:1031B0000E946018DF91CF911F910F910895F8013F
:1031C0006281CE010E942518F5CFEF92FF920F93F6
:1031D0001F93CF93DF93EC01162F888199810E9472
:1031E00058158823C1F1612F888199810E942F157C
:1031F000882389F18D89811134C081E08D8B1F8BEB
:103200008C819D81DC01ED91FC910284F385E02DA0
:10321000612F0995EAE8F5E0D183C0831283E88045
:10322000F980612FC7010E94C813AC014F5F5F4F47
:10323000612FC7010E94A6130AE815E023EC38E1CC
:1032400044EF51E060E070E08A819B810E941A1196
:103250009B8F8A8F06C040E0612F888199810E94F0
:10326000EF14DF91CF911F910F91FF90EF90089590
:103270000F931F93CF93DF938C01FC01C081D18109
:10328000888199810E945815811105C0DF91CF91E5
:103290001F910F910895F8016281888199810E94A0
:1032A0002F15882399F341E0F80162818881998183
:1032B0000E94EF14EBCF0F931F93CF93FC0100817B
:1032C0001181F801808191810E9458158823D1F0E5
:1032D000C0E001C0CF5FC530A8F46C2FF801808139
:1032E00091810E942F158823A9F36C2FF80180810A
:1032F00091810E940915882369F36C2FC8010E94EF
:10330000E518E8CFCF911F910F9108954F925F92EA
:103310006F927F92BF92CF92DF92EF92FF920F93C4
:103320001F93CF93DF937C01FC01808191810E94E8
:103330005815B82EF70186898B1539F0B11007C0E2
:10334000C7010E947117F701B68AC0E008C0C70123
:103350000E949916F8CFDD200CF05DC0CF5FC5301C
:1033600008F068C0F701008111816C2FC8010E942C
:103370002F15D82F6C2FC8010E94D5146C016C2F0B
:10338000C8010E94E3148111E6CFDD2321F36C2FE5
:10339000C8010E949D149B01AC01A8EEB3E00E94FD
:1033A0008A372B013C01DD208CF0B601F7018281C8
:1033B00093810E945B0D8111D1CFA3019201B601CF
:1033C000F701828193810E94F10FC8CF8C2F90E08A
:1033D0008C01000F111F080F191F0A5F1F4F0E0DE0
:1033E0001F1D28E339E1B301A201F7018281938116
:1033F0000E9428118C01AC016C2FF7018081918112
:103400000E94AE14B110AACFB801F7018281938156
:103410000E94080EA3CFB601F701828193810E941A
:10342000950E4FEF5FEF6C2FF701808191810E9425
:10343000AE1494CFDF91CF911F910F91FF90EF9039
:10344000DF90CF90BF907F906F905F904F900895E6
:10345000EF92FF920F931F93CF937C01DC011496A0
:103460008D919C91DC01ED91FC910480F581E02D22
:103470000995F0928805E092870507E815E02BE5AD
:1034800039E148EE53E060E070E0F701828193811A
:103490000E942811BC01D7018D919C910E943B157F
:1034A000C0E0C53050F44FEF5FEF6C2FF701808123
:1034B00091810E94AE14CF5FF4CFD7018D919C9182
:1034C0000E945815F701868BCF911F910F91FF90A5
:1034D000EF900895DC0111967C936E9313965C93A4
:1034E0004E93129715963C932E93149755961C92D3
:1034F000559781E056968C93569757961C925797FE
:103500008FEF9FEF59969C938E9358975B969C9361
:103510008E935A9790E0953070F4292F30E0F9019E
:10352000EE0FFF1FE20FF31FEA0FFB1FB783A68307
:1035300090879F5FF0CF089508950895CF93C0E0DE
:10354000C53038F460E084E08C0F0E94A708CF5F9C
:10355000F7CFCF910895CF93DF93653078F4D62FCE
:10356000C0E006C061E084E08C0F0E94A708CF5F36
:10357000C53020F4CD17B1F360E0F5CFDF91CF91E6
:10358000089560E089E00E94A708089561E089E05D
:103590000E94A7080895CF93DF93C0E0C53060F480
:1035A000D4E0DC0F61E08D2F0E943A0960E08D2F9E
:1035B0000E94A708CF5FF2CF61E089E00E943A093C
:1035C00060E089E00E94A708DF91CF9108950895F7
:1035D0000895089508950895089508950895089503
:1035E000FC01848188234CF0662341F061E070E0A7
:1035F000082E000C990B0E947411089570E060E091
:10360000F7CFCF93DF93EC010E94AE118C8188231A
:103610003CF060E0CE010E94F01ADF91CF91089556
:1036200060E0CE010E94B711F8CFAF92BF92CF9267
:10363000FF920F931F93CF93DF935C01EB01C42E96
:103640000E94011BF12C0FEF11E008C064EF71E044
:1036500080E090E00E94EA0A11E0F394FC1440F547
:10366000FE01EF0DF11D6491112371F01F3F31F444
:103670006F3F61F370E090E080E0ECCFC5010E9405
:10368000B7110FEF10E0E9CF002334F4662364F0A4
:1036900061110CC011E0E1CF0150C5010E94B711CA
:1036A0000111DBCF11E0D9CF162FD7CF062FD5CF01
:1036B000C5010E94A911DF91CF911F910F91FF9039
:1036C000CF90BF90AF900895CF93DF93EC016AE065
:1036D0008F890E94771180E890E09B838A8380E441
:1036E00090E09D838C8360E070E0CB010E94EA0A49
:1036F00049E264EF7DE08D899E890E94151BDF9170
:10370000CF910895CF93DF93EC0148960E94E0118A
:10371000CE010E94641BDF91CF9108950E94A911F0
:103720000895EF92FF920F931F93CF93DF93EC01D5
:10373000162F042F79010E94011B61E2CE010E9425
:10374000B711612FCE010E94B711E114F10451F1BC
:10375000612F6E0D6150CE010E94B71162E2CE0161
:103760000E94B711602FCE010E94B711ED81FE813A
:10377000628173817695679576956795769567955D
:103780006150CE010E94B7118C81882384F061E0E2
:10379000CE010E94F01ADF91CF911F910F91FF90FF
:1037A000EF900895ED81FE8160816150D4CFCE010C
:1037B0000E94A911CE010E94AE1160E4CE010E94C8
:1037C000B711E9CFCF92DF92EF92FF920F931F9341
:1037D000CF93DF938C01FC01E784F088E62630E08C
:1037E00020E050E040E070E060E0838994890E942E
:1037F000911BF801C280D380D694C794D694C79405
:10380000D694C79403C0F1E0CF1AD108C114D104F3
:1038100069F0F801C081D1812097A9F36E2DF801DC
:10382000838994890E94B7112197F6CFF801838983
:1038300094890E948E1BDF91CF911F910F91FF9071
:10384000EF90DF90CF9008952F923F924F925F922A
:103850006F927F928F929F92AF92BF92CF92DF92A0
:10386000EF92FF920F931F93CF93DF9300D000D07E
:1038700000D0CDB7DEB77C01562E690148016E83BA
:103880005A01B594A794B594A794B594A794DC0174
:103890002D913C911197662E772E26193709A50197
:1038A000B30153968D919C910E94911B412C212C28
:1038B00010E0F701808191810188F289E02D21815A
:1038C000821B91095816190609F030F4D601A10F90
:1038D000B11D8C91811132C02FEFA21AB20AD7010B
:1038E00012968D919C91969587959695879596952C
:1038F0008795A816B9060CF08EC043948581841173
:1039000009C0F601E10FF11D8081882309F483C00D
:10391000212E412CF701838994890E948E1BD701A7
:103920002D913C91119726193709A501B3015396A2
:103930008D919C910E94911B5E80122DF601E10FEA
:10394000F11D80810E9404121F5F8F3F9807B1F321
:10395000AE014F5F5F4FBC01F701818992890E94E0
:103960004B1209818B81800F580E9A81242D30E0F3
:10397000A901440F551F440F551F440F551F94179D
:10398000150609F074F48B8300E08B81081708F0AA
:1039900090CFF7016785838994890E94B7110F5FE3
:1039A000F4CF029FA001039F500D11248C819D81B3
:1039B000840F951F9D838C83312C1DC0F1E08F16E1
:1039C000910411F1EC81FD813196E4916E2F607FBD
:1039D0006329EF703E2ED7011F96EC911F976E273B
:1039E00053968D919C910E94B7118C819D81019677
:1039F0009D838C830150002339F281149104F1F6E8
:103A0000EC81FD816491E7CFEC81FD81E491632D30
:103A10006E2B3E2EE0CFD70153968D919C910E9444
:103A20008E1B26960FB6F894DEBF0FBECDBFDF917A
:103A3000CF911F910F91FF90EF90DF90CF90BF90AB
:103A4000AF909F908F907F906F905F904F903F903E
:103A50002F9008952F923F924F925F926F927F9294
:103A60008F929F92AF92BF92CF92DF92EF92FF928E
:103A70000F931F93CF93DF936C015901242F27706D
:103A8000722EC801840F951F181619060CF0C8C0B5
:103A9000F60182819381481759070CF0C1C0950146
:103AA000260F371F121613060CF0BAC0A081B18181
:103AB0006A177B070CF0B4C055230CF446C0612C88
:103AC00077230CF45CC04501980127193109215F67
:103AD0003F4F2901569447945694479456944794DF
:103AE000EA019A01200F311F8217930718F48C0105
:103AF000041B150BF62FE72FCB01880D991DA81776
:103B0000B90718F44D01861A970A0C0F1D1F0150B2
:103B100011091695079516950795169507955595CC
:103B200047955595479555954795302E341A3394BA
:103B300094016F2F7E2FF601838994890E94911B37
:103B400010E000E02224239459C027E030E0241B39
:103B5000350B3695279536952795369527952A9DC9
:103B6000F0012B9DF00D3A9DF00D1124EE0EFF1E7D
:103B7000040F151F6624639450E040E0A1CFE61ABD
:103B8000F70A4B018A0C9B1C70E060E09DCF81E03E
:103B9000711080E0282E3DC0622D16C0FFEFEF1A95
:103BA000FF0AF60187856827838994890E94B711E7
:103BB00021972097D9F0222079F3F7016491072CFF
:103BC00001C0660F0A94EAF7662041F3F701EA198B
:103BD000FB09E491F0E088E090E08719910902C0C8
:103BE000F595E7958A95E2F76E2BD8CFC501881930
:103BF0009909E80EF91E0F5F1F4F672C301611064A
:103C000051F048F0242D2150330B2017310709F4CF
:103C1000BECFE401CECFF601838994890E948E1B2A
:103C2000DF91CF911F910F91FF90EF90DF90CF9098
:103C3000BF90AF909F908F907F906F905F904F90CC
:103C40003F902F90089570E060E00E94E21B08957D
:103C50002F923F924F925F926F927F928F929F929C
:103C6000AF92BF92CF92DF92EF92FF920F931F938A
:103C7000CF93DF9300D000D000D0CDB7DEB7865A07
:103C80009F4F1C01DC010D911C91F801878185FD7E
:103C90008CC423813481C90191708436910509F463
:103CA0009CC0B8F482329105B1F148F4813091059D
:103CB00009F47AC0409751F580E190E02EC081343C
:103CC000910509F474C08035910501F580E890E014
:103CD00024C0883E910509F461C050F4813C9105EF
:103CE00009F468C0803D910589F480E092E015C038
:103CF0008035F1E09F0709F454C0803D41E094070E
:103D000009F44FC08031914009F44BC033FD55C0D8
:103D100090E080E002C081E090E08031910509F4FC
:103D200053C108F45DC08034910509F43EC4811587
:103D3000984009F089C4F101828193810E94941511
:103D4000D10114968D919C910E948619F101808D6C
:103D5000918D8530910509F083C60088F189E02DA9
:103D60001086D1015096ED91FC91519712861186E3
:103D700081E090E059969C938E93589718968D9178
:103D80009C91199757969C938E935697DC01ED91D1
:103D9000FC910480F581E02D099556C484E090E003
:103DA000BCCF88E090E0B9CF80E290E0B6CF80E071
:103DB00091E0B3CF80E094E0B0CF0E94DC0CF8013A
:103DC00021813281621B730B60367A4E18F490E0C9
:103DD00080E0A3CF80E098E0A0CF82E090E09DCF8C
:103DE000029709F031C4D10158968D919C91599751
:103DF00083309105A9F08230910509F04FC081E030
:103E000090E0F101918F808F80859185978B868BD3
:103E1000DC01ED91FC910480F581E02D099514C43D
:103E20001C96ED91FC911D978185811116C082E051
:103E300090E059969C938E9358971A968D919C91E9
:103E40001B9757969C938E935697DC01ED91FC91AE
:103E50000480F581E02D0995F7C3F10182819381FA
:103E60000E949415D10114968D919C910E948619FF
:103E7000D1011C96ED91FC911D9711861C968D9198
:103E80009C911D9757969C938E935697DC01ED91CC
:103E9000FC910480F581E02D0995D6C38130910510
:103EA00009F4D2C38430910589F481E090E0F101F6
:103EB000918F808F80859185978B868BDC01ED912A
:103EC000FC910480F581E02D0995BEC385309105F4
:103ED00009F55096ED91FC91519710865096ED9111
:103EE000FC9151971286118684E090E059969C933C
:103EF0008E9358971E968D919C911F9757969C93E1
:103F00008E935697DC01ED91FC910480F581E02DB4
:103F100009959AC386309105A9F5F10102891389A3
:103F2000D80114968D919C91DC01ED91FC91048453
:103F3000F585E02D0995F80184819581DC01ED91ED
:103F4000FC910084F185E02D0995F80116828185A8
:103F500092859087878384E090E0D10159969C9365
:103F60008E9358971E968D919C911F9757969C9370
:103F70008E935697DC01ED91FC910480F581E02D44
:103F8000099562C3079779F0F101118E108E868131
:103F90009781978B868BDC01ED91FC910480F581F4
:103FA000E02D099551C384E090E0F101918F808F5D
:103FB00086859785978B868BDC01ED91FC9104803B
:103FC000F581E02D099540C3F101808D918D009719
:103FD000D1F481E090E0918F808F0084F185E02D15
:103FE00015821482D10118968D919C91199757963C
:103FF0009C938E935697DC01ED91FC910480F581A2
:10400000E02D099521C38130910599F18230910508
:1040100009F08AC083E090E0918F808F24853585F8
:10402000A285B38514968D919C91D90117969C9386
:104030008E9316970484F585E02D1086D1011C9689
:10404000ED91FC911D9711861C96ED91FC911D97A9
:1040500012861C968D919C911D9757969C938E93DA
:104060005697DC01ED91FC910480F581E02D0995D6
:10407000EBC2D1010084F185E02D84819581009708
:10408000E9F081309105A1F582E090E0F101918F96
:10409000808F0284F385E02D158214821A968D910B
:1040A0009C911B9757969C938E935697DC01ED91AC
:1040B000FC910480F581E02D0995C6C2668181E0FE
:1040C0006827668312968D919C910E944E15F1018E
:1040D000848195810E948619D10118968D919C91B9
:1040E000DC01ED91FC910480F581E02D0995ACC2D5
:1040F000029709F0A9C284E090E0F101918F808FCE
:104100000684F785E02D14821E968D919C911F9751
:1041100057969C938E935697DC01ED91FC91048009
:10412000F581E02D099590C28330910509F443C0D3
:104130008430910509F4A8C08530910509F407C1C0
:104140008630910509F4D1C1079709F07DC2D101EC
:104150000488F589E02D84818823B1F012968D9131
:104160009C910E940016F101848195810E9486191C
:10417000D10118960D911C91199712968D919C91D1
:104180000E945815F801868384E090E0D101599689
:104190009C938E9358971E968D919C911F9757963E
:1041A0009C938E935697DC01ED91FC910480F581F0
:1041B000E02D099549C20484F585E02D868197811B
:1041C00065E070E00E943F37F82E8185811146C07E
:1041D00080858823A9F0813089F582E08187D1012B
:1041E0001C96ED91FC911D9712861C968D919C91C9
:1041F000DC01ED91FC910480F581E02D099524C24C
:10420000F101028113816F2DC8010E942F1541E039
:1042100048276F2DC8010E941515D10114968D9164
:104220009C910E948619F10184859585DC01ED91B0
:10423000FC910480F581E02D099506C2823009F0D9
:1042400003C283E08187F10184859585DC01ED91CE
:10425000FC910480F581E02D0995F6C1823009F0CA
:10426000F3C1828590E0019663E070E00E943F37E1
:104270008287F10184859585DC01ED91FC910480B4
:10428000F581E02D0995E0C1D1010684F785E02D87
:1042900084818130E9F1E8F0833009F0D5C187E00D
:1042A00090E0F101918F808F0488F589E02D81E005
:1042B000848354968D919C91559757969C938E9399
:1042C0005697DC01ED91FC910480F581E02D099574
:1042D000BBC186E090E0F101918F808F0288F38965
:1042E000E02D16825296ED91FC915397108617821D
:1042F00052968D919C91539757969C938E93569777
:10430000DC01ED91FC910480F581E02D09959CC1C3
:1043100085E090E0F101918F808F0088F189E02D98
:10432000128611865096ED91FC9151971086509609
:104330008D919C91519757969C938E935697DC0143
:10434000ED91FC910480F581E02D09957DC10089F6
:104350001189D80118962C91189719968D919C91D6
:1043600065E070E00E943F37F82E21110FC081E018
:10437000F8018087D10150968D919C91DC01ED91DF
:10438000FC910480F581E02D09955EC12130A1F0FA
:10439000223009F448C0233009F056C1F8011086D4
:1043A000D10150968D919C91DC01ED91FC9104809E
:1043B000F581E02D099548C182E0F80180870E94CF
:1043C000220BD8011B966D937D938D939C931E9722
:1043D000F8011786108A118A128A55961D921D922D
:1043E0001D921C92589716968D919C91DC01ED912F
:1043F000FC910284F385E02D6F2D0995F8018681EB
:104400009781DC01ED91FC910680F781E02D099503
:10441000F10180899189DC01ED91FC910480F581A5
:10442000E02D099511C10E94220BF801C384D484A8
:10443000E584F6846C197D098E099F096787708B66
:10444000818B928B86819781DC01ED91FC910484B4
:10445000F585E02D0995F80186819781DC01ED91C4
:10446000FC910084F185E02D0995F801678570893C
:1044700081899289611571058105910539F124E6DB
:1044800030E040E050E00E945337D80154963C930E
:104490002E935397232B31F481E090E054969C9314
:1044A0008E935397F12CB4E0BF1550F0F801438977
:1044B00054896F2D848195810E94DC13F394F3CF8E
:1044C000D80114968D919C910E94941583E0F80177
:1044D0008087D10150968D919C91DC01ED91FC91EA
:1044E0000480F581E02D0995AFC002891389D801B8
:1044F00016968C911697882331F1F8018481958165
:10450000DC01ED91FC910484F585E02D0995F8011D
:1045100084819581DC01ED91FC910084F185E02D91
:104520000995F80116828185928590878783D1014C
:1045300052968D919C91DC01ED91FC910480F58166
:10454000E02D099581C081E016968C9316971796F9
:104550008D919C9118971A969C938E931997F801B8
:10456000138614861586168684819581DC01ED916B
:10457000FC910484F585E02D0995F80184819581ED
:10458000DC01ED91FC910284F385E02DD8011996B0
:104590006C910995F80184819581DC01ED91FC9184
:1045A0000680F781E02D0995C2CFF101808D918DB4
:1045B0008130910539F18230910509F460C0843071
:1045C000910509F481C08530910509F4A9C08630B0
:1045D000910509F4CFC08730910509F000C1D101E0
:1045E0000488F589E02D848191E08927848354969D
:1045F0008D919C91DC01ED91FC910480F581E02D81
:10460000099522C00190F081E02D878184FD35C09D
:104610002FEFD1011896ED91FC9184819581821B39
:10462000910927FD9395039663E070E00E943F3760
:1046300095838483F10180859185DC01ED91FC9166
:104640000480F581E02D099526960FB6F894DEBF1B
:104650000FBECDBFDF91CF911F910F91FF90EF90D3
:10466000DF90CF90BF90AF909F908F907F906F9092
:104670005F904F903F902F90089521E0CACF019016
:10468000F081E02D878184FD1DC02FEFD1011A96A6
:10469000ED91FC9184819581821B910927FD939571
:1046A000059665E070E00E943F3795838483F101B1
:1046B00082859385DC01ED91FC910480F581E02DEC
:1046C0000995C2CF21E0E2CF0190F081E02D8781F2
:1046D00084FF1FC021E0D1011E96ED91FC918481E1
:1046E00090E0821B910927FD939504968370907842
:1046F00099238CF0843008F083E08483F10186856F
:104700009785DC01ED91FC910480F581E02D099500
:104710009BCF2FEFE0CF01978C6F9F6F0196EACF71
:10472000D1010088F189E02D8085813009F08CCF9E
:104730008D919C91DC0117968C9184FD19C02FEF0F
:1047400081859285821B910927FD9395059665E0E9
:1047500070E00E943F3792878187F10180899189BB
:10476000DC01ED91FC910480F581E02D09956CCF81
:1047700021E0E6CFD1010288F389E02D8681811105
:1047800063CF2D913C91D90117969C9194FF19C04C
:1047900091E09923C4F0813049F087819085049697
:1047A00065E070E00E943F3790878783F10182893E
:1047B0009389DC01ED91FC910480F581E02D099550
:1047C00043CF9FEFE6CF813089F3878190850196B3
:1047D00065E070E00E943F3790878783E7CF0397BB
:1047E00009F032CF0484F585E02D8681978165E05C
:1047F00070E00E943F37082FD1018D919C91DC0120
:1048000017968C9184FF1BC011E08185811119C01E
:10481000808590E0811B910917FD9395039663E0D5
:1048200070E00E943F378087F10184859585DC0127
:10483000ED91FC910480F581E02D099505CF1FEFE6
:10484000E4CF813061F1823009F447C0833009F050
:10485000FBCE602FF101828193810E942414AC0170
:10486000FBEF1F02400D511D112455230CF4F2C023
:10487000453F21E052070CF0F0C0602FD1011296A5
:104880008D919C910E940714F10184859585DC012E
:10489000ED91FC910480F581E02D0995D5CEF101D3
:1048A000E280F380602FC7010E942F1541E0482766
:1048B000602FC7010E941515D10114968D919C910E
:1048C0000E948619F10184859585DC01ED91FC91AA
:1048D0000480F581E02D0995B7CE602FF10182812A
:1048E00093810E949D146B017C010F2EFCE34F2EDF
:1048F000512C612C712CF02DA30192010E94533791
:1049000029833A834B835C83C701B60120E831E5F4
:1049100041E050E00E9453374901E22EF92C6981B1
:104920007A818B819C8120EA35E040E050E00E9452
:104930005337A30192010E945337422F562FD101C2
:104940001C96ED91FC91928591115EC0812F110F03
:10495000990BF401E81BF90BCF010AF44FC0833423
:10496000FEE09F070CF04DC0E82EF92ED101129603
:10497000ED91FC91483108F047E15C3308F05BE3CE
:104980002E2D3F2DA0EAB5E00E947B376B017C0104
:10499000242F30E0ACE3B0E00E947B37C60ED71E78
:1049A000E81EF91ED701C601850F911DA11DB11D7D
:1049B0009C01AD01211531054105510521F421E08E
:1049C00030E040E050E0ACE3B0E00E948A379B0169
:1049D000AC01602FCF010E947314D10114968D9108
:1049E0009C910E948619F10184859585DC01ED91E9
:1049F000FC910480F581E02D099526CE90E080E0C1
:104A0000B3CF82E49EE0B0CF913069F0862F90E082
:104A1000811B910917FD93959923BCF08C33910567
:104A2000BCF4582FA3CF822F90E0811B910917FD72
:104A3000939599232CF0883191052CF4482F96CF2B
:104A400087E190E0FBCF80E0F9CF8BE390E0E9CF06
:104A500080E0E7CF50E040E010CF44EF51E00DCFD1
:104A60008630910591F502891389D80114968D91AC
:104A70009C91DC01ED91FC910484F585E02D099574
:104A8000F80184819581DC01ED91FC910084F18530
:104A9000E02D0995F801168281859285908787839C
:104AA000D10159961C921E92589716968D919C9101
:104AB000179757969C938E935697DC01ED91FC9136
:104AC0000480F581E02D0995BFCD0797B9F0118ECF
:104AD000108E0484F585E02D1186D10116968D91F6
:104AE0009C91179757969C938E935697DC01ED9166
:104AF000FC910480F581E02D0995A6CD118E108ED4
:104B000086819781978B868BDC01ED91FC910480E7
:104B1000F581E02D099598CD80916603909167030A
:104B2000009711F00E94281E08952F923F924F92F5
:104B30005F926F927F928F929F92AF92BF92CF922D
:104B4000DF92EF92FF920F931F93CF93DF93FC01BD
:104B50007183608353834283358324831783068361
:104B6000F186E086D386C2868C01045F1F4F8EE8F3
:104B700091E095878487F786E6865F0180E1A80E3D
:104B8000B11C82E891E0918B808BF38AE28A158ACE
:104B9000148A168A4F0187E1880E911C86E791E0FE
:104BA000908F878BF28EE18E148E138E3F018DE1F4
:104BB000680E711C8AE691E0968F858FF0A2E78ED1
:104BC00052A341A314A213A215A216A217A22F0149
:104BD00088E2480E511C8EE591E091A780A7F3A6CC
:104BE000E2A614A61F018DE2280E311C82E591E099
:104BF00096A785A7F0AAE7A652AB41ABD4AAC3AA51
:104C000015AA17AA16AA10AE11AE12AE13AE14AEA4
:104C100015AE16AE17AEDF01A05CBF4F11961C9209
:104C20001E9212961D921D921D921C92139714961D
:104C300086E491E011969C938E931396FC92EE92EB
:104C400012971596DC92CE92149716961C92169790
:104C500018961C921E9217971A961C921E921997DC
:104C60001B961D921D921D921C921E97EF01CB5A0E
:104C7000DF4F8AE391E099838883FB82EA8281E0B7
:104C80008C83E65AFF4F718360835383428335835D
:104C9000248317830683B186A086938682867586D1
:104CA000648657864686318A208AB38BA28BD58B41
:104CB000C48B178B068B118E108EDF91CF911F91B5
:104CC0000F91FF90EF90DF90CF90BF90AF909F90AB
:104CD0008F907F906F905F904F903F902F900895AE
:104CE000FC018281938102960E94231E08950F93F6
:104CF0001F93CF93DF93EC018A819B8102960E94E0
:104D0000231E0A811B816FEA7BE083E995E00E9404
:104D1000511283E995E0F801948B838B8A819B8102
:104D200010E000E022EC31E040E150E068E170E0AA
:104D300002960E94241C8C8181111DC08A819B8156
:104D400010E000E02BED31E048E250E068E170E077
:104D500002960E94241C8A819B812FED31E048E25B
:104D600050E06CE470E002960E94241CDF91CF9129
:104D70001F910F9108958A819B8120ED31E048E2D7
:104D800050E068E170E002960E94241C8A819B81B9
:104D900026ED31E048E250E06CE470E002960E94BB
:104DA000241CE4CFFC018281938102960E94231E81
:104DB0000895FC018281938102960E94231E08952A
:104DC000FC018281938102960E94231E0895FC01BA
:104DD0008281938102960E94231E0895FC018281A4
:104DE000938102960E94231E0895FC018281938183
:104DF00002960E94231E0895CF92DF92EF92FF92B7
:104E00000F931F93CF93DF93EC018A819B810296CE
:104E10000E94231E8E81CC80DD80882309F457C038
:104E20008A819B810296C114D10409F049C00F2EDA
:104E3000FAE7EF2EF3E0FF2EF02D08E110E028E175
:104E400030E044E150E06AE070E00E942A1D8A816F
:104E50009B81029621E0C216D10409F456C00F2EA0
:104E6000F2E1EF2EF2E0FF2EF02D08E110E028E154
:104E700030E044E150E062E370E00E942A1D8A8144
:104E80009B81029622E0C216D10409F445C00F2E80
:104E9000F2E8EF2EF1E0FF2EF02D08E110E028E11E
:104EA00030E044E150E06AE570E00E942A1DDF91A5
:104EB000CF911F910F91FF90EF90DF90CF900895C9
:104EC0000F2EF2E3EF2EF3E0FF2EF02DB6CF8A8106
:104ED0009B810296C114D10489F40F2EFAEEEF2EB5
:104EE000F2E0FF2EF02D08E110E028E130E044E18F
:104EF00050E06AE070E00E942A1DA9CF0F2EF2EA6E
:104F0000EF2EF2E0FF2EF02DEECF0F2EFAE5EF2E72
:104F1000F2E0FF2EF02DA9CF0F2EFAECEF2EF1E0EC
:104F2000FF2EF02DBACFFC018281938102960E9460
:104F3000231E0895EF92FF920F931F93CF93DF9359
:104F4000EC018A819B8102960E94231E8A819B81AB
:104F50000F2EF8E6EF2EF0E0FF2EF02D0FE210E01E
:104F60002FE230E048E050E068E270E002960E94F4
:104F70002A1DDF91CF911F910F91FF90EF9008951F
:104F80000F931F93CF93DF93EC0126E040E855E2A7
:104F900060E070E082EA95E00E94DF0B8A819B81ED
:104FA0000E9417168C819D810E94281A8C819D81F8
:104FB0000E94861988859985DC01ED91FC9101900C
:104FC000F081E02D0995088519856FEA7BE083E97A
:104FD00095E00E94511283E995E0F801948B838B50
:104FE000D0936703C0936603E881F9818CE895E26A
:104FF000968385838A819B810E9458158E8BCE0172
:105000000C960E949A27DF91CF911F910F910895DE
:1050100088E693E00E94C02764EF71E080E090E0B2
:105020000E94EA0A089585ED8093BC0040919B069A
:1050300050919C0660919D0670919E06495F5F4F5E
:105040006F4F7F4F689412F87695679557954795FF
:105050001694D1F78091BC0084FF1FC080919B06FD
:1050600090919C06A0919D06B0919E06892B8A2B5B
:105070008B2B81F3411551056105710549F08AE2D9
:105080008A95F1F700C04150510961097109E2CFD9
:1050900080919A060E94060908951092E8060895E4
:1050A0000E94453808950E94502808950E94502873
:1050B00008950E94502808950E94502808950E9443
:1050C000502808950E94502808950E94502808955D
:1050D0000E94502808950E94502808950E94502848
:1050E0000895613009F45AC020F0623009F42DC0EF
:1050F000089590E09C01215B314FF9015491855C4A
:10510000914FFC014491E42FF0E0EE0FFF1FE95DA9
:10511000F14FA591B4916C91452F50E04095509579
:1051200046234C93F9012491FC018491E82FF0E08F
:10513000EE0FFF1FEF5CF14FA591B4918C9130E021
:105140002095309528232C93089590E09C01215BB5
:10515000314FF9015491855C914FFC014491E42F4A
:10516000F0E0EE0FFF1FE95DF14FA591B4916C9156
:10517000452F50E04095509546234C93F9012491DA
:10518000FC018491E82FF0E0EE0FFF1FEF5CF14F80
:10519000A591B4918C91282B2C93089590E0FC015B
:1051A000E15BF14F2491FC01E55CF14FE491F0E00B
:1051B000EE0FFF1FE95DF14FA591B491EC91E22B49
:1051C000EC93089590E0FC01E55CF14FE491F0E090
:1051D000EE0FFF1FE35EF14FA591B4912C91815B1F
:1051E000914FFC018491822321E030E011F430E002
:1051F00020E081E0232B09F480E008958F929F92B4
:10520000AF92BF92CF92DF92EF92FF920F931F93D4
:10521000CF93DF93CDB7DEB728970FB6F894DEBFF4
:105220000FBECDBF5C014B0181E0A816B104C9F0EF
:10523000AB2821F48920809409F4D5C028960FB6B4
:10524000F894DEBF0FBECDBFDF91CF911F910F91BC
:10525000FF90EF90DF90CF90BF90AF909F908F9096
:1052600008956F3F7F4F21F788E0EAE0F1E0DE012B
:10527000119601900D928A95E1F7E7E6F5E0138229
:105280001282158214821782168211861086138666
:1052900012861486168615868FEF9FEF908B878770
:1052A000128A118A148A138A8FE795E0968B858B70
:1052B0008FEF878B8AE991E0918380832A81222373
:1052C00009F48FC06B814C818FE795E00E94EE114D
:1052D000E7E6F5E08FEF848F89E695E0968F858F7E
:1052E000178E09E515E0F8011282118214821382EB
:1052F0001682158217820F2EF1E6EF2EF5E0FF2EB3
:10530000F02DF7011082F8011286118682E0838762
:1053100083E08487158660E082E00E94712860E067
:10532000F80184850E94712862E0F80185850E9459
:105330007128F801838194819061948383838485AB
:105340000E94E228D82EF80183850E94E2288295E7
:10535000880F880F807C86FB880F880B80F9982F38
:105360009370F70180818C7F892B9D2D9295990FE9
:10537000990F907C96FB990F990B90F99370990F68
:10538000990F837F892B808362E071E08AEE94E03D
:105390000E945D1588EF93E00E94361120E031E015
:1053A00048EF53E06AEE74E08CED93E00E946A1AD5
:1053B0000F2EF0E0CF2EF1E0DF2EF02D0F2EF7E6CE
:1053C000EF2EF5E0FF2EF02D08EF13E02CED33E08B
:1053D0004AEE54E069E575E088E693E00E94952581
:1053E00027CF2CE36FCF8AE991E0909368058093F3
:1053F000670524CF8F929F92AF92BF92CF92DF9298
:10540000EF92FF920F931F93CF93DF938C01DC01F8
:1054100016968D919C910E94F70EF801C081D18162
:105420008F8188230CF485C08D850E94E228E82EA8
:105430008C850E94E228F82E8B850E94E2282B8121
:105440003C8120FD1882A9014F715527452B19F089
:10545000207E3C832B839F8195FF02C09F7D9F838D
:10546000FE0137969181292F2295220F220F207C51
:1054700026FB220F220B20F99295907F96FB990F25
:10548000990B90F92927022E000C330B482F50E07E
:1054900028273527F216130609F492C1292F990FF0
:1054A000330B4217530709F46CC19181292F2295C0
:1054B0002F702F5F2295207F9F70922B9183282F32
:1054C0002295220F220F207C26FB220F220B20F98F
:1054D000237091819C7F922B2F2D2295220F220FDA
:1054E000207C26FB220F220B20F92370220F220F93
:1054F000937F922B9183907F09F464C12F81922F27
:105500009370913009F44EC108F446C1923009F409
:105510004EC1818191E080310CF44EC181E022FFC7
:1055200080E0981709F44AC12FEF81818F70818341
:105530004AC18D850E94E2282B813C8120FD188282
:10554000A9014F715527452B19F0207E3C832B83F1
:105550009F8195FF02C09F7D9F8329853A852115F4
:10556000310581F121FF24C09F8190619F8322FF3B
:1055700023C09F8198609F83369527953695279500
:10558000369527953A8729872B813C8125FF18C0BE
:1055900030683C832B832B813C8133FD03C0386012
:1055A0003C832B839F8190629F83EE24E3940BC006
:1055B0009F819F7E9F83DBCF9F81977F9F83DCCFDF
:1055C0001882E9CFE12C2B813C8136FF27C03F7B3D
:1055D0003C832B83FF24F3948B819C8191FD06C037
:1055E000FF2009F473C092609C838B830E94DC0CC3
:1055F00029813A81AB01421B530B9A01FF2009F428
:1056000040C04B815C8145FD1DC052FD10C09A0118
:1056100034603C832B837A8369834FC091E034FFED
:1056200090E0FF24F3948913D7CFF12CD5CF223308
:10563000310508F442C09A0122623C832B837A83AD
:1056400069833BC05523CCF146FD0AC02835324062
:10565000A0F19A0124643C832B837A8369832DC053
:1056600047FF0CC0E8ECF0E02E173F0730F19A013D
:1056700028683C832B837A8369831FC0E8E5F2E0C6
:10568000F3CFAB81BC81A5FF51C04233510570F00F
:10569000A6FD03C028812F5F2883BB230CF444C0E0
:1056A000CD01806191608F7D9C838B838B819C81F8
:1056B00092FF03C09B7F9C838B838B819C818F7126
:1056C0009927FF24F394892B09F4F12CFE2871F417
:1056D0008B819C8193FF53C10E94DC0C29813A810C
:1056E000621B730B60367A4E08F449C18D819E812E
:1056F000009709F444C1FC01892B09F440C10995C4
:105700008B819C8193FF3BC10E94DC0C29813A81F3
:10571000621B730B60367A4E08F431C18B819C8119
:10572000977F9C838B832BC11882BACFB0FF0EC0AA
:10573000BB2324F09D0120613C832B832B813C8182
:105740003E773C832B837A836983B0CFE881EE2355
:1057500069F0AD01407C5527452B21F4243F3140B1
:1057600008F4A4CFA160BC83AB83A0CFB1FF9ECFD0
:105770009D012F733D7F38603C832B837A8369833F
:1057800095CF9181292F22952F70215F2295207F1F
:105790009F70922B918393CEFF2011F08111B9CE8F
:1057A00020E011C08F2909F4B4CE20E00CC0F81617
:1057B00009F4AFCE20E007C090E0B0CE21E0B5CE36
:1057C00020E001C020E089859A85009709F458C03F
:1057D00081FF4EC02F8120612F8382FF4DC02F811A
:1057E00028602F83969587959695879596958795AA
:1057F0009A8789878B819C8185FF60C090689C8394
:105800008B838B819C8193FD03C098609C838B83E9
:105810008F8180628F83DD24D3948B819C8196FF5E
:1058200051C09F7B9C838B83FF24F3948B819C814D
:1058300091FD06C0FF2009F49BC092609C838B837E
:105840000E94DC0C29813A81DB01A21BB30B9D0174
:10585000FF2009F469C04B815C8145FD46C052FDC3
:105860003AC09A0134603C832B837A83698377C082
:105870002F812F7E2F83B1CF2F81277F2F83B2CF10
:105880002223F1F09CF08F8180618F830E94DC0CD9
:1058900029813A81AB01421B530B7A8369834E31D4
:1058A000510540F48F8188608F83A4CF8F818F7ED4
:1058B0008F83ECCF8F81877F8F839CCF1882A1CF7E
:1058C000D12CABCF21E094FF20E0FF24F394E2122F
:1058D000ADCFF12CABCFD29708F441C09A01226230
:1058E0003C832B837A8369833AC05523C4F146FDF8
:1058F0000AC02835324098F19A0124643C832B83F6
:105900007A8369832CC047FF0CC0E8ECF0E02E17C7
:105910003F0728F19A0128683C832B837A836983A7
:105920001EC0E8E5F2E0F3CFAB81BC81A5FF49C022
:105930002233310568F0A6FD03C028812F5F28833C
:10594000BB23ECF1CD01806191608F7D9C838B83C3
:105950008B819C8192FF03C09B7F9C838B838B8177
:105960009C818F719927FF24F394892B09F4F12CE2
:10597000FD2809F05BC08B819C8193FD4DC0E8013F
:10598000AD96D801D5968C91823009F46DC088858A
:10599000823009F479C0E801CA5BDF4F8E81813023
:1059A00009F4A8C0DF91CF911F910F91FF90EF9064
:1059B000DF90CF90BF90AF909F908F900895188206
:1059C000C1CFB0FF0EC0BB2324F09D0120613C83FA
:1059D0002B832B813C813E773C832B837A836983A5
:1059E000B7CFE881EE2369F0AD01407C5527452B08
:1059F00021F4243F314008F4ABCFA160BC83AB83DA
:105A0000A7CFB1FFA5CF9D012F733D7F38603C83A9
:105A10002B837A8369839CCF0E94DC0C29813A8195
:105A2000621B730B60367A4E08F4A9CF8D819E817C
:105A3000009709F4A4CFFC01892B09F4A0CF0995A4
:105A40008B819C8193FF9BCF0E94DC0C29813A8142
:105A5000621B730B60367A4E08F491CF8B819C8168
:105A6000977F9C838B838BCF0E94220BF801C0AC65
:105A7000D1ACE2ACF3AC6C197D098E099F0964AF1F
:105A800075AF86AF97AF83CF0E94220B6B017C016D
:105A90008D899E89AF89B88DA7019601281B390B86
:105AA0004A0B5B0BDA01C901883C9105A105B105E0
:105AB00008F471CF8885823071F0D8019D96ED9100
:105AC000FC910480F581E02DCE010995CD8ADE8A16
:105AD000EF8AF88E60CF0E94220B8B849C84AD8469
